{
  "_format": "hh-sol-artifact-1",
  "contractName": "ZkSeaNFT",
  "sourceName": "contracts/ZkSeaNFT.sol",
  "abi": [
    {
      "inputs": [
        {
          "internalType": "string",
          "name": "name_",
          "type": "string"
        },
        {
          "internalType": "string",
          "name": "symbol_",
          "type": "string"
        },
        {
          "internalType": "address",
          "name": "_owner",
          "type": "address"
        },
        {
          "internalType": "address",
          "name": "_devwallet",
          "type": "address"
        }
      ],
      "stateMutability": "nonpayable",
      "type": "constructor"
    },
    {
      "anonymous": false,
      "inputs": [
        {
          "indexed": true,
          "internalType": "address",
          "name": "owner",
          "type": "address"
        },
        {
          "indexed": true,
          "internalType": "address",
          "name": "approved",
          "type": "address"
        },
        {
          "indexed": true,
          "internalType": "uint256",
          "name": "tokenId",
          "type": "uint256"
        }
      ],
      "name": "Approval",
      "type": "event"
    },
    {
      "anonymous": false,
      "inputs": [
        {
          "indexed": true,
          "internalType": "address",
          "name": "owner",
          "type": "address"
        },
        {
          "indexed": true,
          "internalType": "address",
          "name": "operator",
          "type": "address"
        },
        {
          "indexed": false,
          "internalType": "bool",
          "name": "approved",
          "type": "bool"
        }
      ],
      "name": "ApprovalForAll",
      "type": "event"
    },
    {
      "anonymous": false,
      "inputs": [
        {
          "indexed": true,
          "internalType": "address",
          "name": "from",
          "type": "address"
        },
        {
          "indexed": true,
          "internalType": "address",
          "name": "to",
          "type": "address"
        },
        {
          "indexed": true,
          "internalType": "uint256",
          "name": "tokenId",
          "type": "uint256"
        }
      ],
      "name": "Transfer",
      "type": "event"
    },
    {
      "inputs": [
        {
          "internalType": "address",
          "name": "to",
          "type": "address"
        },
        {
          "internalType": "uint256",
          "name": "tokenId",
          "type": "uint256"
        }
      ],
      "name": "approve",
      "outputs": [],
      "stateMutability": "nonpayable",
      "type": "function"
    },
    {
      "inputs": [
        {
          "internalType": "uint256",
          "name": "tokenid",
          "type": "uint256"
        }
      ],
      "name": "auctiondetail",
      "outputs": [
        {
          "internalType": "uint256",
          "name": "",
          "type": "uint256"
        },
        {
          "internalType": "address",
          "name": "",
          "type": "address"
        }
      ],
      "stateMutability": "view",
      "type": "function"
    },
    {
      "inputs": [],
      "name": "auctionfees",
      "outputs": [
        {
          "internalType": "uint256",
          "name": "",
          "type": "uint256"
        }
      ],
      "stateMutability": "view",
      "type": "function"
    },
    {
      "inputs": [
        {
          "internalType": "uint256",
          "name": "",
          "type": "uint256"
        }
      ],
      "name": "auctionnftlist",
      "outputs": [
        {
          "internalType": "uint256",
          "name": "",
          "type": "uint256"
        }
      ],
      "stateMutability": "view",
      "type": "function"
    },
    {
      "inputs": [
        {
          "internalType": "address",
          "name": "owner",
          "type": "address"
        }
      ],
      "name": "balanceOf",
      "outputs": [
        {
          "internalType": "uint256",
          "name": "",
          "type": "uint256"
        }
      ],
      "stateMutability": "view",
      "type": "function"
    },
    {
      "inputs": [],
      "name": "baseURI",
      "outputs": [
        {
          "internalType": "string",
          "name": "",
          "type": "string"
        }
      ],
      "stateMutability": "view",
      "type": "function"
    },
    {
      "inputs": [
        {
          "internalType": "uint256",
          "name": "_collectionid",
          "type": "uint256"
        },
        {
          "internalType": "uint256",
          "name": "tokenid",
          "type": "uint256"
        }
      ],
      "name": "burnorinalnft",
      "outputs": [],
      "stateMutability": "nonpayable",
      "type": "function"
    },
    {
      "inputs": [
        {
          "internalType": "uint256",
          "name": "tokenid",
          "type": "uint256"
        }
      ],
      "name": "buyauction",
      "outputs": [],
      "stateMutability": "payable",
      "type": "function"
    },
    {
      "inputs": [
        {
          "internalType": "uint256",
          "name": "_collectionid",
          "type": "uint256"
        },
        {
          "internalType": "uint256",
          "name": "tokenid",
          "type": "uint256"
        }
      ],
      "name": "buynft",
      "outputs": [],
      "stateMutability": "payable",
      "type": "function"
    },
    {
      "inputs": [
        {
          "internalType": "uint256",
          "name": "tokenid",
          "type": "uint256"
        }
      ],
      "name": "cancelfixedsale",
      "outputs": [],
      "stateMutability": "nonpayable",
      "type": "function"
    },
    {
      "inputs": [
        {
          "internalType": "uint256",
          "name": "fees",
          "type": "uint256"
        }
      ],
      "name": "changeauctionreturnamountfees",
      "outputs": [],
      "stateMutability": "nonpayable",
      "type": "function"
    },
    {
      "inputs": [
        {
          "internalType": "uint256",
          "name": "fees",
          "type": "uint256"
        }
      ],
      "name": "changecsdogefees",
      "outputs": [],
      "stateMutability": "nonpayable",
      "type": "function"
    },
    {
      "inputs": [
        {
          "internalType": "uint256",
          "name": "collectionid",
          "type": "uint256"
        },
        {
          "internalType": "uint256",
          "name": "tokenid",
          "type": "uint256"
        }
      ],
      "name": "claim",
      "outputs": [],
      "stateMutability": "nonpayable",
      "type": "function"
    },
    {
      "inputs": [
        {
          "internalType": "uint256",
          "name": "id",
          "type": "uint256"
        }
      ],
      "name": "collectiondetails",
      "outputs": [
        {
          "internalType": "uint256",
          "name": "",
          "type": "uint256"
        },
        {
          "internalType": "address",
          "name": "",
          "type": "address"
        },
        {
          "internalType": "string",
          "name": "",
          "type": "string"
        },
        {
          "internalType": "string",
          "name": "",
          "type": "string"
        },
        {
          "internalType": "string",
          "name": "",
          "type": "string"
        },
        {
          "internalType": "string",
          "name": "",
          "type": "string"
        },
        {
          "internalType": "string",
          "name": "",
          "type": "string"
        },
        {
          "internalType": "uint256",
          "name": "",
          "type": "uint256"
        }
      ],
      "stateMutability": "view",
      "type": "function"
    },
    {
      "inputs": [],
      "name": "collectionform",
      "outputs": [
        {
          "internalType": "uint256",
          "name": "",
          "type": "uint256"
        }
      ],
      "stateMutability": "view",
      "type": "function"
    },
    {
      "inputs": [
        {
          "internalType": "uint256",
          "name": "collectionid",
          "type": "uint256"
        }
      ],
      "name": "collectionnft",
      "outputs": [
        {
          "internalType": "uint256[]",
          "name": "",
          "type": "uint256[]"
        }
      ],
      "stateMutability": "view",
      "type": "function"
    },
    {
      "inputs": [
        {
          "internalType": "uint256",
          "name": "",
          "type": "uint256"
        },
        {
          "internalType": "uint256",
          "name": "",
          "type": "uint256"
        }
      ],
      "name": "collectionstored",
      "outputs": [
        {
          "internalType": "uint256",
          "name": "",
          "type": "uint256"
        }
      ],
      "stateMutability": "view",
      "type": "function"
    },
    {
      "inputs": [
        {
          "internalType": "uint256",
          "name": "collectionid",
          "type": "uint256"
        },
        {
          "internalType": "address",
          "name": "to",
          "type": "address"
        },
        {
          "internalType": "string",
          "name": "_tokenURI",
          "type": "string"
        },
        {
          "internalType": "string",
          "name": "_mintname",
          "type": "string"
        },
        {
          "internalType": "string",
          "name": "_nftowner",
          "type": "string"
        },
        {
          "internalType": "uint256",
          "name": "_copies",
          "type": "uint256"
        },
        {
          "internalType": "string",
          "name": "description",
          "type": "string"
        }
      ],
      "name": "create",
      "outputs": [],
      "stateMutability": "payable",
      "type": "function"
    },
    {
      "inputs": [
        {
          "internalType": "uint256",
          "name": "collectionid",
          "type": "uint256"
        },
        {
          "internalType": "address",
          "name": "to",
          "type": "address"
        },
        {
          "internalType": "string",
          "name": "_tokenURI",
          "type": "string"
        },
        {
          "internalType": "string",
          "name": "_mintname",
          "type": "string"
        },
        {
          "internalType": "string",
          "name": "_nftowner",
          "type": "string"
        },
        {
          "internalType": "uint256",
          "name": "_copies",
          "type": "uint256"
        },
        {
          "internalType": "string",
          "name": "description",
          "type": "string"
        },
        {
          "internalType": "uint256",
          "name": "_times",
          "type": "uint256"
        },
        {
          "internalType": "uint256",
          "name": "_price",
          "type": "uint256"
        }
      ],
      "name": "createMulti",
      "outputs": [],
      "stateMutability": "payable",
      "type": "function"
    },
    {
      "inputs": [
        {
          "internalType": "string",
          "name": "_Cname",
          "type": "string"
        },
        {
          "internalType": "string",
          "name": "_Dname",
          "type": "string"
        },
        {
          "internalType": "string",
          "name": "_wensiteURL",
          "type": "string"
        },
        {
          "internalType": "string",
          "name": "_description",
          "type": "string"
        },
        {
          "internalType": "string",
          "name": "_imghash",
          "type": "string"
        },
        {
          "internalType": "uint256",
          "name": "_marketfee",
          "type": "uint256"
        }
      ],
      "name": "createcollection",
      "outputs": [],
      "stateMutability": "nonpayable",
      "type": "function"
    },
    {
      "inputs": [
        {
          "internalType": "uint256",
          "name": "",
          "type": "uint256"
        }
      ],
      "name": "csdogechoice",
      "outputs": [
        {
          "internalType": "bool",
          "name": "",
          "type": "bool"
        }
      ],
      "stateMutability": "view",
      "type": "function"
    },
    {
      "inputs": [],
      "name": "csdogefees",
      "outputs": [
        {
          "internalType": "uint256",
          "name": "",
          "type": "uint256"
        }
      ],
      "stateMutability": "view",
      "type": "function"
    },
    {
      "inputs": [
        {
          "internalType": "uint256",
          "name": "_collectionid",
          "type": "uint256"
        }
      ],
      "name": "deletecollection",
      "outputs": [],
      "stateMutability": "nonpayable",
      "type": "function"
    },
    {
      "inputs": [
        {
          "internalType": "uint256",
          "name": "tokenid",
          "type": "uint256"
        },
        {
          "internalType": "uint256",
          "name": "price",
          "type": "uint256"
        }
      ],
      "name": "fixedsales",
      "outputs": [],
      "stateMutability": "nonpayable",
      "type": "function"
    },
    {
      "inputs": [
        {
          "internalType": "uint256",
          "name": "tokenId",
          "type": "uint256"
        }
      ],
      "name": "getApproved",
      "outputs": [
        {
          "internalType": "address",
          "name": "",
          "type": "address"
        }
      ],
      "stateMutability": "view",
      "type": "function"
    },
    {
      "inputs": [
        {
          "internalType": "address",
          "name": "owner",
          "type": "address"
        },
        {
          "internalType": "address",
          "name": "operator",
          "type": "address"
        }
      ],
      "name": "isApprovedForAll",
      "outputs": [
        {
          "internalType": "bool",
          "name": "",
          "type": "bool"
        }
      ],
      "stateMutability": "view",
      "type": "function"
    },
    {
      "inputs": [
        {
          "internalType": "uint256",
          "name": "tokenid",
          "type": "uint256"
        }
      ],
      "name": "listofsalenft",
      "outputs": [
        {
          "internalType": "uint256[]",
          "name": "",
          "type": "uint256[]"
        },
        {
          "internalType": "uint256[]",
          "name": "",
          "type": "uint256[]"
        },
        {
          "internalType": "uint256",
          "name": "",
          "type": "uint256"
        },
        {
          "internalType": "uint256",
          "name": "",
          "type": "uint256"
        }
      ],
      "stateMutability": "view",
      "type": "function"
    },
    {
      "inputs": [],
      "name": "mintfee",
      "outputs": [
        {
          "internalType": "uint256",
          "name": "",
          "type": "uint256"
        }
      ],
      "stateMutability": "view",
      "type": "function"
    },
    {
      "inputs": [],
      "name": "name",
      "outputs": [
        {
          "internalType": "string",
          "name": "",
          "type": "string"
        }
      ],
      "stateMutability": "view",
      "type": "function"
    },
    {
      "inputs": [
        {
          "internalType": "uint256",
          "name": "tokenid",
          "type": "uint256"
        }
      ],
      "name": "nftauctionend",
      "outputs": [
        {
          "internalType": "bool",
          "name": "auctionnftbool",
          "type": "bool"
        }
      ],
      "stateMutability": "view",
      "type": "function"
    },
    {
      "inputs": [
        {
          "internalType": "uint256",
          "name": "",
          "type": "uint256"
        }
      ],
      "name": "nftcollectionid",
      "outputs": [
        {
          "internalType": "uint256",
          "name": "",
          "type": "uint256"
        }
      ],
      "stateMutability": "view",
      "type": "function"
    },
    {
      "inputs": [
        {
          "internalType": "uint256",
          "name": "id",
          "type": "uint256"
        }
      ],
      "name": "nftinformation",
      "outputs": [
        {
          "internalType": "uint256",
          "name": "",
          "type": "uint256"
        },
        {
          "internalType": "string",
          "name": "",
          "type": "string"
        },
        {
          "internalType": "uint256",
          "name": "",
          "type": "uint256"
        },
        {
          "internalType": "string",
          "name": "",
          "type": "string"
        },
        {
          "internalType": "uint256",
          "name": "",
          "type": "uint256"
        },
        {
          "internalType": "string",
          "name": "",
          "type": "string"
        },
        {
          "internalType": "string",
          "name": "",
          "type": "string"
        },
        {
          "internalType": "uint256",
          "name": "",
          "type": "uint256"
        },
        {
          "internalType": "address",
          "name": "",
          "type": "address"
        }
      ],
      "stateMutability": "view",
      "type": "function"
    },
    {
      "inputs": [
        {
          "internalType": "uint256",
          "name": "tokenid",
          "type": "uint256"
        }
      ],
      "name": "nftstake",
      "outputs": [],
      "stateMutability": "nonpayable",
      "type": "function"
    },
    {
      "inputs": [
        {
          "internalType": "uint256",
          "name": "",
          "type": "uint256"
        }
      ],
      "name": "nftstakestate",
      "outputs": [
        {
          "internalType": "bool",
          "name": "",
          "type": "bool"
        }
      ],
      "stateMutability": "view",
      "type": "function"
    },
    {
      "inputs": [
        {
          "internalType": "uint256",
          "name": "tokenid",
          "type": "uint256"
        }
      ],
      "name": "nftunstack",
      "outputs": [],
      "stateMutability": "nonpayable",
      "type": "function"
    },
    {
      "inputs": [
        {
          "internalType": "uint256",
          "name": "",
          "type": "uint256"
        }
      ],
      "name": "originalowner",
      "outputs": [
        {
          "internalType": "address",
          "name": "",
          "type": "address"
        }
      ],
      "stateMutability": "view",
      "type": "function"
    },
    {
      "inputs": [
        {
          "internalType": "uint256",
          "name": "tokenId",
          "type": "uint256"
        }
      ],
      "name": "ownerOf",
      "outputs": [
        {
          "internalType": "address",
          "name": "",
          "type": "address"
        }
      ],
      "stateMutability": "view",
      "type": "function"
    },
    {
      "inputs": [],
      "name": "ownernft",
      "outputs": [
        {
          "internalType": "address",
          "name": "",
          "type": "address"
        }
      ],
      "stateMutability": "view",
      "type": "function"
    },
    {
      "inputs": [
        {
          "internalType": "uint256",
          "name": "tokenid",
          "type": "uint256"
        }
      ],
      "name": "removesfromauction",
      "outputs": [],
      "stateMutability": "nonpayable",
      "type": "function"
    },
    {
      "inputs": [
        {
          "internalType": "address",
          "name": "from",
          "type": "address"
        },
        {
          "internalType": "address",
          "name": "to",
          "type": "address"
        },
        {
          "internalType": "uint256",
          "name": "tokenId",
          "type": "uint256"
        }
      ],
      "name": "safeTransferFrom",
      "outputs": [],
      "stateMutability": "nonpayable",
      "type": "function"
    },
    {
      "inputs": [
        {
          "internalType": "address",
          "name": "from",
          "type": "address"
        },
        {
          "internalType": "address",
          "name": "to",
          "type": "address"
        },
        {
          "internalType": "uint256",
          "name": "tokenId",
          "type": "uint256"
        },
        {
          "internalType": "bytes",
          "name": "_data",
          "type": "bytes"
        }
      ],
      "name": "safeTransferFrom",
      "outputs": [],
      "stateMutability": "nonpayable",
      "type": "function"
    },
    {
      "inputs": [
        {
          "internalType": "uint256",
          "name": "",
          "type": "uint256"
        }
      ],
      "name": "salenftlist",
      "outputs": [
        {
          "internalType": "uint256",
          "name": "",
          "type": "uint256"
        }
      ],
      "stateMutability": "view",
      "type": "function"
    },
    {
      "inputs": [
        {
          "internalType": "address",
          "name": "operator",
          "type": "address"
        },
        {
          "internalType": "bool",
          "name": "approved",
          "type": "bool"
        }
      ],
      "name": "setApprovalForAll",
      "outputs": [],
      "stateMutability": "nonpayable",
      "type": "function"
    },
    {
      "inputs": [
        {
          "internalType": "string",
          "name": "_baseURI",
          "type": "string"
        }
      ],
      "name": "setBaseURI",
      "outputs": [],
      "stateMutability": "nonpayable",
      "type": "function"
    },
    {
      "inputs": [
        {
          "internalType": "address",
          "name": "_devWallet",
          "type": "address"
        }
      ],
      "name": "setDevWallet",
      "outputs": [],
      "stateMutability": "nonpayable",
      "type": "function"
    },
    {
      "inputs": [
        {
          "internalType": "uint256",
          "name": "_fee",
          "type": "uint256"
        }
      ],
      "name": "setMintFeeInWei",
      "outputs": [],
      "stateMutability": "nonpayable",
      "type": "function"
    },
    {
      "inputs": [
        {
          "internalType": "address",
          "name": "_owner",
          "type": "address"
        }
      ],
      "name": "setOwnerWallet",
      "outputs": [],
      "stateMutability": "nonpayable",
      "type": "function"
    },
    {
      "inputs": [
        {
          "internalType": "address",
          "name": "_treasury",
          "type": "address"
        }
      ],
      "name": "setTreasuryWallet",
      "outputs": [],
      "stateMutability": "nonpayable",
      "type": "function"
    },
    {
      "inputs": [
        {
          "internalType": "address",
          "name": "_address",
          "type": "address"
        }
      ],
      "name": "setstackingContract",
      "outputs": [],
      "stateMutability": "nonpayable",
      "type": "function"
    },
    {
      "inputs": [
        {
          "internalType": "uint256",
          "name": "_tokenid",
          "type": "uint256"
        }
      ],
      "name": "stakevalue",
      "outputs": [
        {
          "internalType": "bool",
          "name": "",
          "type": "bool"
        }
      ],
      "stateMutability": "view",
      "type": "function"
    },
    {
      "inputs": [
        {
          "internalType": "uint256",
          "name": "tokenid",
          "type": "uint256"
        },
        {
          "internalType": "uint256",
          "name": "price",
          "type": "uint256"
        },
        {
          "internalType": "uint256",
          "name": "endday",
          "type": "uint256"
        },
        {
          "internalType": "uint256",
          "name": "endhours",
          "type": "uint256"
        }
      ],
      "name": "startauction",
      "outputs": [],
      "stateMutability": "nonpayable",
      "type": "function"
    },
    {
      "inputs": [
        {
          "internalType": "string",
          "name": "",
          "type": "string"
        }
      ],
      "name": "stopduplicate",
      "outputs": [
        {
          "internalType": "bool",
          "name": "",
          "type": "bool"
        }
      ],
      "stateMutability": "view",
      "type": "function"
    },
    {
      "inputs": [
        {
          "internalType": "bytes4",
          "name": "interfaceId",
          "type": "bytes4"
        }
      ],
      "name": "supportsInterface",
      "outputs": [
        {
          "internalType": "bool",
          "name": "",
          "type": "bool"
        }
      ],
      "stateMutability": "view",
      "type": "function"
    },
    {
      "inputs": [],
      "name": "symbol",
      "outputs": [
        {
          "internalType": "string",
          "name": "",
          "type": "string"
        }
      ],
      "stateMutability": "view",
      "type": "function"
    },
    {
      "inputs": [
        {
          "internalType": "uint256",
          "name": "tokenid",
          "type": "uint256"
        }
      ],
      "name": "timing",
      "outputs": [
        {
          "internalType": "uint256",
          "name": "",
          "type": "uint256"
        }
      ],
      "stateMutability": "view",
      "type": "function"
    },
    {
      "inputs": [
        {
          "internalType": "uint256",
          "name": "index",
          "type": "uint256"
        }
      ],
      "name": "tokenByIndex",
      "outputs": [
        {
          "internalType": "uint256",
          "name": "",
          "type": "uint256"
        }
      ],
      "stateMutability": "view",
      "type": "function"
    },
    {
      "inputs": [
        {
          "internalType": "address",
          "name": "owner",
          "type": "address"
        },
        {
          "internalType": "uint256",
          "name": "index",
          "type": "uint256"
        }
      ],
      "name": "tokenOfOwnerByIndex",
      "outputs": [
        {
          "internalType": "uint256",
          "name": "",
          "type": "uint256"
        }
      ],
      "stateMutability": "view",
      "type": "function"
    },
    {
      "inputs": [
        {
          "internalType": "uint256",
          "name": "tokenId",
          "type": "uint256"
        }
      ],
      "name": "tokenURI",
      "outputs": [
        {
          "internalType": "string",
          "name": "",
          "type": "string"
        }
      ],
      "stateMutability": "view",
      "type": "function"
    },
    {
      "inputs": [],
      "name": "tokenidmint",
      "outputs": [
        {
          "internalType": "uint256",
          "name": "",
          "type": "uint256"
        }
      ],
      "stateMutability": "view",
      "type": "function"
    },
    {
      "inputs": [],
      "name": "totalSupply",
      "outputs": [
        {
          "internalType": "uint256",
          "name": "",
          "type": "uint256"
        }
      ],
      "stateMutability": "view",
      "type": "function"
    },
    {
      "inputs": [
        {
          "internalType": "address",
          "name": "",
          "type": "address"
        }
      ],
      "name": "totalcollection",
      "outputs": [
        {
          "internalType": "uint256",
          "name": "",
          "type": "uint256"
        }
      ],
      "stateMutability": "view",
      "type": "function"
    },
    {
      "inputs": [],
      "name": "totalcollectiondetails",
      "outputs": [
        {
          "internalType": "uint256[]",
          "name": "",
          "type": "uint256[]"
        }
      ],
      "stateMutability": "view",
      "type": "function"
    },
    {
      "inputs": [
        {
          "internalType": "uint256",
          "name": "",
          "type": "uint256"
        }
      ],
      "name": "totalnft",
      "outputs": [
        {
          "internalType": "uint256",
          "name": "",
          "type": "uint256"
        }
      ],
      "stateMutability": "view",
      "type": "function"
    },
    {
      "inputs": [
        {
          "internalType": "address",
          "name": "from",
          "type": "address"
        },
        {
          "internalType": "address",
          "name": "to",
          "type": "address"
        },
        {
          "internalType": "uint256",
          "name": "tokenId",
          "type": "uint256"
        }
      ],
      "name": "transferFrom",
      "outputs": [],
      "stateMutability": "nonpayable",
      "type": "function"
    },
    {
      "inputs": [
        {
          "internalType": "uint256",
          "name": "tokenid",
          "type": "uint256"
        },
        {
          "internalType": "bool",
          "name": "choice",
          "type": "bool"
        }
      ],
      "name": "upgradeauction",
      "outputs": [],
      "stateMutability": "payable",
      "type": "function"
    },
    {
      "inputs": [
        {
          "internalType": "address",
          "name": "",
          "type": "address"
        },
        {
          "internalType": "uint256",
          "name": "",
          "type": "uint256"
        }
      ],
      "name": "userinfo",
      "outputs": [
        {
          "internalType": "uint256",
          "name": "",
          "type": "uint256"
        }
      ],
      "stateMutability": "view",
      "type": "function"
    },
    {
      "inputs": [
        {
          "internalType": "uint256",
          "name": "amount",
          "type": "uint256"
        }
      ],
      "name": "withdrawbnb",
      "outputs": [],
      "stateMutability": "nonpayable",
      "type": "function"
    },
    {
      "stateMutability": "payable",
      "type": "receive"
    }
  ],
  "bytecode": "0x60026010556014601155600060125560c060405260016080819052602f60f81b60a09081526200003391602a9190620000d8565b503480156200004157600080fd5b506040516200541438038062005414833981016040819052620000649162000268565b8351849084906200007d906000906020850190620000d8565b50805162000093906001906020840190620000d8565b5050601380546001600160a01b039485166001600160a01b031991821617909155600c805493909416928116831790935550600d805490921617905550620003349050565b828054620000e690620002f7565b90600052602060002090601f0160209004810192826200010a576000855562000155565b82601f106200012557805160ff191683800117855562000155565b8280016001018555821562000155579182015b828111156200015557825182559160200191906001019062000138565b506200016392915062000167565b5090565b5b8082111562000163576000815560010162000168565b634e487b7160e01b600052604160045260246000fd5b600082601f830112620001a657600080fd5b81516001600160401b0380821115620001c357620001c36200017e565b604051601f8301601f19908116603f01168101908282118183101715620001ee57620001ee6200017e565b816040528381526020925086838588010111156200020b57600080fd5b600091505b838210156200022f578582018301518183018401529082019062000210565b83821115620002415760008385830101525b9695505050505050565b80516001600160a01b03811681146200026357600080fd5b919050565b600080600080608085870312156200027f57600080fd5b84516001600160401b03808211156200029757600080fd5b620002a58883890162000194565b95506020870151915080821115620002bc57600080fd5b50620002cb8782880162000194565b935050620002dc604086016200024b565b9150620002ec606086016200024b565b905092959194509250565b600181811c908216806200030c57607f821691505b602082108114156200032e57634e487b7160e01b600052602260045260246000fd5b50919050565b6150d080620003446000396000f3fe6080604052600436106103e85760003560e01c80636d908f3811610208578063a8602fea11610118578063cf477d6c116100ab578063e985e9c51161007a578063e985e9c514610c52578063ec2d455d14610c9b578063ecad5cf614610cc8578063ef6e944014610d03578063f4c66c1814610d2357600080fd5b8063cf477d6c14610bcf578063d3c5915a14610bef578063e448d59814610c05578063e6629e0a14610c3257600080fd5b8063c001eebe116100e7578063c001eebe14610b5c578063c349026314610b7c578063c87b56dd14610b9c578063cc87103b14610bbc57600080fd5b8063a8602fea14610adc578063b41a4d3d14610afc578063b88d4fde14610b1c578063bb542ef014610b3c57600080fd5b8063930037171161019b5780639e3c63111161016a5780639e3c631114610a265780639f74b06014610a46578063a22cb46514610a5c578063a4bf210814610a7c578063a6c0e24b14610aac57600080fd5b806393003717146109be57806395d89b41146109d1578063967a7a65146109e65780639b3f83d314610a0657600080fd5b806380598bfa116101d757806380598bfa146109485780638397fe2614610968578063855fb05e146109885780638e2aadb51461099e57600080fd5b80636d908f38146108c25780636fb3c03a146108d857806370a082311461090857806370bf164d1461092857600080fd5b80632d5ea4291161030357806355f804b3116102965780636352211e116102655780636352211e1461082857806365a779321461084857806367a3e1d6146108785780636986b4831461088b5780636c0360eb146108ad57600080fd5b806355f804b31461079b5780635a9cbc2b146107bb5780635c368498146107db5780635d91bae9146107fb57600080fd5b806342842e0e116102d257806342842e0e146106fa5780634afb6c791461071a5780634e72cea2146107475780634f6ccce71461077b57600080fd5b80632d5ea429146106895780632f745c59146106a9578063364ca6ed146106c957806341d7f75b146106e757600080fd5b80631d66870d1161037b57806323b872dd1161034a57806323b872dd146105a25780632800b89e146105c257806329bc5825146105f85780632d11e3321461065c57600080fd5b80631d66870d146105175780631f53ac021461054c578063207cc63e1461056c57806320e836001461058c57600080fd5b80630d944bec116103b75780630d944bec146104a55780630f3c920c146104c5578063115f4a55146104d857806318160ddd146104f857600080fd5b806301ffc9a7146103f457806306fdde0314610429578063081812fc1461044b578063095ea7b31461048357600080fd5b366103ef57005b600080fd5b34801561040057600080fd5b5061041461040f36600461449a565b610d43565b60405190151581526020015b60405180910390f35b34801561043557600080fd5b5061043e610d6e565b6040516104209190614516565b34801561045757600080fd5b5061046b610466366004614529565b610e00565b6040516001600160a01b039091168152602001610420565b34801561048f57600080fd5b506104a361049e366004614559565b610e9a565b005b3480156104b157600080fd5b506104a36104c0366004614529565b610fb0565b6104a36104d336600461462f565b61106f565b3480156104e457600080fd5b506104a36104f3366004614529565b6111a6565b34801561050457600080fd5b50600a545b604051908152602001610420565b34801561052357600080fd5b50610537610532366004614529565b6111e8565b60405161042099989796959493929190614714565b34801561055857600080fd5b506104a361056736600461479e565b611405565b34801561057857600080fd5b506104a36105873660046147b9565b611451565b34801561059857600080fd5b50610509600e5481565b3480156105ae57600080fd5b506104a36105bd3660046147db565b61151b565b3480156105ce57600080fd5b5061046b6105dd366004614529565b6029602052600090815260409020546001600160a01b031681565b34801561060457600080fd5b5061063f610613366004614529565b6000908152602080805260408083206003015460239092529091205490916001600160a01b0390911690565b604080519283526001600160a01b03909116602083015201610420565b34801561066857600080fd5b50610509610677366004614529565b601a6020526000908152604090205481565b34801561069557600080fd5b506104146106a4366004614529565b61154c565b3480156106b557600080fd5b506105096106c4366004614559565b6115a3565b3480156106d557600080fd5b506013546001600160a01b031661046b565b6104a36106f53660046147b9565b611639565b34801561070657600080fd5b506104a36107153660046147db565b61182d565b34801561072657600080fd5b50610509610735366004614529565b601e6020526000908152604090205481565b34801561075357600080fd5b50610767610762366004614529565b611848565b604051610420989796959493929190614817565b34801561078757600080fd5b50610509610796366004614529565b611bfc565b3480156107a757600080fd5b506104a36107b63660046148a8565b611c8f565b3480156107c757600080fd5b506105096107d6366004614559565b611ccc565b3480156107e757600080fd5b506104a36107f6366004614529565b611cfd565b34801561080757600080fd5b50610509610816366004614529565b601d6020526000908152604090205481565b34801561083457600080fd5b5061046b610843366004614529565b611d2c565b34801561085457600080fd5b50610868610863366004614529565b611da3565b6040516104209493929190614918565b6104a3610886366004614961565b611e7c565b34801561089757600080fd5b506108a061217d565b604051610420919061498d565b3480156108b957600080fd5b5061043e6121dd565b3480156108ce57600080fd5b5061050960115481565b3480156108e457600080fd5b506104146108f3366004614529565b60286020526000908152604090205460ff1681565b34801561091457600080fd5b5061050961092336600461479e565b61226b565b34801561093457600080fd5b50610509610943366004614529565b6122f2565b34801561095457600080fd5b506104a36109633660046149a0565b612327565b34801561097457600080fd5b506108a0610983366004614529565b6124b2565b34801561099457600080fd5b5061050960105481565b3480156109aa57600080fd5b506104a36109b9366004614529565b612514565b6104a36109cc366004614529565b612543565b3480156109dd57600080fd5b5061043e61270e565b3480156109f257600080fd5b506104a3610a01366004614529565b61271d565b348015610a1257600080fd5b506104a3610a213660046147b9565b6127cb565b348015610a3257600080fd5b506104a3610a41366004614529565b61291f565b348015610a5257600080fd5b50610509600f5481565b348015610a6857600080fd5b506104a3610a773660046149d2565b6129dc565b348015610a8857600080fd5b50610414610a97366004614529565b60256020526000908152604090205460ff1681565b348015610ab857600080fd5b50610414610ac7366004614529565b60009081526028602052604090205460ff1690565b348015610ae857600080fd5b506104a3610af736600461479e565b612aa1565b348015610b0857600080fd5b50610509610b173660046147b9565b612aed565b348015610b2857600080fd5b506104a3610b373660046149fc565b612b09565b348015610b4857600080fd5b506104a3610b5736600461479e565b612b41565b348015610b6857600080fd5b506104a3610b7736600461479e565b612ba9565b348015610b8857600080fd5b506104a3610b973660046147b9565b612bf5565b348015610ba857600080fd5b5061043e610bb7366004614529565b612f9d565b6104a3610bca366004614a78565b613117565b348015610bdb57600080fd5b506104a3610bea366004614529565b61328e565b348015610bfb57600080fd5b5061050960125481565b348015610c1157600080fd5b50610509610c2036600461479e565b60196020526000908152604090205481565b348015610c3e57600080fd5b506104a3610c4d366004614b49565b6132bd565b348015610c5e57600080fd5b50610414610c6d366004614c23565b6001600160a01b03918216600090815260056020908152604080832093909416825291909152205460ff1690565b348015610ca757600080fd5b50610509610cb6366004614529565b60226020526000908152604090205481565b348015610cd457600080fd5b50610414610ce33660046148a8565b805160208183018101805160248252928201919093012091525460ff1681565b348015610d0f57600080fd5b506104a3610d1e366004614529565b61349e565b348015610d2f57600080fd5b506104a3610d3e366004614529565b6135c6565b60006001600160e01b0319821663780e9d6360e01b1480610d685750610d6882613663565b92915050565b606060008054610d7d90614c4d565b80601f0160208091040260200160405190810160405280929190818152602001828054610da990614c4d565b8015610df65780601f10610dcb57610100808354040283529160200191610df6565b820191906000526020600020905b815481529060010190602001808311610dd957829003601f168201915b5050505050905090565b6000818152600260205260408120546001600160a01b0316610e7e5760405162461bcd60e51b815260206004820152602c60248201527f4552433732313a20617070726f76656420717565727920666f72206e6f6e657860448201526b34b9ba32b73a103a37b5b2b760a11b60648201526084015b60405180910390fd5b506000908152600460205260409020546001600160a01b031690565b6000610ea582611d2c565b9050806001600160a01b0316836001600160a01b03161415610f135760405162461bcd60e51b815260206004820152602160248201527f4552433732313a20617070726f76616c20746f2063757272656e74206f776e656044820152603960f91b6064820152608401610e75565b336001600160a01b0382161480610f2f5750610f2f8133610c6d565b610fa15760405162461bcd60e51b815260206004820152603860248201527f4552433732313a20617070726f76652063616c6c6572206973206e6f74206f7760448201527f6e6572206e6f7220617070726f76656420666f7220616c6c00000000000000006064820152608401610e75565b610fab83836136b3565b505050565b6000818152602960205260409020546001600160a01b031633146110165760405162461bcd60e51b815260206004820152601a60248201527f796f7520617265206e6f74206f726967696e616c206f776e65720000000000006044820152606401610e75565b6000818152601560205260408120908155600101805460ff1916905561103d303383613721565b6000818152601d6020526040902054601b8054909190811061106157611061614c88565b600091825260208220015550565b60015b82811161119a576001600e600082825461108c9190614cb4565b909155505060008a8152601660209081526040808320600e5481546001818101845592865284862001558d8452601a909252822080544293906110d0908490614cb4565b909155505060008b8152601a60205260409020546110f090600190614ccc565b60008c8152601f60209081526040808320600e805485529083528184209490945583548352602282528083208f9055835483526029909152902080546001600160a01b0319163317905554611175908b908b8b61114c83613851565b60405160200161115d929190614ce3565b604051602081830303815290604052858c8c8c61395a565b821561118757611187600e54846127cb565b508061119281614d21565b915050611072565b50505050505050505050565b6014546001600160a01b031633146111d05760405162461bcd60e51b8152600401610e7590614d3c565b6000908152602860205260409020805460ff19169055565b60008181526006602052604081206001810154600482015460609284928492849284928392859283928c928392919060028301906003840161122986612f9d565b60008881526022602052604090205461124189611d2c565b87805461124d90614c4d565b80601f016020809104026020016040519081016040528092919081815260200182805461127990614c4d565b80156112c65780601f1061129b576101008083540402835291602001916112c6565b820191906000526020600020905b8154815290600101906020018083116112a957829003601f168201915b505050505097508580546112d990614c4d565b80601f016020809104026020016040519081016040528092919081815260200182805461130590614c4d565b80156113525780601f1061132757610100808354040283529160200191611352565b820191906000526020600020905b81548152906001019060200180831161133557829003601f168201915b5050505050955083805461136590614c4d565b80601f016020809104026020016040519081016040528092919081815260200182805461139190614c4d565b80156113de5780601f106113b3576101008083540402835291602001916113de565b820191906000526020600020905b8154815290600101906020018083116113c157829003601f168201915b50505050509350995099509950995099509950995099509950509193959799909294969850565b600c546001600160a01b0316331461142f5760405162461bcd60e51b8152600401610e7590614d67565b600c80546001600160a01b0319166001600160a01b0392909216919091179055565b600c546001600160a01b0316331461147b5760405162461bcd60e51b8152600401610e7590614d67565b6000828152601660209081526040808320601f835281842085855290925290912054815481106114ad576114ad614c88565b60009182526020808320909101829055828252602990526040812080546001600160a01b031916905560246114e183612f9d565b6040516114ee9190614d8e565b908152604051908190036020019020805491151560ff19909216919091179055611517816139e7565b5050565b6115253382613a8e565b6115415760405162461bcd60e51b8152600401610e7590614daa565b610fab838383613721565b60008181526020805260408120544210156115795760405162461bcd60e51b8152600401610e7590614dfb565b6000828152602360205260409020546001600160a01b03161561159e57506001919050565b919050565b60006115ae8361226b565b82106116105760405162461bcd60e51b815260206004820152602b60248201527f455243373231456e756d657261626c653a206f776e657220696e646578206f7560448201526a74206f6620626f756e647360a81b6064820152608401610e75565b506001600160a01b03919091166000908152600860209081526040808320938352929052205490565b60008181526015602052604090206001015460ff1661166a5760405162461bcd60e51b8152600401610e7590614e20565b6000601054606461167b9190614ccc565b60008381526015602052604090205490915034908110156116de5760405162461bcd60e51b815260206004820152601760248201527f70726963652073686f756c6420626520677265617465720000000000000000006044820152606401610e75565b600060646116ec8484614e49565b6116f69190614e7e565b905060006117048284614ccc565b6000868152602960205260408082205490519293506001600160a01b031691829085908381818185875af1925050503d806000811461175f576040519150601f19603f3d011682016040523d82523d6000602084013e611764565b606091505b50509050806117855760405162461bcd60e51b8152600401610e7590614e92565b600d546040516000916001600160a01b03169085908381818185875af1925050503d80600081146117d2576040519150601f19603f3d011682016040523d82523d6000602084013e6117d7565b606091505b50509050806117f85760405162461bcd60e51b8152600401610e7590614e92565b61180330338a613721565b6000888152600660205260409020426001909101556118228989613b81565b505050505050505050565b610fab83838360405180602001604052806000815250612b09565b6000806060806060806060600080601760008b8152602001908152602001600020600101805461187790614c4d565b80601f01602080910402602001604051908101604052809291908181526020018280546118a390614c4d565b80156118f05780601f106118c5576101008083540402835291602001916118f0565b820191906000526020600020905b8154815290600101906020018083116118d357829003601f168201915b505050505090506000601760008c8152602001908152602001600020600201805461191a90614c4d565b80601f016020809104026020016040519081016040528092919081815260200182805461194690614c4d565b80156119935780601f1061196857610100808354040283529160200191611993565b820191906000526020600020905b81548152906001019060200180831161197657829003601f168201915b505050505090506000601760008d815260200190815260200160002060030180546119bd90614c4d565b80601f01602080910402602001604051908101604052809291908181526020018280546119e990614c4d565b8015611a365780601f10611a0b57610100808354040283529160200191611a36565b820191906000526020600020905b815481529060010190602001808311611a1957829003601f168201915b505050505090506000601760008e81526020019081526020016000206004018054611a6090614c4d565b80601f0160208091040260200160405190810160405280929190818152602001828054611a8c90614c4d565b8015611ad95780601f10611aae57610100808354040283529160200191611ad9565b820191906000526020600020905b815481529060010190602001808311611abc57829003601f168201915b505050505090506000601760008f81526020019081526020016000206005018054611b0390614c4d565b80601f0160208091040260200160405190810160405280929190818152602001828054611b2f90614c4d565b8015611b7c5780601f10611b5157610100808354040283529160200191611b7c565b820191906000526020600020905b815481529060010190602001808311611b5f57829003601f168201915b5050505050905060008e905060006017600083815260200190815260200160002060060154905060006017600084815260200190815260200160002060000160009054906101000a90046001600160a01b0316905082818989898989889f509f509f509f509f509f509f509f505050505050505050919395975091939597565b6000611c07600a5490565b8210611c6a5760405162461bcd60e51b815260206004820152602c60248201527f455243373231456e756d657261626c653a20676c6f62616c20696e646578206f60448201526b7574206f6620626f756e647360a01b6064820152608401610e75565b600a8281548110611c7d57611c7d614c88565b90600052602060002001549050919050565b600c546001600160a01b03163314611cb95760405162461bcd60e51b8152600401610e7590614d67565b805161151790602a906020840190614394565b60186020528160005260406000208181548110611ce857600080fd5b90600052602060002001600091509150505481565b600c546001600160a01b03163314611d275760405162461bcd60e51b8152600401610e7590614d67565b601255565b6000818152600260205260408120546001600160a01b031680610d685760405162461bcd60e51b815260206004820152602960248201527f4552433732313a206f776e657220717565727920666f72206e6f6e657869737460448201526832b73a103a37b5b2b760b91b6064820152608401610e75565b600081815260208080526040808320600101546015835281842054601b80548451818702810187019095528085526060968796909586959394601c94939092869190830182828015611e1457602002820191906000526020600020905b815481526020019060010190808311611e00575b5050505050935082805480602002602001604051908101604052809291908181526020018280548015611e6657602002820191906000526020600020905b815481526020019060010190808311611e52575b5050505050925093509350935093509193509193565b6000828152602080526040902054421115611ea95760405162461bcd60e51b8152600401610e7590614dfb565b60006011546064611eba9190614ccc565b90508115611fb757600083815260216020908152604080832033845290915281208054349290611eeb908490614cb4565b90915550506000838152602080805260408083206003015460218352818420338552909252909120541115610fab57600083815260208080526040808320346003909101819055602390925280832080546001600160a01b0319163317905551909190309083908381818185875af1925050503d8060008114611f8a576040519150601f19603f3d011682016040523d82523d6000602084013e611f8f565b606091505b5050905080611fb05760405162461bcd60e51b8152600401610e7590614e92565b5050505050565b6000838152602360205260409020546001600160a01b03163314610fab57600083815260216020908152604080832033845290915290205461202c5760405162461bcd60e51b815260206004820152600e60248201526d596f7520646f6e7420616c6c6f7760901b6044820152606401610e75565b60008381526021602090815260408083203384529091528120549060646120538484614e49565b61205d9190614e7e565b905060006064601154846120719190614e49565b61207b9190614e7e565b604051909150600090339084908381818185875af1925050503d80600081146120c0576040519150601f19603f3d011682016040523d82523d6000602084013e6120c5565b606091505b50509050806120e65760405162461bcd60e51b8152600401610e7590614e92565b600d546040516000916001600160a01b03169084908381818185875af1925050503d8060008114612133576040519150601f19603f3d011682016040523d82523d6000602084013e612138565b606091505b50509050806121595760405162461bcd60e51b8152600401610e7590614e92565b50505060008581526021602090815260408083203384529091528120555050505050565b33600090815260186020908152604091829020805483518184028101840190945280845260609392830182828015610df657602002820191906000526020600020905b8154815260200190600101908083116121c0575050505050905090565b602a80546121ea90614c4d565b80601f016020809104026020016040519081016040528092919081815260200182805461221690614c4d565b80156122635780601f1061223857610100808354040283529160200191612263565b820191906000526020600020905b81548152906001019060200180831161224657829003601f168201915b505050505081565b60006001600160a01b0382166122d65760405162461bcd60e51b815260206004820152602a60248201527f4552433732313a2062616c616e636520717565727920666f7220746865207a65604482015269726f206164647265737360b01b6064820152608401610e75565b506001600160a01b031660009081526003602052604090205490565b6000818152602080526040812054421161231f576000828152602080526040902054610d68904290614ccc565b506000919050565b60008481526028602052604090205460ff16156123755760405162461bcd60e51b815260206004820152600c60248201526b6e6674206973207374616b6560a01b6044820152606401610e75565b600084815260208052604090206002015460ff16156123a65760405162461bcd60e51b8152600401610e7590614eb9565b60008481526015602052604090206001015460ff16156123d85760405162461bcd60e51b8152600401610e7590614eb9565b336123e285611d2c565b6001600160a01b0316146124085760405162461bcd60e51b8152600401610e7590614d3c565b612414610e1082614e49565b6124216201518084614e49565b61242b9042614cb4565b6124359190614cb4565b60008581526020808052604080832093845560018085018890556002909401805460ff191685179055601c8054601e90935290832082905592810183559181527f0e4562a10381dec21b205ed72637e6b1b523bdd0e4d4d50af5cd23dd4500a2119091018590556124a585611d2c565b9050611fb081308761151b565b60008181526016602090815260409182902080548351818402810184019094528084526060939283018282801561250857602002820191906000526020600020905b8154815260200190600101908083116124f4575b50505050509050919050565b600c546001600160a01b0316331461253e5760405162461bcd60e51b8152600401610e7590614d67565b601155565b600081815260208052604090206002015460ff166125735760405162461bcd60e51b8152600401610e7590614e20565b60008181526020805260409020600101543410156125d35760405162461bcd60e51b815260206004820152601860248201527f616d6f756e742073686f756c64206265206772656174657200000000000000006044820152606401610e75565b600081815260208052604090206003015434116126325760405162461bcd60e51b815260206004820152601760248201527f70726576696f75732062696464696e6720616d6f756e740000000000000000006044820152606401610e75565b600081815260208052604090205442111561265f5760405162461bcd60e51b8152600401610e7590614dfb565b6000818152602080805260408083203460039091018190556021835281842033808652908452828520829055858552602390935281842080546001600160a01b03191690931790925551909190309083908381818185875af1925050503d80600081146126e8576040519150601f19603f3d011682016040523d82523d6000602084013e6126ed565b606091505b5050905080610fab5760405162461bcd60e51b8152600401610e7590614e92565b606060018054610d7d90614c4d565b600081815260208052604090206002015460ff161561274e5760405162461bcd60e51b8152600401610e7590614eb9565b60008181526015602052604090206001015460ff16156127805760405162461bcd60e51b8152600401610e7590614eb9565b3361278a82611d2c565b6001600160a01b0316146127b05760405162461bcd60e51b8152600401610e7590614d3c565b6000908152602860205260409020805460ff19166001179055565b60008281526028602052604090205460ff16156128195760405162461bcd60e51b815260206004820152600c60248201526b6e6674206973207374616b6560a01b6044820152606401610e75565b600082815260208052604090206002015460ff161561284a5760405162461bcd60e51b8152600401610e7590614eb9565b60008281526015602052604090206001015460ff161561287c5760405162461bcd60e51b8152600401610e7590614eb9565b3361288683611d2c565b6001600160a01b0316146128ac5760405162461bcd60e51b8152600401610e7590614d3c565b60008281526015602090815260408083208481556001908101805460ff191682179055601b8054601d9094529184208390558201815582527f3ad8aa4f87544323a9d1e5dd902f40c356527a7955687113db5f9a85ad579dc10183905561291283611d2c565b9050610fab81308561151b565b6000818152602960205260409020546001600160a01b031633146129855760405162461bcd60e51b815260206004820152601960248201527f596f7520617265206e6f74206f726967696e616c6f776e6572000000000000006044820152606401610e75565b60008181526020805260408120600181018290556003810182905560028101805460ff19169055556129b8303383613721565b6000818152601e6020526040902054601c8054909190811061106157611061614c88565b6001600160a01b038216331415612a355760405162461bcd60e51b815260206004820152601960248201527f4552433732313a20617070726f766520746f2063616c6c6572000000000000006044820152606401610e75565b3360008181526005602090815260408083206001600160a01b03871680855290835292819020805460ff191686151590811790915590519081529192917f17307eab39ab6107e8899845ad3d59bd9653f200f220920489ca2b5937696c31910160405180910390a35050565b600c546001600160a01b03163314612acb5760405162461bcd60e51b8152600401610e7590614d67565b600d80546001600160a01b0319166001600160a01b0392909216919091179055565b60166020528160005260406000208181548110611ce857600080fd5b612b133383613a8e565b612b2f5760405162461bcd60e51b8152600401610e7590614daa565b612b3b84848484613cc3565b50505050565b6013546001600160a01b03163314612b875760405162461bcd60e51b81526020600482015260096024820152683737ba1037bbb732b960b91b6044820152606401610e75565b601380546001600160a01b0319166001600160a01b0392909216919091179055565b600c546001600160a01b03163314612bd35760405162461bcd60e51b8152600401610e7590614d67565b601480546001600160a01b0319166001600160a01b0392909216919091179055565b600081815260208052604090206002015460ff16612c255760405162461bcd60e51b8152600401610e7590614e20565b60008181526020805260409020544211612c735760405162461bcd60e51b815260206004820152600f60248201526e185d58dd1a5bdb881b9bdd08195b99608a1b6044820152606401610e75565b60006010546064612c849190614ccc565b6000838152602360205260409020549091506001600160a01b0316331415612df5576000828152602080526040812060030154906064612cc48484614e49565b612cce9190614e7e565b90506000606460105484612ce29190614e49565b612cec9190614e7e565b6000868152602960205260408082205490519293506001600160a01b031691829085908381818185875af1925050503d8060008114612d47576040519150601f19603f3d011682016040523d82523d6000602084013e612d4c565b606091505b5050905080612d6d5760405162461bcd60e51b8152600401610e7590614e92565b600d546040516000916001600160a01b03169085908381818185875af1925050503d8060008114612dba576040519150601f19603f3d011682016040523d82523d6000602084013e612dbf565b606091505b5050905080612de05760405162461bcd60e51b8152600401610e7590614e92565b612deb30338a613721565b6118228989613cf6565b6000828152602160209081526040808320338452909152902054612e4c5760405162461bcd60e51b815260206004820152600e60248201526d596f7520646f6e7420616c6c6f7760901b6044820152606401610e75565b6000828152602160209081526040808320338452909152812054906064612e738484614e49565b612e7d9190614e7e565b90506000606460115484612e919190614e49565b612e9b9190614e7e565b604051909150600090339084908381818185875af1925050503d8060008114612ee0576040519150601f19603f3d011682016040523d82523d6000602084013e612ee5565b606091505b5050905080612f065760405162461bcd60e51b8152600401610e7590614e92565b600d546040516000916001600160a01b03169084908381818185875af1925050503d8060008114612f53576040519150601f19603f3d011682016040523d82523d6000602084013e612f58565b606091505b5050905080612f795760405162461bcd60e51b8152600401610e7590614e92565b50505060008481526021602090815260408083203384529091528120555050505050565b6000818152600260205260409020546060906001600160a01b031661301e5760405162461bcd60e51b815260206004820152603160248201527f45524337323155524953746f726167653a2055524920717565727920666f72206044820152703737b732bc34b9ba32b73a103a37b5b2b760791b6064820152608401610e75565b6000828152600760205260408120805461303790614c4d565b80601f016020809104026020016040519081016040528092919081815260200182805461306390614c4d565b80156130b05780601f10613085576101008083540402835291602001916130b0565b820191906000526020600020905b81548152906001019060200180831161309357829003601f168201915b5050505050905060006130c1613e48565b90508051600014156130d4575092915050565b8151156131065780826040516020016130ee929190614ee2565b60405160208183030381529060405292505050919050565b61310f84612f9d565b949350505050565b6024856040516131279190614d8e565b9081526040519081900360200190205460ff161561317f5760405162461bcd60e51b8152602060048201526015602482015274151bdad95b88155492481b9bdd08185b1b1bddd959605a1b6044820152606401610e75565b6001600e60008282546131929190614cb4565b90915550506000878152601660209081526040808320600e5481546001818101845592865284862001558a8452601a909252822080544293906131d6908490614cb4565b90915550506000888152601a60205260409020546131f690600190614ccc565b6000898152601f60209081526040808320600e805485529083528184209490945583548352602282528083208c9055835483526029909152902080546001600160a01b031916331790555461325290889088888589898961395a565b60016024876040516132649190614d8e565b908152604051908190036020019020805491151560ff199092169190911790555050505050505050565b600c546001600160a01b031633146132b85760405162461bcd60e51b8152600401610e7590614d67565b601055565b6024826040516132cd9190614d8e565b9081526040519081900360200190205460ff16156133215760405162461bcd60e51b81526020600482015260116024820152701d985b1d59481b9bdd08185b1b1bddd959607a1b6044820152606401610e75565b6001600f60008282546133349190614cb4565b9091555050600f8054600090815260176020908152604080832080546001600160a01b0319163317905592548252919020875161337a9260019290920191890190614394565b50600f54600090815260176020908152604090912086516133a392600290920191880190614394565b50600f54600090815260176020908152604090912085516133cc92600390920191870190614394565b50600f54600090815260176020908152604090912084516133f592600490920191860190614394565b50600f546000908152601760209081526040909120835161341e92600590920191850190614394565b50600f8054600090815260176020908152604080832060060185905533808452601883528184208554815460018181018455928752858720015594549084526019909252918290205551602490613476908590614d8e565b908152604051908190036020019020805491151560ff19909216919091179055505050505050565b600c546001600160a01b031633146134c85760405162461bcd60e51b8152600401610e7590614d67565b6000818152601760209081526040808320546001600160a01b03168352601890915281206134f591614418565b600081815260176020818152604080842080546001600160a01b0316855260198352818520859055858552929091525160249161353791600590910190614f11565b9081526040805160209281900383019020805460ff1916931515939093179092556000838152601790915290812080546001600160a01b0319168155906135816001830182614439565b61358f600283016000614439565b61359d600383016000614439565b6135ab600483016000614439565b6135b9600583016000614439565b6006820160009055505050565b600c546001600160a01b031633146135f05760405162461bcd60e51b8152600401610e7590614d67565b600c546040516000916001600160a01b03169083908381818185875af1925050503d806000811461363d576040519150601f19603f3d011682016040523d82523d6000602084013e613642565b606091505b50509050806115175760405162461bcd60e51b8152600401610e7590614e92565b60006001600160e01b031982166380ac58cd60e01b148061369457506001600160e01b03198216635b5e139f60e01b145b80610d6857506301ffc9a760e01b6001600160e01b0319831614610d68565b600081815260046020526040902080546001600160a01b0319166001600160a01b03841690811790915581906136e882611d2c565b6001600160a01b03167f8c5be1e5ebec7d5bd14f71427d1e84f3dd0314c0f7b2291e5b200ac8c7c3b92560405160405180910390a45050565b6001600160a01b0382166137835760405162461bcd60e51b8152602060048201526024808201527f4552433732313a207472616e7366657220746f20746865207a65726f206164646044820152637265737360e01b6064820152608401610e75565b61378e838383613e57565b6137996000826136b3565b6001600160a01b03831660009081526003602052604081208054600192906137c2908490614ccc565b90915550506001600160a01b03821660009081526003602052604081208054600192906137f0908490614cb4565b909155505060008181526002602052604080822080546001600160a01b0319166001600160a01b0386811691821790925591518493918716917fddf252ad1be2c89b69c2b068fc378daa952ba7f163c4a11628f55a4df523b3ef91a4505050565b6060816138755750506040805180820190915260018152600360fc1b602082015290565b8160005b811561389f578061388981614d21565b91506138989050600a83614e7e565b9150613879565b60008167ffffffffffffffff8111156138ba576138ba614583565b6040519080825280601f01601f1916602001820160405280156138e4576020820181803683370190505b508593509050815b8315613951576138fd600a85614fad565b613908906030614cb4565b60f81b8261391583614fc1565b9250828151811061392857613928614c88565b60200101906001600160f81b031916908160001a90535061394a600a85614e7e565b93506138ec565b50949350505050565b6139648888613f0f565b61396e878761405d565b6000878152600660209081526040909120865161398d92880190614394565b5060008781526006602090815260409091206001810186905584516139ba92600290920191860190614394565b50600087815260066020908152604090912060048101849055825161182292600390920191840190614394565b60006139f282611d2c565b9050613a0081600084613e57565b613a0b6000836136b3565b6001600160a01b0381166000908152600360205260408120805460019290613a34908490614ccc565b909155505060008281526002602052604080822080546001600160a01b0319169055518391906001600160a01b038416907fddf252ad1be2c89b69c2b068fc378daa952ba7f163c4a11628f55a4df523b3ef908390a45050565b6000818152600260205260408120546001600160a01b0316613b075760405162461bcd60e51b815260206004820152602c60248201527f4552433732313a206f70657261746f7220717565727920666f72206e6f6e657860448201526b34b9ba32b73a103a37b5b2b760a11b6064820152608401610e75565b6000613b1283611d2c565b9050806001600160a01b0316846001600160a01b03161480613b4d5750836001600160a01b0316613b4284610e00565b6001600160a01b0316145b8061310f57506001600160a01b0380821660009081526005602090815260408083209388168352929052205460ff1661310f565b6000828152601660209081526040808320601f83528184208585529092529091205481548110613bb357613bb3614c88565b6000918252602080832090910182905533825260198152604080832080548452601683528184208054600181810183559186528486200186905590548452601a9092528220805491929091613c09908490614cb4565b9091555050336000908152601960209081526040808320548352601a909152902054613c3790600190614ccc565b33600081815260196020908152604080832080548452601f835281842087855283528184209590955560158252808320838155600101805460ff19169055935460228252848320556029815283822080546001600160a01b031916909317909255601d9091522054601b80549091908110613cb457613cb4614c88565b60009182526020822001555050565b613cce848484613721565b613cda848484846140f7565b612b3b5760405162461bcd60e51b8152600401610e7590614fd8565b6000828152601660209081526040808320601f83528184208585529092529091205481548110613d2857613d28614c88565b6000918252602080832090910182905533825260198152604080832080548452601683528184208054600181810183559186528486200186905590548452601a9092528220805491929091613d7e908490614cb4565b9091555050336000908152601960209081526040808320548352601a909152902054613dac90600190614ccc565b33600081815260196020908152604080832080548452601f8352818420878552835281842095909555818052808320600181018490556003810184905560028101805460ff191690556029835281842080546001600160a01b0319908116909617905583905560238252808320805490941690935592546022845282822055601e909252902054601c80549091908110613cb457613cb4614c88565b6060602a8054610d7d90614c4d565b6001600160a01b038316613eb257613ead81600a80546000838152600b60205260408120829055600182018355919091527fc65a7bb8d6351c1cf70c95a316cc6a92839c986682d98bc35f958f4883f9d2a80155565b613ed5565b816001600160a01b0316836001600160a01b031614613ed557613ed58382614204565b6001600160a01b038216613eec57610fab816142a1565b826001600160a01b0316826001600160a01b031614610fab57610fab8282614350565b6001600160a01b038216613f655760405162461bcd60e51b815260206004820181905260248201527f4552433732313a206d696e7420746f20746865207a65726f20616464726573736044820152606401610e75565b6000818152600260205260409020546001600160a01b031615613fca5760405162461bcd60e51b815260206004820152601c60248201527f4552433732313a20746f6b656e20616c7265616479206d696e746564000000006044820152606401610e75565b613fd660008383613e57565b6001600160a01b0382166000908152600360205260408120805460019290613fff908490614cb4565b909155505060008181526002602052604080822080546001600160a01b0319166001600160a01b03861690811790915590518392907fddf252ad1be2c89b69c2b068fc378daa952ba7f163c4a11628f55a4df523b3ef908290a45050565b6000828152600260205260409020546001600160a01b03166140d85760405162461bcd60e51b815260206004820152602e60248201527f45524337323155524953746f726167653a2055524920736574206f66206e6f6e60448201526d32bc34b9ba32b73a103a37b5b2b760911b6064820152608401610e75565b60008281526007602090815260409091208251610fab92840190614394565b60006001600160a01b0384163b156141f957604051630a85bd0160e11b81526001600160a01b0385169063150b7a029061413b90339089908890889060040161502a565b602060405180830381600087803b15801561415557600080fd5b505af1925050508015614185575060408051601f3d908101601f1916820190925261418291810190615067565b60015b6141df573d8080156141b3576040519150601f19603f3d011682016040523d82523d6000602084013e6141b8565b606091505b5080516141d75760405162461bcd60e51b8152600401610e7590614fd8565b805181602001fd5b6001600160e01b031916630a85bd0160e11b14905061310f565b506001949350505050565b600060016142118461226b565b61421b9190614ccc565b60008381526009602052604090205490915080821461426e576001600160a01b03841660009081526008602090815260408083208584528252808320548484528184208190558352600990915290208190555b5060009182526009602090815260408084208490556001600160a01b039094168352600881528383209183525290812055565b600a546000906142b390600190614ccc565b6000838152600b6020526040812054600a80549394509092849081106142db576142db614c88565b9060005260206000200154905080600a83815481106142fc576142fc614c88565b6000918252602080832090910192909255828152600b9091526040808220849055858252812055600a80548061433457614334615084565b6001900381819060005260206000200160009055905550505050565b600061435b8361226b565b6001600160a01b039093166000908152600860209081526040808320868452825280832085905593825260099052919091209190915550565b8280546143a090614c4d565b90600052602060002090601f0160209004810192826143c25760008555614408565b82601f106143db57805160ff1916838001178555614408565b82800160010185558215614408579182015b828111156144085782518255916020019190600101906143ed565b5061441492915061446f565b5090565b5080546000825590600052602060002090810190614436919061446f565b50565b50805461444590614c4d565b6000825580601f10614455575050565b601f01602090049060005260206000209081019061443691905b5b808211156144145760008155600101614470565b6001600160e01b03198116811461443657600080fd5b6000602082840312156144ac57600080fd5b81356144b781614484565b9392505050565b60005b838110156144d95781810151838201526020016144c1565b83811115612b3b5750506000910152565b600081518084526145028160208601602086016144be565b601f01601f19169290920160200192915050565b6020815260006144b760208301846144ea565b60006020828403121561453b57600080fd5b5035919050565b80356001600160a01b038116811461159e57600080fd5b6000806040838503121561456c57600080fd5b61457583614542565b946020939093013593505050565b634e487b7160e01b600052604160045260246000fd5b600067ffffffffffffffff808411156145b4576145b4614583565b604051601f8501601f19908116603f011681019082821181831017156145dc576145dc614583565b816040528093508581528686860111156145f557600080fd5b858560208301376000602087830101525050509392505050565b600082601f83011261462057600080fd5b6144b783833560208501614599565b60008060008060008060008060006101208a8c03121561464e57600080fd5b8935985061465e60208b01614542565b975060408a013567ffffffffffffffff8082111561467b57600080fd5b6146878d838e0161460f565b985060608c013591508082111561469d57600080fd5b6146a98d838e0161460f565b975060808c01359150808211156146bf57600080fd5b6146cb8d838e0161460f565b965060a08c0135955060c08c01359150808211156146e857600080fd5b506146f58c828d0161460f565b93505060e08a013591506101008a013590509295985092959850929598565b60006101208b835280602084015261472e8184018c6144ea565b90508960408401528281036060840152614748818a6144ea565b905087608084015282810360a084015261476281886144ea565b905082810360c084015261477681876144ea565b60e084019590955250506001600160a01b039190911661010090910152979650505050505050565b6000602082840312156147b057600080fd5b6144b782614542565b600080604083850312156147cc57600080fd5b50508035926020909101359150565b6000806000606084860312156147f057600080fd5b6147f984614542565b925061480760208501614542565b9150604084013590509250925092565b8881526001600160a01b0388166020820152610100604082018190526000906148428382018a6144ea565b9050828103606084015261485681896144ea565b9050828103608084015261486a81886144ea565b905082810360a084015261487e81876144ea565b905082810360c084015261489281866144ea565b9150508260e08301529998505050505050505050565b6000602082840312156148ba57600080fd5b813567ffffffffffffffff8111156148d157600080fd5b61310f8482850161460f565b600081518084526020808501945080840160005b8381101561490d578151875295820195908201906001016148f1565b509495945050505050565b60808152600061492b60808301876148dd565b828103602084015261493d81876148dd565b604084019590955250506060015292915050565b8035801515811461159e57600080fd5b6000806040838503121561497457600080fd5b8235915061498460208401614951565b90509250929050565b6020815260006144b760208301846148dd565b600080600080608085870312156149b657600080fd5b5050823594602084013594506040840135936060013592509050565b600080604083850312156149e557600080fd5b6149ee83614542565b915061498460208401614951565b60008060008060808587031215614a1257600080fd5b614a1b85614542565b9350614a2960208601614542565b925060408501359150606085013567ffffffffffffffff811115614a4c57600080fd5b8501601f81018713614a5d57600080fd5b614a6c87823560208401614599565b91505092959194509250565b600080600080600080600060e0888a031215614a9357600080fd5b87359650614aa360208901614542565b9550604088013567ffffffffffffffff80821115614ac057600080fd5b614acc8b838c0161460f565b965060608a0135915080821115614ae257600080fd5b614aee8b838c0161460f565b955060808a0135915080821115614b0457600080fd5b614b108b838c0161460f565b945060a08a0135935060c08a0135915080821115614b2d57600080fd5b50614b3a8a828b0161460f565b91505092959891949750929550565b60008060008060008060c08789031215614b6257600080fd5b863567ffffffffffffffff80821115614b7a57600080fd5b614b868a838b0161460f565b97506020890135915080821115614b9c57600080fd5b614ba88a838b0161460f565b96506040890135915080821115614bbe57600080fd5b614bca8a838b0161460f565b95506060890135915080821115614be057600080fd5b614bec8a838b0161460f565b94506080890135915080821115614c0257600080fd5b50614c0f89828a0161460f565b92505060a087013590509295509295509295565b60008060408385031215614c3657600080fd5b614c3f83614542565b915061498460208401614542565b600181811c90821680614c6157607f821691505b60208210811415614c8257634e487b7160e01b600052602260045260246000fd5b50919050565b634e487b7160e01b600052603260045260246000fd5b634e487b7160e01b600052601160045260246000fd5b60008219821115614cc757614cc7614c9e565b500190565b600082821015614cde57614cde614c9e565b500390565b60008351614cf58184602088016144be565b6201016960ed1b9083019081528351614d158160038401602088016144be565b01600301949350505050565b6000600019821415614d3557614d35614c9e565b5060010190565b6020808252601190820152702cb7ba9030b932903737ba1037bbb732b960791b604082015260600190565b6020808252600d908201526c1b9bdd0819195d9dd85b1b195d609a1b604082015260600190565b60008251614da08184602087016144be565b9190910192915050565b60208082526031908201527f4552433732313a207472616e736665722063616c6c6572206973206e6f74206f6040820152701ddb995c881b9bdc88185c1c1c9bdd9959607a1b606082015260800190565b6020808252600b908201526a185d58dd1a5bdb88195b9960aa1b604082015260600190565b6020808252600f908201526e6e6674206e6f7420696e2073616c6560881b604082015260600190565b6000816000190483118215151615614e6357614e63614c9e565b500290565b634e487b7160e01b600052601260045260246000fd5b600082614e8d57614e8d614e68565b500490565b6020808252600d908201526c1c99599d5b990819985a5b1959609a1b604082015260600190565b6020808252600f908201526e616c726561647920696e2073616c6560881b604082015260600190565b60008351614ef48184602088016144be565b835190830190614f088183602088016144be565b01949350505050565b600080835481600182811c915080831680614f2d57607f831692505b6020808410821415614f4d57634e487b7160e01b86526022600452602486fd5b818015614f615760018114614f7257614f9f565b60ff19861689528489019650614f9f565b60008a81526020902060005b86811015614f975781548b820152908501908301614f7e565b505084890196505b509498975050505050505050565b600082614fbc57614fbc614e68565b500690565b600081614fd057614fd0614c9e565b506000190190565b60208082526032908201527f4552433732313a207472616e7366657220746f206e6f6e20455243373231526560408201527131b2b4bb32b91034b6b83632b6b2b73a32b960711b606082015260800190565b6001600160a01b038581168252841660208201526040810183905260806060820181905260009061505d908301846144ea565b9695505050505050565b60006020828403121561507957600080fd5b81516144b781614484565b634e487b7160e01b600052603160045260246000fdfea2646970667358221220feef676ad123e661cc845b70734c9f1b3e0c9b49c22b86a4b9fa8bde939738be64736f6c63430008090033",
  "linkReferences": {},
  "deployedLinkReferences": {}
}