{"contracts/ZkSeaNFT.sol":{"ZkSeaNFT":{"abi":[{"inputs":[{"internalType":"string","name":"name_","type":"string"},{"internalType":"string","name":"symbol_","type":"string"},{"internalType":"address","name":"_owner","type":"address"},{"internalType":"address","name":"_devwallet","type":"address"}],"stateMutability":"nonpayable","type":"constructor"},{"anonymous":false,"inputs":[{"indexed":true,"internalType":"address","name":"owner","type":"address"},{"indexed":true,"internalType":"address","name":"approved","type":"address"},{"indexed":true,"internalType":"uint256","name":"tokenId","type":"uint256"}],"name":"Approval","type":"event"},{"anonymous":false,"inputs":[{"indexed":true,"internalType":"address","name":"owner","type":"address"},{"indexed":true,"internalType":"address","name":"operator","type":"address"},{"indexed":false,"internalType":"bool","name":"approved","type":"bool"}],"name":"ApprovalForAll","type":"event"},{"anonymous":false,"inputs":[{"indexed":true,"internalType":"address","name":"from","type":"address"},{"indexed":true,"internalType":"address","name":"to","type":"address"},{"indexed":true,"internalType":"uint256","name":"tokenId","type":"uint256"}],"name":"Transfer","type":"event"},{"inputs":[{"internalType":"address","name":"to","type":"address"},{"internalType":"uint256","name":"tokenId","type":"uint256"}],"name":"approve","outputs":[],"stateMutability":"nonpayable","type":"function"},{"inputs":[{"internalType":"uint256","name":"tokenid","type":"uint256"}],"name":"auctiondetail","outputs":[{"internalType":"uint256","name":"","type":"uint256"},{"internalType":"address","name":"","type":"address"}],"stateMutability":"view","type":"function"},{"inputs":[],"name":"auctionfees","outputs":[{"internalType":"uint256","name":"","type":"uint256"}],"stateMutability":"view","type":"function"},{"inputs":[{"internalType":"uint256","name":"","type":"uint256"}],"name":"auctionnftlist","outputs":[{"internalType":"uint256","name":"","type":"uint256"}],"stateMutability":"view","type":"function"},{"inputs":[{"internalType":"address","name":"owner","type":"address"}],"name":"balanceOf","outputs":[{"internalType":"uint256","name":"","type":"uint256"}],"stateMutability":"view","type":"function"},{"inputs":[],"name":"baseURI","outputs":[{"internalType":"string","name":"","type":"string"}],"stateMutability":"view","type":"function"},{"inputs":[{"internalType":"uint256","name":"_collectionid","type":"uint256"},{"internalType":"uint256","name":"tokenid","type":"uint256"}],"name":"burnorinalnft","outputs":[],"stateMutability":"nonpayable","type":"function"},{"inputs":[{"internalType":"uint256","name":"tokenid","type":"uint256"}],"name":"buyauction","outputs":[],"stateMutability":"payable","type":"function"},{"inputs":[{"internalType":"uint256","name":"_collectionid","type":"uint256"},{"internalType":"uint256","name":"tokenid","type":"uint256"}],"name":"buynft","outputs":[],"stateMutability":"payable","type":"function"},{"inputs":[{"internalType":"uint256","name":"tokenid","type":"uint256"}],"name":"cancelfixedsale","outputs":[],"stateMutability":"nonpayable","type":"function"},{"inputs":[{"internalType":"uint256","name":"fees","type":"uint256"}],"name":"changeauctionreturnamountfees","outputs":[],"stateMutability":"nonpayable","type":"function"},{"inputs":[{"internalType":"uint256","name":"fees","type":"uint256"}],"name":"changecsdogefees","outputs":[],"stateMutability":"nonpayable","type":"function"},{"inputs":[{"internalType":"uint256","name":"collectionid","type":"uint256"},{"internalType":"uint256","name":"tokenid","type":"uint256"}],"name":"claim","outputs":[],"stateMutability":"nonpayable","type":"function"},{"inputs":[{"internalType":"uint256","name":"id","type":"uint256"}],"name":"collectiondetails","outputs":[{"internalType":"uint256","name":"","type":"uint256"},{"internalType":"address","name":"","type":"address"},{"internalType":"string","name":"","type":"string"},{"internalType":"string","name":"","type":"string"},{"internalType":"string","name":"","type":"string"},{"internalType":"string","name":"","type":"string"},{"internalType":"string","name":"","type":"string"},{"internalType":"uint256","name":"","type":"uint256"}],"stateMutability":"view","type":"function"},{"inputs":[],"name":"collectionform","outputs":[{"internalType":"uint256","name":"","type":"uint256"}],"stateMutability":"view","type":"function"},{"inputs":[{"internalType":"uint256","name":"collectionid","type":"uint256"}],"name":"collectionnft","outputs":[{"internalType":"uint256[]","name":"","type":"uint256[]"}],"stateMutability":"view","type":"function"},{"inputs":[{"internalType":"uint256","name":"","type":"uint256"},{"internalType":"uint256","name":"","type":"uint256"}],"name":"collectionstored","outputs":[{"internalType":"uint256","name":"","type":"uint256"}],"stateMutability":"view","type":"function"},{"inputs":[{"internalType":"uint256","name":"collectionid","type":"uint256"},{"internalType":"address","name":"to","type":"address"},{"internalType":"string","name":"_tokenURI","type":"string"},{"internalType":"string","name":"_mintname","type":"string"},{"internalType":"string","name":"_nftowner","type":"string"},{"internalType":"uint256","name":"_copies","type":"uint256"},{"internalType":"string","name":"description","type":"string"}],"name":"create","outputs":[],"stateMutability":"payable","type":"function"},{"inputs":[{"internalType":"uint256","name":"collectionid","type":"uint256"},{"internalType":"address","name":"to","type":"address"},{"internalType":"string","name":"_tokenURI","type":"string"},{"internalType":"string","name":"_mintname","type":"string"},{"internalType":"string","name":"_nftowner","type":"string"},{"internalType":"uint256","name":"_copies","type":"uint256"},{"internalType":"string","name":"description","type":"string"},{"internalType":"uint256","name":"_times","type":"uint256"},{"internalType":"uint256","name":"_price","type":"uint256"}],"name":"createMulti","outputs":[],"stateMutability":"payable","type":"function"},{"inputs":[{"internalType":"string","name":"_Cname","type":"string"},{"internalType":"string","name":"_Dname","type":"string"},{"internalType":"string","name":"_wensiteURL","type":"string"},{"internalType":"string","name":"_description","type":"string"},{"internalType":"string","name":"_imghash","type":"string"},{"internalType":"uint256","name":"_marketfee","type":"uint256"}],"name":"createcollection","outputs":[],"stateMutability":"nonpayable","type":"function"},{"inputs":[{"internalType":"uint256","name":"","type":"uint256"}],"name":"csdogechoice","outputs":[{"internalType":"bool","name":"","type":"bool"}],"stateMutability":"view","type":"function"},{"inputs":[],"name":"csdogefees","outputs":[{"internalType":"uint256","name":"","type":"uint256"}],"stateMutability":"view","type":"function"},{"inputs":[{"internalType":"uint256","name":"_collectionid","type":"uint256"}],"name":"deletecollection","outputs":[],"stateMutability":"nonpayable","type":"function"},{"inputs":[{"internalType":"uint256","name":"tokenid","type":"uint256"},{"internalType":"uint256","name":"price","type":"uint256"}],"name":"fixedsales","outputs":[],"stateMutability":"nonpayable","type":"function"},{"inputs":[{"internalType":"uint256","name":"tokenId","type":"uint256"}],"name":"getApproved","outputs":[{"internalType":"address","name":"","type":"address"}],"stateMutability":"view","type":"function"},{"inputs":[{"internalType":"address","name":"owner","type":"address"},{"internalType":"address","name":"operator","type":"address"}],"name":"isApprovedForAll","outputs":[{"internalType":"bool","name":"","type":"bool"}],"stateMutability":"view","type":"function"},{"inputs":[{"internalType":"uint256","name":"tokenid","type":"uint256"}],"name":"listofsalenft","outputs":[{"internalType":"uint256[]","name":"","type":"uint256[]"},{"internalType":"uint256[]","name":"","type":"uint256[]"},{"internalType":"uint256","name":"","type":"uint256"},{"internalType":"uint256","name":"","type":"uint256"}],"stateMutability":"view","type":"function"},{"inputs":[],"name":"mintfee","outputs":[{"internalType":"uint256","name":"","type":"uint256"}],"stateMutability":"view","type":"function"},{"inputs":[],"name":"name","outputs":[{"internalType":"string","name":"","type":"string"}],"stateMutability":"view","type":"function"},{"inputs":[{"internalType":"uint256","name":"tokenid","type":"uint256"}],"name":"nftauctionend","outputs":[{"internalType":"bool","name":"auctionnftbool","type":"bool"}],"stateMutability":"view","type":"function"},{"inputs":[{"internalType":"uint256","name":"","type":"uint256"}],"name":"nftcollectionid","outputs":[{"internalType":"uint256","name":"","type":"uint256"}],"stateMutability":"view","type":"function"},{"inputs":[{"internalType":"uint256","name":"id","type":"uint256"}],"name":"nftinformation","outputs":[{"internalType":"uint256","name":"","type":"uint256"},{"internalType":"string","name":"","type":"string"},{"internalType":"uint256","name":"","type":"uint256"},{"internalType":"string","name":"","type":"string"},{"internalType":"uint256","name":"","type":"uint256"},{"internalType":"string","name":"","type":"string"},{"internalType":"string","name":"","type":"string"},{"internalType":"uint256","name":"","type":"uint256"},{"internalType":"address","name":"","type":"address"}],"stateMutability":"view","type":"function"},{"inputs":[{"internalType":"uint256","name":"tokenid","type":"uint256"}],"name":"nftstake","outputs":[],"stateMutability":"nonpayable","type":"function"},{"inputs":[{"internalType":"uint256","name":"","type":"uint256"}],"name":"nftstakestate","outputs":[{"internalType":"bool","name":"","type":"bool"}],"stateMutability":"view","type":"function"},{"inputs":[{"internalType":"uint256","name":"tokenid","type":"uint256"}],"name":"nftunstack","outputs":[],"stateMutability":"nonpayable","type":"function"},{"inputs":[{"internalType":"uint256","name":"","type":"uint256"}],"name":"originalowner","outputs":[{"internalType":"address","name":"","type":"address"}],"stateMutability":"view","type":"function"},{"inputs":[{"internalType":"uint256","name":"tokenId","type":"uint256"}],"name":"ownerOf","outputs":[{"internalType":"address","name":"","type":"address"}],"stateMutability":"view","type":"function"},{"inputs":[],"name":"ownernft","outputs":[{"internalType":"address","name":"","type":"address"}],"stateMutability":"view","type":"function"},{"inputs":[{"internalType":"uint256","name":"tokenid","type":"uint256"}],"name":"removesfromauction","outputs":[],"stateMutability":"nonpayable","type":"function"},{"inputs":[{"internalType":"address","name":"from","type":"address"},{"internalType":"address","name":"to","type":"address"},{"internalType":"uint256","name":"tokenId","type":"uint256"}],"name":"safeTransferFrom","outputs":[],"stateMutability":"nonpayable","type":"function"},{"inputs":[{"internalType":"address","name":"from","type":"address"},{"internalType":"address","name":"to","type":"address"},{"internalType":"uint256","name":"tokenId","type":"uint256"},{"internalType":"bytes","name":"_data","type":"bytes"}],"name":"safeTransferFrom","outputs":[],"stateMutability":"nonpayable","type":"function"},{"inputs":[{"internalType":"uint256","name":"","type":"uint256"}],"name":"salenftlist","outputs":[{"internalType":"uint256","name":"","type":"uint256"}],"stateMutability":"view","type":"function"},{"inputs":[{"internalType":"address","name":"operator","type":"address"},{"internalType":"bool","name":"approved","type":"bool"}],"name":"setApprovalForAll","outputs":[],"stateMutability":"nonpayable","type":"function"},{"inputs":[{"internalType":"string","name":"_baseURI","type":"string"}],"name":"setBaseURI","outputs":[],"stateMutability":"nonpayable","type":"function"},{"inputs":[{"internalType":"address","name":"_devWallet","type":"address"}],"name":"setDevWallet","outputs":[],"stateMutability":"nonpayable","type":"function"},{"inputs":[{"internalType":"uint256","name":"_fee","type":"uint256"}],"name":"setMintFeeInWei","outputs":[],"stateMutability":"nonpayable","type":"function"},{"inputs":[{"internalType":"address","name":"_owner","type":"address"}],"name":"setOwnerWallet","outputs":[],"stateMutability":"nonpayable","type":"function"},{"inputs":[{"internalType":"address","name":"_treasury","type":"address"}],"name":"setTreasuryWallet","outputs":[],"stateMutability":"nonpayable","type":"function"},{"inputs":[{"internalType":"address","name":"_address","type":"address"}],"name":"setstackingContract","outputs":[],"stateMutability":"nonpayable","type":"function"},{"inputs":[{"internalType":"uint256","name":"_tokenid","type":"uint256"}],"name":"stakevalue","outputs":[{"internalType":"bool","name":"","type":"bool"}],"stateMutability":"view","type":"function"},{"inputs":[{"internalType":"uint256","name":"tokenid","type":"uint256"},{"internalType":"uint256","name":"price","type":"uint256"},{"internalType":"uint256","name":"endday","type":"uint256"},{"internalType":"uint256","name":"endhours","type":"uint256"}],"name":"startauction","outputs":[],"stateMutability":"nonpayable","type":"function"},{"inputs":[{"internalType":"string","name":"","type":"string"}],"name":"stopduplicate","outputs":[{"internalType":"bool","name":"","type":"bool"}],"stateMutability":"view","type":"function"},{"inputs":[{"internalType":"bytes4","name":"interfaceId","type":"bytes4"}],"name":"supportsInterface","outputs":[{"internalType":"bool","name":"","type":"bool"}],"stateMutability":"view","type":"function"},{"inputs":[],"name":"symbol","outputs":[{"internalType":"string","name":"","type":"string"}],"stateMutability":"view","type":"function"},{"inputs":[{"internalType":"uint256","name":"tokenid","type":"uint256"}],"name":"timing","outputs":[{"internalType":"uint256","name":"","type":"uint256"}],"stateMutability":"view","type":"function"},{"inputs":[{"internalType":"uint256","name":"index","type":"uint256"}],"name":"tokenByIndex","outputs":[{"internalType":"uint256","name":"","type":"uint256"}],"stateMutability":"view","type":"function"},{"inputs":[{"internalType":"address","name":"owner","type":"address"},{"internalType":"uint256","name":"index","type":"uint256"}],"name":"tokenOfOwnerByIndex","outputs":[{"internalType":"uint256","name":"","type":"uint256"}],"stateMutability":"view","type":"function"},{"inputs":[{"internalType":"uint256","name":"tokenId","type":"uint256"}],"name":"tokenURI","outputs":[{"internalType":"string","name":"","type":"string"}],"stateMutability":"view","type":"function"},{"inputs":[],"name":"tokenidmint","outputs":[{"internalType":"uint256","name":"","type":"uint256"}],"stateMutability":"view","type":"function"},{"inputs":[],"name":"totalSupply","outputs":[{"internalType":"uint256","name":"","type":"uint256"}],"stateMutability":"view","type":"function"},{"inputs":[{"internalType":"address","name":"","type":"address"}],"name":"totalcollection","outputs":[{"internalType":"uint256","name":"","type":"uint256"}],"stateMutability":"view","type":"function"},{"inputs":[],"name":"totalcollectiondetails","outputs":[{"internalType":"uint256[]","name":"","type":"uint256[]"}],"stateMutability":"view","type":"function"},{"inputs":[{"internalType":"uint256","name":"","type":"uint256"}],"name":"totalnft","outputs":[{"internalType":"uint256","name":"","type":"uint256"}],"stateMutability":"view","type":"function"},{"inputs":[{"internalType":"address","name":"from","type":"address"},{"internalType":"address","name":"to","type":"address"},{"internalType":"uint256","name":"tokenId","type":"uint256"}],"name":"transferFrom","outputs":[],"stateMutability":"nonpayable","type":"function"},{"inputs":[{"internalType":"uint256","name":"tokenid","type":"uint256"},{"internalType":"bool","name":"choice","type":"bool"}],"name":"upgradeauction","outputs":[],"stateMutability":"payable","type":"function"},{"inputs":[{"internalType":"address","name":"","type":"address"},{"internalType":"uint256","name":"","type":"uint256"}],"name":"userinfo","outputs":[{"internalType":"uint256","name":"","type":"uint256"}],"stateMutability":"view","type":"function"},{"inputs":[{"internalType":"uint256","name":"amount","type":"uint256"}],"name":"withdrawbnb","outputs":[],"stateMutability":"nonpayable","type":"function"},{"stateMutability":"payable","type":"receive"}],"evm":{"bytecode":{"linkReferences":{},"object":"60026010556014601155600060125560c060405260016080819052602f60f81b60a09081526200003391602a9190620000d8565b503480156200004157600080fd5b506040516200541438038062005414833981016040819052620000649162000268565b8351849084906200007d906000906020850190620000d8565b50805162000093906001906020840190620000d8565b5050601380546001600160a01b039485166001600160a01b031991821617909155600c805493909416928116831790935550600d805490921617905550620003349050565b828054620000e690620002f7565b90600052602060002090601f0160209004810192826200010a576000855562000155565b82601f106200012557805160ff191683800117855562000155565b8280016001018555821562000155579182015b828111156200015557825182559160200191906001019062000138565b506200016392915062000167565b5090565b5b8082111562000163576000815560010162000168565b634e487b7160e01b600052604160045260246000fd5b600082601f830112620001a657600080fd5b81516001600160401b0380821115620001c357620001c36200017e565b604051601f8301601f19908116603f01168101908282118183101715620001ee57620001ee6200017e565b816040528381526020925086838588010111156200020b57600080fd5b600091505b838210156200022f578582018301518183018401529082019062000210565b83821115620002415760008385830101525b9695505050505050565b80516001600160a01b03811681146200026357600080fd5b919050565b600080600080608085870312156200027f57600080fd5b84516001600160401b03808211156200029757600080fd5b620002a58883890162000194565b95506020870151915080821115620002bc57600080fd5b50620002cb8782880162000194565b935050620002dc604086016200024b565b9150620002ec606086016200024b565b905092959194509250565b600181811c908216806200030c57607f821691505b602082108114156200032e57634e487b7160e01b600052602260045260246000fd5b50919050565b6150d080620003446000396000f3fe6080604052600436106103e85760003560e01c80636d908f3811610208578063a8602fea11610118578063cf477d6c116100ab578063e985e9c51161007a578063e985e9c514610c52578063ec2d455d14610c9b578063ecad5cf614610cc8578063ef6e944014610d03578063f4c66c1814610d2357600080fd5b8063cf477d6c14610bcf578063d3c5915a14610bef578063e448d59814610c05578063e6629e0a14610c3257600080fd5b8063c001eebe116100e7578063c001eebe14610b5c578063c349026314610b7c578063c87b56dd14610b9c578063cc87103b14610bbc57600080fd5b8063a8602fea14610adc578063b41a4d3d14610afc578063b88d4fde14610b1c578063bb542ef014610b3c57600080fd5b8063930037171161019b5780639e3c63111161016a5780639e3c631114610a265780639f74b06014610a46578063a22cb46514610a5c578063a4bf210814610a7c578063a6c0e24b14610aac57600080fd5b806393003717146109be57806395d89b41146109d1578063967a7a65146109e65780639b3f83d314610a0657600080fd5b806380598bfa116101d757806380598bfa146109485780638397fe2614610968578063855fb05e146109885780638e2aadb51461099e57600080fd5b80636d908f38146108c25780636fb3c03a146108d857806370a082311461090857806370bf164d1461092857600080fd5b80632d5ea4291161030357806355f804b3116102965780636352211e116102655780636352211e1461082857806365a779321461084857806367a3e1d6146108785780636986b4831461088b5780636c0360eb146108ad57600080fd5b806355f804b31461079b5780635a9cbc2b146107bb5780635c368498146107db5780635d91bae9146107fb57600080fd5b806342842e0e116102d257806342842e0e146106fa5780634afb6c791461071a5780634e72cea2146107475780634f6ccce71461077b57600080fd5b80632d5ea429146106895780632f745c59146106a9578063364ca6ed146106c957806341d7f75b146106e757600080fd5b80631d66870d1161037b57806323b872dd1161034a57806323b872dd146105a25780632800b89e146105c257806329bc5825146105f85780632d11e3321461065c57600080fd5b80631d66870d146105175780631f53ac021461054c578063207cc63e1461056c57806320e836001461058c57600080fd5b80630d944bec116103b75780630d944bec146104a55780630f3c920c146104c5578063115f4a55146104d857806318160ddd146104f857600080fd5b806301ffc9a7146103f457806306fdde0314610429578063081812fc1461044b578063095ea7b31461048357600080fd5b366103ef57005b600080fd5b34801561040057600080fd5b5061041461040f36600461449a565b610d43565b60405190151581526020015b60405180910390f35b34801561043557600080fd5b5061043e610d6e565b6040516104209190614516565b34801561045757600080fd5b5061046b610466366004614529565b610e00565b6040516001600160a01b039091168152602001610420565b34801561048f57600080fd5b506104a361049e366004614559565b610e9a565b005b3480156104b157600080fd5b506104a36104c0366004614529565b610fb0565b6104a36104d336600461462f565b61106f565b3480156104e457600080fd5b506104a36104f3366004614529565b6111a6565b34801561050457600080fd5b50600a545b604051908152602001610420565b34801561052357600080fd5b50610537610532366004614529565b6111e8565b60405161042099989796959493929190614714565b34801561055857600080fd5b506104a361056736600461479e565b611405565b34801561057857600080fd5b506104a36105873660046147b9565b611451565b34801561059857600080fd5b50610509600e5481565b3480156105ae57600080fd5b506104a36105bd3660046147db565b61151b565b3480156105ce57600080fd5b5061046b6105dd366004614529565b6029602052600090815260409020546001600160a01b031681565b34801561060457600080fd5b5061063f610613366004614529565b6000908152602080805260408083206003015460239092529091205490916001600160a01b0390911690565b604080519283526001600160a01b03909116602083015201610420565b34801561066857600080fd5b50610509610677366004614529565b601a6020526000908152604090205481565b34801561069557600080fd5b506104146106a4366004614529565b61154c565b3480156106b557600080fd5b506105096106c4366004614559565b6115a3565b3480156106d557600080fd5b506013546001600160a01b031661046b565b6104a36106f53660046147b9565b611639565b34801561070657600080fd5b506104a36107153660046147db565b61182d565b34801561072657600080fd5b50610509610735366004614529565b601e6020526000908152604090205481565b34801561075357600080fd5b50610767610762366004614529565b611848565b604051610420989796959493929190614817565b34801561078757600080fd5b50610509610796366004614529565b611bfc565b3480156107a757600080fd5b506104a36107b63660046148a8565b611c8f565b3480156107c757600080fd5b506105096107d6366004614559565b611ccc565b3480156107e757600080fd5b506104a36107f6366004614529565b611cfd565b34801561080757600080fd5b50610509610816366004614529565b601d6020526000908152604090205481565b34801561083457600080fd5b5061046b610843366004614529565b611d2c565b34801561085457600080fd5b50610868610863366004614529565b611da3565b6040516104209493929190614918565b6104a3610886366004614961565b611e7c565b34801561089757600080fd5b506108a061217d565b604051610420919061498d565b3480156108b957600080fd5b5061043e6121dd565b3480156108ce57600080fd5b5061050960115481565b3480156108e457600080fd5b506104146108f3366004614529565b60286020526000908152604090205460ff1681565b34801561091457600080fd5b5061050961092336600461479e565b61226b565b34801561093457600080fd5b50610509610943366004614529565b6122f2565b34801561095457600080fd5b506104a36109633660046149a0565b612327565b34801561097457600080fd5b506108a0610983366004614529565b6124b2565b34801561099457600080fd5b5061050960105481565b3480156109aa57600080fd5b506104a36109b9366004614529565b612514565b6104a36109cc366004614529565b612543565b3480156109dd57600080fd5b5061043e61270e565b3480156109f257600080fd5b506104a3610a01366004614529565b61271d565b348015610a1257600080fd5b506104a3610a213660046147b9565b6127cb565b348015610a3257600080fd5b506104a3610a41366004614529565b61291f565b348015610a5257600080fd5b50610509600f5481565b348015610a6857600080fd5b506104a3610a773660046149d2565b6129dc565b348015610a8857600080fd5b50610414610a97366004614529565b60256020526000908152604090205460ff1681565b348015610ab857600080fd5b50610414610ac7366004614529565b60009081526028602052604090205460ff1690565b348015610ae857600080fd5b506104a3610af736600461479e565b612aa1565b348015610b0857600080fd5b50610509610b173660046147b9565b612aed565b348015610b2857600080fd5b506104a3610b373660046149fc565b612b09565b348015610b4857600080fd5b506104a3610b5736600461479e565b612b41565b348015610b6857600080fd5b506104a3610b7736600461479e565b612ba9565b348015610b8857600080fd5b506104a3610b973660046147b9565b612bf5565b348015610ba857600080fd5b5061043e610bb7366004614529565b612f9d565b6104a3610bca366004614a78565b613117565b348015610bdb57600080fd5b506104a3610bea366004614529565b61328e565b348015610bfb57600080fd5b5061050960125481565b348015610c1157600080fd5b50610509610c2036600461479e565b60196020526000908152604090205481565b348015610c3e57600080fd5b506104a3610c4d366004614b49565b6132bd565b348015610c5e57600080fd5b50610414610c6d366004614c23565b6001600160a01b03918216600090815260056020908152604080832093909416825291909152205460ff1690565b348015610ca757600080fd5b50610509610cb6366004614529565b60226020526000908152604090205481565b348015610cd457600080fd5b50610414610ce33660046148a8565b805160208183018101805160248252928201919093012091525460ff1681565b348015610d0f57600080fd5b506104a3610d1e366004614529565b61349e565b348015610d2f57600080fd5b506104a3610d3e366004614529565b6135c6565b60006001600160e01b0319821663780e9d6360e01b1480610d685750610d6882613663565b92915050565b606060008054610d7d90614c4d565b80601f0160208091040260200160405190810160405280929190818152602001828054610da990614c4d565b8015610df65780601f10610dcb57610100808354040283529160200191610df6565b820191906000526020600020905b815481529060010190602001808311610dd957829003601f168201915b5050505050905090565b6000818152600260205260408120546001600160a01b0316610e7e5760405162461bcd60e51b815260206004820152602c60248201527f4552433732313a20617070726f76656420717565727920666f72206e6f6e657860448201526b34b9ba32b73a103a37b5b2b760a11b60648201526084015b60405180910390fd5b506000908152600460205260409020546001600160a01b031690565b6000610ea582611d2c565b9050806001600160a01b0316836001600160a01b03161415610f135760405162461bcd60e51b815260206004820152602160248201527f4552433732313a20617070726f76616c20746f2063757272656e74206f776e656044820152603960f91b6064820152608401610e75565b336001600160a01b0382161480610f2f5750610f2f8133610c6d565b610fa15760405162461bcd60e51b815260206004820152603860248201527f4552433732313a20617070726f76652063616c6c6572206973206e6f74206f7760448201527f6e6572206e6f7220617070726f76656420666f7220616c6c00000000000000006064820152608401610e75565b610fab83836136b3565b505050565b6000818152602960205260409020546001600160a01b031633146110165760405162461bcd60e51b815260206004820152601a60248201527f796f7520617265206e6f74206f726967696e616c206f776e65720000000000006044820152606401610e75565b6000818152601560205260408120908155600101805460ff1916905561103d303383613721565b6000818152601d6020526040902054601b8054909190811061106157611061614c88565b600091825260208220015550565b60015b82811161119a576001600e600082825461108c9190614cb4565b909155505060008a8152601660209081526040808320600e5481546001818101845592865284862001558d8452601a909252822080544293906110d0908490614cb4565b909155505060008b8152601a60205260409020546110f090600190614ccc565b60008c8152601f60209081526040808320600e805485529083528184209490945583548352602282528083208f9055835483526029909152902080546001600160a01b0319163317905554611175908b908b8b61114c83613851565b60405160200161115d929190614ce3565b604051602081830303815290604052858c8c8c61395a565b821561118757611187600e54846127cb565b508061119281614d21565b915050611072565b50505050505050505050565b6014546001600160a01b031633146111d05760405162461bcd60e51b8152600401610e7590614d3c565b6000908152602860205260409020805460ff19169055565b60008181526006602052604081206001810154600482015460609284928492849284928392859283928c928392919060028301906003840161122986612f9d565b60008881526022602052604090205461124189611d2c565b87805461124d90614c4d565b80601f016020809104026020016040519081016040528092919081815260200182805461127990614c4d565b80156112c65780601f1061129b576101008083540402835291602001916112c6565b820191906000526020600020905b8154815290600101906020018083116112a957829003601f168201915b505050505097508580546112d990614c4d565b80601f016020809104026020016040519081016040528092919081815260200182805461130590614c4d565b80156113525780601f1061132757610100808354040283529160200191611352565b820191906000526020600020905b81548152906001019060200180831161133557829003601f168201915b5050505050955083805461136590614c4d565b80601f016020809104026020016040519081016040528092919081815260200182805461139190614c4d565b80156113de5780601f106113b3576101008083540402835291602001916113de565b820191906000526020600020905b8154815290600101906020018083116113c157829003601f168201915b50505050509350995099509950995099509950995099509950509193959799909294969850565b600c546001600160a01b0316331461142f5760405162461bcd60e51b8152600401610e7590614d67565b600c80546001600160a01b0319166001600160a01b0392909216919091179055565b600c546001600160a01b0316331461147b5760405162461bcd60e51b8152600401610e7590614d67565b6000828152601660209081526040808320601f835281842085855290925290912054815481106114ad576114ad614c88565b60009182526020808320909101829055828252602990526040812080546001600160a01b031916905560246114e183612f9d565b6040516114ee9190614d8e565b908152604051908190036020019020805491151560ff19909216919091179055611517816139e7565b5050565b6115253382613a8e565b6115415760405162461bcd60e51b8152600401610e7590614daa565b610fab838383613721565b60008181526020805260408120544210156115795760405162461bcd60e51b8152600401610e7590614dfb565b6000828152602360205260409020546001600160a01b03161561159e57506001919050565b919050565b60006115ae8361226b565b82106116105760405162461bcd60e51b815260206004820152602b60248201527f455243373231456e756d657261626c653a206f776e657220696e646578206f7560448201526a74206f6620626f756e647360a81b6064820152608401610e75565b506001600160a01b03919091166000908152600860209081526040808320938352929052205490565b60008181526015602052604090206001015460ff1661166a5760405162461bcd60e51b8152600401610e7590614e20565b6000601054606461167b9190614ccc565b60008381526015602052604090205490915034908110156116de5760405162461bcd60e51b815260206004820152601760248201527f70726963652073686f756c6420626520677265617465720000000000000000006044820152606401610e75565b600060646116ec8484614e49565b6116f69190614e7e565b905060006117048284614ccc565b6000868152602960205260408082205490519293506001600160a01b031691829085908381818185875af1925050503d806000811461175f576040519150601f19603f3d011682016040523d82523d6000602084013e611764565b606091505b50509050806117855760405162461bcd60e51b8152600401610e7590614e92565b600d546040516000916001600160a01b03169085908381818185875af1925050503d80600081146117d2576040519150601f19603f3d011682016040523d82523d6000602084013e6117d7565b606091505b50509050806117f85760405162461bcd60e51b8152600401610e7590614e92565b61180330338a613721565b6000888152600660205260409020426001909101556118228989613b81565b505050505050505050565b610fab83838360405180602001604052806000815250612b09565b6000806060806060806060600080601760008b8152602001908152602001600020600101805461187790614c4d565b80601f01602080910402602001604051908101604052809291908181526020018280546118a390614c4d565b80156118f05780601f106118c5576101008083540402835291602001916118f0565b820191906000526020600020905b8154815290600101906020018083116118d357829003601f168201915b505050505090506000601760008c8152602001908152602001600020600201805461191a90614c4d565b80601f016020809104026020016040519081016040528092919081815260200182805461194690614c4d565b80156119935780601f1061196857610100808354040283529160200191611993565b820191906000526020600020905b81548152906001019060200180831161197657829003601f168201915b505050505090506000601760008d815260200190815260200160002060030180546119bd90614c4d565b80601f01602080910402602001604051908101604052809291908181526020018280546119e990614c4d565b8015611a365780601f10611a0b57610100808354040283529160200191611a36565b820191906000526020600020905b815481529060010190602001808311611a1957829003601f168201915b505050505090506000601760008e81526020019081526020016000206004018054611a6090614c4d565b80601f0160208091040260200160405190810160405280929190818152602001828054611a8c90614c4d565b8015611ad95780601f10611aae57610100808354040283529160200191611ad9565b820191906000526020600020905b815481529060010190602001808311611abc57829003601f168201915b505050505090506000601760008f81526020019081526020016000206005018054611b0390614c4d565b80601f0160208091040260200160405190810160405280929190818152602001828054611b2f90614c4d565b8015611b7c5780601f10611b5157610100808354040283529160200191611b7c565b820191906000526020600020905b815481529060010190602001808311611b5f57829003601f168201915b5050505050905060008e905060006017600083815260200190815260200160002060060154905060006017600084815260200190815260200160002060000160009054906101000a90046001600160a01b0316905082818989898989889f509f509f509f509f509f509f509f505050505050505050919395975091939597565b6000611c07600a5490565b8210611c6a5760405162461bcd60e51b815260206004820152602c60248201527f455243373231456e756d657261626c653a20676c6f62616c20696e646578206f60448201526b7574206f6620626f756e647360a01b6064820152608401610e75565b600a8281548110611c7d57611c7d614c88565b90600052602060002001549050919050565b600c546001600160a01b03163314611cb95760405162461bcd60e51b8152600401610e7590614d67565b805161151790602a906020840190614394565b60186020528160005260406000208181548110611ce857600080fd5b90600052602060002001600091509150505481565b600c546001600160a01b03163314611d275760405162461bcd60e51b8152600401610e7590614d67565b601255565b6000818152600260205260408120546001600160a01b031680610d685760405162461bcd60e51b815260206004820152602960248201527f4552433732313a206f776e657220717565727920666f72206e6f6e657869737460448201526832b73a103a37b5b2b760b91b6064820152608401610e75565b600081815260208080526040808320600101546015835281842054601b80548451818702810187019095528085526060968796909586959394601c94939092869190830182828015611e1457602002820191906000526020600020905b815481526020019060010190808311611e00575b5050505050935082805480602002602001604051908101604052809291908181526020018280548015611e6657602002820191906000526020600020905b815481526020019060010190808311611e52575b5050505050925093509350935093509193509193565b6000828152602080526040902054421115611ea95760405162461bcd60e51b8152600401610e7590614dfb565b60006011546064611eba9190614ccc565b90508115611fb757600083815260216020908152604080832033845290915281208054349290611eeb908490614cb4565b90915550506000838152602080805260408083206003015460218352818420338552909252909120541115610fab57600083815260208080526040808320346003909101819055602390925280832080546001600160a01b0319163317905551909190309083908381818185875af1925050503d8060008114611f8a576040519150601f19603f3d011682016040523d82523d6000602084013e611f8f565b606091505b5050905080611fb05760405162461bcd60e51b8152600401610e7590614e92565b5050505050565b6000838152602360205260409020546001600160a01b03163314610fab57600083815260216020908152604080832033845290915290205461202c5760405162461bcd60e51b815260206004820152600e60248201526d596f7520646f6e7420616c6c6f7760901b6044820152606401610e75565b60008381526021602090815260408083203384529091528120549060646120538484614e49565b61205d9190614e7e565b905060006064601154846120719190614e49565b61207b9190614e7e565b604051909150600090339084908381818185875af1925050503d80600081146120c0576040519150601f19603f3d011682016040523d82523d6000602084013e6120c5565b606091505b50509050806120e65760405162461bcd60e51b8152600401610e7590614e92565b600d546040516000916001600160a01b03169084908381818185875af1925050503d8060008114612133576040519150601f19603f3d011682016040523d82523d6000602084013e612138565b606091505b50509050806121595760405162461bcd60e51b8152600401610e7590614e92565b50505060008581526021602090815260408083203384529091528120555050505050565b33600090815260186020908152604091829020805483518184028101840190945280845260609392830182828015610df657602002820191906000526020600020905b8154815260200190600101908083116121c0575050505050905090565b602a80546121ea90614c4d565b80601f016020809104026020016040519081016040528092919081815260200182805461221690614c4d565b80156122635780601f1061223857610100808354040283529160200191612263565b820191906000526020600020905b81548152906001019060200180831161224657829003601f168201915b505050505081565b60006001600160a01b0382166122d65760405162461bcd60e51b815260206004820152602a60248201527f4552433732313a2062616c616e636520717565727920666f7220746865207a65604482015269726f206164647265737360b01b6064820152608401610e75565b506001600160a01b031660009081526003602052604090205490565b6000818152602080526040812054421161231f576000828152602080526040902054610d68904290614ccc565b506000919050565b60008481526028602052604090205460ff16156123755760405162461bcd60e51b815260206004820152600c60248201526b6e6674206973207374616b6560a01b6044820152606401610e75565b600084815260208052604090206002015460ff16156123a65760405162461bcd60e51b8152600401610e7590614eb9565b60008481526015602052604090206001015460ff16156123d85760405162461bcd60e51b8152600401610e7590614eb9565b336123e285611d2c565b6001600160a01b0316146124085760405162461bcd60e51b8152600401610e7590614d3c565b612414610e1082614e49565b6124216201518084614e49565b61242b9042614cb4565b6124359190614cb4565b60008581526020808052604080832093845560018085018890556002909401805460ff191685179055601c8054601e90935290832082905592810183559181527f0e4562a10381dec21b205ed72637e6b1b523bdd0e4d4d50af5cd23dd4500a2119091018590556124a585611d2c565b9050611fb081308761151b565b60008181526016602090815260409182902080548351818402810184019094528084526060939283018282801561250857602002820191906000526020600020905b8154815260200190600101908083116124f4575b50505050509050919050565b600c546001600160a01b0316331461253e5760405162461bcd60e51b8152600401610e7590614d67565b601155565b600081815260208052604090206002015460ff166125735760405162461bcd60e51b8152600401610e7590614e20565b60008181526020805260409020600101543410156125d35760405162461bcd60e51b815260206004820152601860248201527f616d6f756e742073686f756c64206265206772656174657200000000000000006044820152606401610e75565b600081815260208052604090206003015434116126325760405162461bcd60e51b815260206004820152601760248201527f70726576696f75732062696464696e6720616d6f756e740000000000000000006044820152606401610e75565b600081815260208052604090205442111561265f5760405162461bcd60e51b8152600401610e7590614dfb565b6000818152602080805260408083203460039091018190556021835281842033808652908452828520829055858552602390935281842080546001600160a01b03191690931790925551909190309083908381818185875af1925050503d80600081146126e8576040519150601f19603f3d011682016040523d82523d6000602084013e6126ed565b606091505b5050905080610fab5760405162461bcd60e51b8152600401610e7590614e92565b606060018054610d7d90614c4d565b600081815260208052604090206002015460ff161561274e5760405162461bcd60e51b8152600401610e7590614eb9565b60008181526015602052604090206001015460ff16156127805760405162461bcd60e51b8152600401610e7590614eb9565b3361278a82611d2c565b6001600160a01b0316146127b05760405162461bcd60e51b8152600401610e7590614d3c565b6000908152602860205260409020805460ff19166001179055565b60008281526028602052604090205460ff16156128195760405162461bcd60e51b815260206004820152600c60248201526b6e6674206973207374616b6560a01b6044820152606401610e75565b600082815260208052604090206002015460ff161561284a5760405162461bcd60e51b8152600401610e7590614eb9565b60008281526015602052604090206001015460ff161561287c5760405162461bcd60e51b8152600401610e7590614eb9565b3361288683611d2c565b6001600160a01b0316146128ac5760405162461bcd60e51b8152600401610e7590614d3c565b60008281526015602090815260408083208481556001908101805460ff191682179055601b8054601d9094529184208390558201815582527f3ad8aa4f87544323a9d1e5dd902f40c356527a7955687113db5f9a85ad579dc10183905561291283611d2c565b9050610fab81308561151b565b6000818152602960205260409020546001600160a01b031633146129855760405162461bcd60e51b815260206004820152601960248201527f596f7520617265206e6f74206f726967696e616c6f776e6572000000000000006044820152606401610e75565b60008181526020805260408120600181018290556003810182905560028101805460ff19169055556129b8303383613721565b6000818152601e6020526040902054601c8054909190811061106157611061614c88565b6001600160a01b038216331415612a355760405162461bcd60e51b815260206004820152601960248201527f4552433732313a20617070726f766520746f2063616c6c6572000000000000006044820152606401610e75565b3360008181526005602090815260408083206001600160a01b03871680855290835292819020805460ff191686151590811790915590519081529192917f17307eab39ab6107e8899845ad3d59bd9653f200f220920489ca2b5937696c31910160405180910390a35050565b600c546001600160a01b03163314612acb5760405162461bcd60e51b8152600401610e7590614d67565b600d80546001600160a01b0319166001600160a01b0392909216919091179055565b60166020528160005260406000208181548110611ce857600080fd5b612b133383613a8e565b612b2f5760405162461bcd60e51b8152600401610e7590614daa565b612b3b84848484613cc3565b50505050565b6013546001600160a01b03163314612b875760405162461bcd60e51b81526020600482015260096024820152683737ba1037bbb732b960b91b6044820152606401610e75565b601380546001600160a01b0319166001600160a01b0392909216919091179055565b600c546001600160a01b03163314612bd35760405162461bcd60e51b8152600401610e7590614d67565b601480546001600160a01b0319166001600160a01b0392909216919091179055565b600081815260208052604090206002015460ff16612c255760405162461bcd60e51b8152600401610e7590614e20565b60008181526020805260409020544211612c735760405162461bcd60e51b815260206004820152600f60248201526e185d58dd1a5bdb881b9bdd08195b99608a1b6044820152606401610e75565b60006010546064612c849190614ccc565b6000838152602360205260409020549091506001600160a01b0316331415612df5576000828152602080526040812060030154906064612cc48484614e49565b612cce9190614e7e565b90506000606460105484612ce29190614e49565b612cec9190614e7e565b6000868152602960205260408082205490519293506001600160a01b031691829085908381818185875af1925050503d8060008114612d47576040519150601f19603f3d011682016040523d82523d6000602084013e612d4c565b606091505b5050905080612d6d5760405162461bcd60e51b8152600401610e7590614e92565b600d546040516000916001600160a01b03169085908381818185875af1925050503d8060008114612dba576040519150601f19603f3d011682016040523d82523d6000602084013e612dbf565b606091505b5050905080612de05760405162461bcd60e51b8152600401610e7590614e92565b612deb30338a613721565b6118228989613cf6565b6000828152602160209081526040808320338452909152902054612e4c5760405162461bcd60e51b815260206004820152600e60248201526d596f7520646f6e7420616c6c6f7760901b6044820152606401610e75565b6000828152602160209081526040808320338452909152812054906064612e738484614e49565b612e7d9190614e7e565b90506000606460115484612e919190614e49565b612e9b9190614e7e565b604051909150600090339084908381818185875af1925050503d8060008114612ee0576040519150601f19603f3d011682016040523d82523d6000602084013e612ee5565b606091505b5050905080612f065760405162461bcd60e51b8152600401610e7590614e92565b600d546040516000916001600160a01b03169084908381818185875af1925050503d8060008114612f53576040519150601f19603f3d011682016040523d82523d6000602084013e612f58565b606091505b5050905080612f795760405162461bcd60e51b8152600401610e7590614e92565b50505060008481526021602090815260408083203384529091528120555050505050565b6000818152600260205260409020546060906001600160a01b031661301e5760405162461bcd60e51b815260206004820152603160248201527f45524337323155524953746f726167653a2055524920717565727920666f72206044820152703737b732bc34b9ba32b73a103a37b5b2b760791b6064820152608401610e75565b6000828152600760205260408120805461303790614c4d565b80601f016020809104026020016040519081016040528092919081815260200182805461306390614c4d565b80156130b05780601f10613085576101008083540402835291602001916130b0565b820191906000526020600020905b81548152906001019060200180831161309357829003601f168201915b5050505050905060006130c1613e48565b90508051600014156130d4575092915050565b8151156131065780826040516020016130ee929190614ee2565b60405160208183030381529060405292505050919050565b61310f84612f9d565b949350505050565b6024856040516131279190614d8e565b9081526040519081900360200190205460ff161561317f5760405162461bcd60e51b8152602060048201526015602482015274151bdad95b88155492481b9bdd08185b1b1bddd959605a1b6044820152606401610e75565b6001600e60008282546131929190614cb4565b90915550506000878152601660209081526040808320600e5481546001818101845592865284862001558a8452601a909252822080544293906131d6908490614cb4565b90915550506000888152601a60205260409020546131f690600190614ccc565b6000898152601f60209081526040808320600e805485529083528184209490945583548352602282528083208c9055835483526029909152902080546001600160a01b031916331790555461325290889088888589898961395a565b60016024876040516132649190614d8e565b908152604051908190036020019020805491151560ff199092169190911790555050505050505050565b600c546001600160a01b031633146132b85760405162461bcd60e51b8152600401610e7590614d67565b601055565b6024826040516132cd9190614d8e565b9081526040519081900360200190205460ff16156133215760405162461bcd60e51b81526020600482015260116024820152701d985b1d59481b9bdd08185b1b1bddd959607a1b6044820152606401610e75565b6001600f60008282546133349190614cb4565b9091555050600f8054600090815260176020908152604080832080546001600160a01b0319163317905592548252919020875161337a9260019290920191890190614394565b50600f54600090815260176020908152604090912086516133a392600290920191880190614394565b50600f54600090815260176020908152604090912085516133cc92600390920191870190614394565b50600f54600090815260176020908152604090912084516133f592600490920191860190614394565b50600f546000908152601760209081526040909120835161341e92600590920191850190614394565b50600f8054600090815260176020908152604080832060060185905533808452601883528184208554815460018181018455928752858720015594549084526019909252918290205551602490613476908590614d8e565b908152604051908190036020019020805491151560ff19909216919091179055505050505050565b600c546001600160a01b031633146134c85760405162461bcd60e51b8152600401610e7590614d67565b6000818152601760209081526040808320546001600160a01b03168352601890915281206134f591614418565b600081815260176020818152604080842080546001600160a01b0316855260198352818520859055858552929091525160249161353791600590910190614f11565b9081526040805160209281900383019020805460ff1916931515939093179092556000838152601790915290812080546001600160a01b0319168155906135816001830182614439565b61358f600283016000614439565b61359d600383016000614439565b6135ab600483016000614439565b6135b9600583016000614439565b6006820160009055505050565b600c546001600160a01b031633146135f05760405162461bcd60e51b8152600401610e7590614d67565b600c546040516000916001600160a01b03169083908381818185875af1925050503d806000811461363d576040519150601f19603f3d011682016040523d82523d6000602084013e613642565b606091505b50509050806115175760405162461bcd60e51b8152600401610e7590614e92565b60006001600160e01b031982166380ac58cd60e01b148061369457506001600160e01b03198216635b5e139f60e01b145b80610d6857506301ffc9a760e01b6001600160e01b0319831614610d68565b600081815260046020526040902080546001600160a01b0319166001600160a01b03841690811790915581906136e882611d2c565b6001600160a01b03167f8c5be1e5ebec7d5bd14f71427d1e84f3dd0314c0f7b2291e5b200ac8c7c3b92560405160405180910390a45050565b6001600160a01b0382166137835760405162461bcd60e51b8152602060048201526024808201527f4552433732313a207472616e7366657220746f20746865207a65726f206164646044820152637265737360e01b6064820152608401610e75565b61378e838383613e57565b6137996000826136b3565b6001600160a01b03831660009081526003602052604081208054600192906137c2908490614ccc565b90915550506001600160a01b03821660009081526003602052604081208054600192906137f0908490614cb4565b909155505060008181526002602052604080822080546001600160a01b0319166001600160a01b0386811691821790925591518493918716917fddf252ad1be2c89b69c2b068fc378daa952ba7f163c4a11628f55a4df523b3ef91a4505050565b6060816138755750506040805180820190915260018152600360fc1b602082015290565b8160005b811561389f578061388981614d21565b91506138989050600a83614e7e565b9150613879565b60008167ffffffffffffffff8111156138ba576138ba614583565b6040519080825280601f01601f1916602001820160405280156138e4576020820181803683370190505b508593509050815b8315613951576138fd600a85614fad565b613908906030614cb4565b60f81b8261391583614fc1565b9250828151811061392857613928614c88565b60200101906001600160f81b031916908160001a90535061394a600a85614e7e565b93506138ec565b50949350505050565b6139648888613f0f565b61396e878761405d565b6000878152600660209081526040909120865161398d92880190614394565b5060008781526006602090815260409091206001810186905584516139ba92600290920191860190614394565b50600087815260066020908152604090912060048101849055825161182292600390920191840190614394565b60006139f282611d2c565b9050613a0081600084613e57565b613a0b6000836136b3565b6001600160a01b0381166000908152600360205260408120805460019290613a34908490614ccc565b909155505060008281526002602052604080822080546001600160a01b0319169055518391906001600160a01b038416907fddf252ad1be2c89b69c2b068fc378daa952ba7f163c4a11628f55a4df523b3ef908390a45050565b6000818152600260205260408120546001600160a01b0316613b075760405162461bcd60e51b815260206004820152602c60248201527f4552433732313a206f70657261746f7220717565727920666f72206e6f6e657860448201526b34b9ba32b73a103a37b5b2b760a11b6064820152608401610e75565b6000613b1283611d2c565b9050806001600160a01b0316846001600160a01b03161480613b4d5750836001600160a01b0316613b4284610e00565b6001600160a01b0316145b8061310f57506001600160a01b0380821660009081526005602090815260408083209388168352929052205460ff1661310f565b6000828152601660209081526040808320601f83528184208585529092529091205481548110613bb357613bb3614c88565b6000918252602080832090910182905533825260198152604080832080548452601683528184208054600181810183559186528486200186905590548452601a9092528220805491929091613c09908490614cb4565b9091555050336000908152601960209081526040808320548352601a909152902054613c3790600190614ccc565b33600081815260196020908152604080832080548452601f835281842087855283528184209590955560158252808320838155600101805460ff19169055935460228252848320556029815283822080546001600160a01b031916909317909255601d9091522054601b80549091908110613cb457613cb4614c88565b60009182526020822001555050565b613cce848484613721565b613cda848484846140f7565b612b3b5760405162461bcd60e51b8152600401610e7590614fd8565b6000828152601660209081526040808320601f83528184208585529092529091205481548110613d2857613d28614c88565b6000918252602080832090910182905533825260198152604080832080548452601683528184208054600181810183559186528486200186905590548452601a9092528220805491929091613d7e908490614cb4565b9091555050336000908152601960209081526040808320548352601a909152902054613dac90600190614ccc565b33600081815260196020908152604080832080548452601f8352818420878552835281842095909555818052808320600181018490556003810184905560028101805460ff191690556029835281842080546001600160a01b0319908116909617905583905560238252808320805490941690935592546022845282822055601e909252902054601c80549091908110613cb457613cb4614c88565b6060602a8054610d7d90614c4d565b6001600160a01b038316613eb257613ead81600a80546000838152600b60205260408120829055600182018355919091527fc65a7bb8d6351c1cf70c95a316cc6a92839c986682d98bc35f958f4883f9d2a80155565b613ed5565b816001600160a01b0316836001600160a01b031614613ed557613ed58382614204565b6001600160a01b038216613eec57610fab816142a1565b826001600160a01b0316826001600160a01b031614610fab57610fab8282614350565b6001600160a01b038216613f655760405162461bcd60e51b815260206004820181905260248201527f4552433732313a206d696e7420746f20746865207a65726f20616464726573736044820152606401610e75565b6000818152600260205260409020546001600160a01b031615613fca5760405162461bcd60e51b815260206004820152601c60248201527f4552433732313a20746f6b656e20616c7265616479206d696e746564000000006044820152606401610e75565b613fd660008383613e57565b6001600160a01b0382166000908152600360205260408120805460019290613fff908490614cb4565b909155505060008181526002602052604080822080546001600160a01b0319166001600160a01b03861690811790915590518392907fddf252ad1be2c89b69c2b068fc378daa952ba7f163c4a11628f55a4df523b3ef908290a45050565b6000828152600260205260409020546001600160a01b03166140d85760405162461bcd60e51b815260206004820152602e60248201527f45524337323155524953746f726167653a2055524920736574206f66206e6f6e60448201526d32bc34b9ba32b73a103a37b5b2b760911b6064820152608401610e75565b60008281526007602090815260409091208251610fab92840190614394565b60006001600160a01b0384163b156141f957604051630a85bd0160e11b81526001600160a01b0385169063150b7a029061413b90339089908890889060040161502a565b602060405180830381600087803b15801561415557600080fd5b505af1925050508015614185575060408051601f3d908101601f1916820190925261418291810190615067565b60015b6141df573d8080156141b3576040519150601f19603f3d011682016040523d82523d6000602084013e6141b8565b606091505b5080516141d75760405162461bcd60e51b8152600401610e7590614fd8565b805181602001fd5b6001600160e01b031916630a85bd0160e11b14905061310f565b506001949350505050565b600060016142118461226b565b61421b9190614ccc565b60008381526009602052604090205490915080821461426e576001600160a01b03841660009081526008602090815260408083208584528252808320548484528184208190558352600990915290208190555b5060009182526009602090815260408084208490556001600160a01b039094168352600881528383209183525290812055565b600a546000906142b390600190614ccc565b6000838152600b6020526040812054600a80549394509092849081106142db576142db614c88565b9060005260206000200154905080600a83815481106142fc576142fc614c88565b6000918252602080832090910192909255828152600b9091526040808220849055858252812055600a80548061433457614334615084565b6001900381819060005260206000200160009055905550505050565b600061435b8361226b565b6001600160a01b039093166000908152600860209081526040808320868452825280832085905593825260099052919091209190915550565b8280546143a090614c4d565b90600052602060002090601f0160209004810192826143c25760008555614408565b82601f106143db57805160ff1916838001178555614408565b82800160010185558215614408579182015b828111156144085782518255916020019190600101906143ed565b5061441492915061446f565b5090565b5080546000825590600052602060002090810190614436919061446f565b50565b50805461444590614c4d565b6000825580601f10614455575050565b601f01602090049060005260206000209081019061443691905b5b808211156144145760008155600101614470565b6001600160e01b03198116811461443657600080fd5b6000602082840312156144ac57600080fd5b81356144b781614484565b9392505050565b60005b838110156144d95781810151838201526020016144c1565b83811115612b3b5750506000910152565b600081518084526145028160208601602086016144be565b601f01601f19169290920160200192915050565b6020815260006144b760208301846144ea565b60006020828403121561453b57600080fd5b5035919050565b80356001600160a01b038116811461159e57600080fd5b6000806040838503121561456c57600080fd5b61457583614542565b946020939093013593505050565b634e487b7160e01b600052604160045260246000fd5b600067ffffffffffffffff808411156145b4576145b4614583565b604051601f8501601f19908116603f011681019082821181831017156145dc576145dc614583565b816040528093508581528686860111156145f557600080fd5b858560208301376000602087830101525050509392505050565b600082601f83011261462057600080fd5b6144b783833560208501614599565b60008060008060008060008060006101208a8c03121561464e57600080fd5b8935985061465e60208b01614542565b975060408a013567ffffffffffffffff8082111561467b57600080fd5b6146878d838e0161460f565b985060608c013591508082111561469d57600080fd5b6146a98d838e0161460f565b975060808c01359150808211156146bf57600080fd5b6146cb8d838e0161460f565b965060a08c0135955060c08c01359150808211156146e857600080fd5b506146f58c828d0161460f565b93505060e08a013591506101008a013590509295985092959850929598565b60006101208b835280602084015261472e8184018c6144ea565b90508960408401528281036060840152614748818a6144ea565b905087608084015282810360a084015261476281886144ea565b905082810360c084015261477681876144ea565b60e084019590955250506001600160a01b039190911661010090910152979650505050505050565b6000602082840312156147b057600080fd5b6144b782614542565b600080604083850312156147cc57600080fd5b50508035926020909101359150565b6000806000606084860312156147f057600080fd5b6147f984614542565b925061480760208501614542565b9150604084013590509250925092565b8881526001600160a01b0388166020820152610100604082018190526000906148428382018a6144ea565b9050828103606084015261485681896144ea565b9050828103608084015261486a81886144ea565b905082810360a084015261487e81876144ea565b905082810360c084015261489281866144ea565b9150508260e08301529998505050505050505050565b6000602082840312156148ba57600080fd5b813567ffffffffffffffff8111156148d157600080fd5b61310f8482850161460f565b600081518084526020808501945080840160005b8381101561490d578151875295820195908201906001016148f1565b509495945050505050565b60808152600061492b60808301876148dd565b828103602084015261493d81876148dd565b604084019590955250506060015292915050565b8035801515811461159e57600080fd5b6000806040838503121561497457600080fd5b8235915061498460208401614951565b90509250929050565b6020815260006144b760208301846148dd565b600080600080608085870312156149b657600080fd5b5050823594602084013594506040840135936060013592509050565b600080604083850312156149e557600080fd5b6149ee83614542565b915061498460208401614951565b60008060008060808587031215614a1257600080fd5b614a1b85614542565b9350614a2960208601614542565b925060408501359150606085013567ffffffffffffffff811115614a4c57600080fd5b8501601f81018713614a5d57600080fd5b614a6c87823560208401614599565b91505092959194509250565b600080600080600080600060e0888a031215614a9357600080fd5b87359650614aa360208901614542565b9550604088013567ffffffffffffffff80821115614ac057600080fd5b614acc8b838c0161460f565b965060608a0135915080821115614ae257600080fd5b614aee8b838c0161460f565b955060808a0135915080821115614b0457600080fd5b614b108b838c0161460f565b945060a08a0135935060c08a0135915080821115614b2d57600080fd5b50614b3a8a828b0161460f565b91505092959891949750929550565b60008060008060008060c08789031215614b6257600080fd5b863567ffffffffffffffff80821115614b7a57600080fd5b614b868a838b0161460f565b97506020890135915080821115614b9c57600080fd5b614ba88a838b0161460f565b96506040890135915080821115614bbe57600080fd5b614bca8a838b0161460f565b95506060890135915080821115614be057600080fd5b614bec8a838b0161460f565b94506080890135915080821115614c0257600080fd5b50614c0f89828a0161460f565b92505060a087013590509295509295509295565b60008060408385031215614c3657600080fd5b614c3f83614542565b915061498460208401614542565b600181811c90821680614c6157607f821691505b60208210811415614c8257634e487b7160e01b600052602260045260246000fd5b50919050565b634e487b7160e01b600052603260045260246000fd5b634e487b7160e01b600052601160045260246000fd5b60008219821115614cc757614cc7614c9e565b500190565b600082821015614cde57614cde614c9e565b500390565b60008351614cf58184602088016144be565b6201016960ed1b9083019081528351614d158160038401602088016144be565b01600301949350505050565b6000600019821415614d3557614d35614c9e565b5060010190565b6020808252601190820152702cb7ba9030b932903737ba1037bbb732b960791b604082015260600190565b6020808252600d908201526c1b9bdd0819195d9dd85b1b195d609a1b604082015260600190565b60008251614da08184602087016144be565b9190910192915050565b60208082526031908201527f4552433732313a207472616e736665722063616c6c6572206973206e6f74206f6040820152701ddb995c881b9bdc88185c1c1c9bdd9959607a1b606082015260800190565b6020808252600b908201526a185d58dd1a5bdb88195b9960aa1b604082015260600190565b6020808252600f908201526e6e6674206e6f7420696e2073616c6560881b604082015260600190565b6000816000190483118215151615614e6357614e63614c9e565b500290565b634e487b7160e01b600052601260045260246000fd5b600082614e8d57614e8d614e68565b500490565b6020808252600d908201526c1c99599d5b990819985a5b1959609a1b604082015260600190565b6020808252600f908201526e616c726561647920696e2073616c6560881b604082015260600190565b60008351614ef48184602088016144be565b835190830190614f088183602088016144be565b01949350505050565b600080835481600182811c915080831680614f2d57607f831692505b6020808410821415614f4d57634e487b7160e01b86526022600452602486fd5b818015614f615760018114614f7257614f9f565b60ff19861689528489019650614f9f565b60008a81526020902060005b86811015614f975781548b820152908501908301614f7e565b505084890196505b509498975050505050505050565b600082614fbc57614fbc614e68565b500690565b600081614fd057614fd0614c9e565b506000190190565b60208082526032908201527f4552433732313a207472616e7366657220746f206e6f6e20455243373231526560408201527131b2b4bb32b91034b6b83632b6b2b73a32b960711b606082015260800190565b6001600160a01b038581168252841660208201526040810183905260806060820181905260009061505d908301846144ea565b9695505050505050565b60006020828403121561507957600080fd5b81516144b781614484565b634e487b7160e01b600052603160045260246000fdfea2646970667358221220feef676ad123e661cc845b70734c9f1b3e0c9b49c22b86a4b9fa8bde939738be64736f6c63430008090033","opcodes":"PUSH1 0x2 PUSH1 0x10 SSTORE PUSH1 0x14 PUSH1 0x11 SSTORE PUSH1 0x0 PUSH1 0x12 SSTORE PUSH1 0xC0 PUSH1 0x40 MSTORE PUSH1 0x1 PUSH1 0x80 DUP2 SWAP1 MSTORE PUSH1 0x2F PUSH1 0xF8 SHL PUSH1 0xA0 SWAP1 DUP2 MSTORE PUSH3 0x33 SWAP2 PUSH1 0x2A SWAP2 SWAP1 PUSH3 0xD8 JUMP JUMPDEST POP CALLVALUE DUP1 ISZERO PUSH3 0x41 JUMPI PUSH1 0x0 DUP1 REVERT JUMPDEST POP PUSH1 0x40 MLOAD PUSH3 0x5414 CODESIZE SUB DUP1 PUSH3 0x5414 DUP4 CODECOPY DUP2 ADD PUSH1 0x40 DUP2 SWAP1 MSTORE PUSH3 0x64 SWAP2 PUSH3 0x268 JUMP JUMPDEST DUP4 MLOAD DUP5 SWAP1 DUP5 SWAP1 PUSH3 0x7D SWAP1 PUSH1 0x0 SWAP1 PUSH1 0x20 DUP6 ADD SWAP1 PUSH3 0xD8 JUMP JUMPDEST POP DUP1 MLOAD PUSH3 0x93 SWAP1 PUSH1 0x1 SWAP1 PUSH1 0x20 DUP5 ADD SWAP1 PUSH3 0xD8 JUMP JUMPDEST POP POP PUSH1 0x13 DUP1 SLOAD PUSH1 0x1 PUSH1 0x1 PUSH1 0xA0 SHL SUB SWAP5 DUP6 AND PUSH1 0x1 PUSH1 0x1 PUSH1 0xA0 SHL SUB NOT SWAP2 DUP3 AND OR SWAP1 SWAP2 SSTORE PUSH1 0xC DUP1 SLOAD SWAP4 SWAP1 SWAP5 AND SWAP3 DUP2 AND DUP4 OR SWAP1 SWAP4 SSTORE POP PUSH1 0xD DUP1 SLOAD SWAP1 SWAP3 AND OR SWAP1 SSTORE POP PUSH3 0x334 SWAP1 POP JUMP JUMPDEST DUP3 DUP1 SLOAD PUSH3 0xE6 SWAP1 PUSH3 0x2F7 JUMP JUMPDEST SWAP1 PUSH1 0x0 MSTORE PUSH1 0x20 PUSH1 0x0 KECCAK256 SWAP1 PUSH1 0x1F ADD PUSH1 0x20 SWAP1 DIV DUP2 ADD SWAP3 DUP3 PUSH3 0x10A JUMPI PUSH1 0x0 DUP6 SSTORE PUSH3 0x155 JUMP JUMPDEST DUP3 PUSH1 0x1F LT PUSH3 0x125 JUMPI DUP1 MLOAD PUSH1 0xFF NOT AND DUP4 DUP1 ADD OR DUP6 SSTORE PUSH3 0x155 JUMP JUMPDEST DUP3 DUP1 ADD PUSH1 0x1 ADD DUP6 SSTORE DUP3 ISZERO PUSH3 0x155 JUMPI SWAP2 DUP3 ADD JUMPDEST DUP3 DUP2 GT ISZERO PUSH3 0x155 JUMPI DUP3 MLOAD DUP3 SSTORE SWAP2 PUSH1 0x20 ADD SWAP2 SWAP1 PUSH1 0x1 ADD SWAP1 PUSH3 0x138 JUMP JUMPDEST POP PUSH3 0x163 SWAP3 SWAP2 POP PUSH3 0x167 JUMP JUMPDEST POP SWAP1 JUMP JUMPDEST JUMPDEST DUP1 DUP3 GT ISZERO PUSH3 0x163 JUMPI PUSH1 0x0 DUP2 SSTORE PUSH1 0x1 ADD PUSH3 0x168 JUMP JUMPDEST PUSH4 0x4E487B71 PUSH1 0xE0 SHL PUSH1 0x0 MSTORE PUSH1 0x41 PUSH1 0x4 MSTORE PUSH1 0x24 PUSH1 0x0 REVERT JUMPDEST PUSH1 0x0 DUP3 PUSH1 0x1F DUP4 ADD SLT PUSH3 0x1A6 JUMPI PUSH1 0x0 DUP1 REVERT JUMPDEST DUP2 MLOAD PUSH1 0x1 PUSH1 0x1 PUSH1 0x40 SHL SUB DUP1 DUP3 GT ISZERO PUSH3 0x1C3 JUMPI PUSH3 0x1C3 PUSH3 0x17E JUMP JUMPDEST PUSH1 0x40 MLOAD PUSH1 0x1F DUP4 ADD PUSH1 0x1F NOT SWAP1 DUP2 AND PUSH1 0x3F ADD AND DUP2 ADD SWAP1 DUP3 DUP3 GT DUP2 DUP4 LT OR ISZERO PUSH3 0x1EE JUMPI PUSH3 0x1EE PUSH3 0x17E JUMP JUMPDEST DUP2 PUSH1 0x40 MSTORE DUP4 DUP2 MSTORE PUSH1 0x20 SWAP3 POP DUP7 DUP4 DUP6 DUP9 ADD ADD GT ISZERO PUSH3 0x20B JUMPI PUSH1 0x0 DUP1 REVERT JUMPDEST PUSH1 0x0 SWAP2 POP JUMPDEST DUP4 DUP3 LT ISZERO PUSH3 0x22F JUMPI DUP6 DUP3 ADD DUP4 ADD MLOAD DUP2 DUP4 ADD DUP5 ADD MSTORE SWAP1 DUP3 ADD SWAP1 PUSH3 0x210 JUMP JUMPDEST DUP4 DUP3 GT ISZERO PUSH3 0x241 JUMPI PUSH1 0x0 DUP4 DUP6 DUP4 ADD ADD MSTORE JUMPDEST SWAP7 SWAP6 POP POP POP POP POP POP JUMP JUMPDEST DUP1 MLOAD PUSH1 0x1 PUSH1 0x1 PUSH1 0xA0 SHL SUB DUP2 AND DUP2 EQ PUSH3 0x263 JUMPI PUSH1 0x0 DUP1 REVERT JUMPDEST SWAP2 SWAP1 POP JUMP JUMPDEST PUSH1 0x0 DUP1 PUSH1 0x0 DUP1 PUSH1 0x80 DUP6 DUP8 SUB SLT ISZERO PUSH3 0x27F JUMPI PUSH1 0x0 DUP1 REVERT JUMPDEST DUP5 MLOAD PUSH1 0x1 PUSH1 0x1 PUSH1 0x40 SHL SUB DUP1 DUP3 GT ISZERO PUSH3 0x297 JUMPI PUSH1 0x0 DUP1 REVERT JUMPDEST PUSH3 0x2A5 DUP9 DUP4 DUP10 ADD PUSH3 0x194 JUMP JUMPDEST SWAP6 POP PUSH1 0x20 DUP8 ADD MLOAD SWAP2 POP DUP1 DUP3 GT ISZERO PUSH3 0x2BC JUMPI PUSH1 0x0 DUP1 REVERT JUMPDEST POP PUSH3 0x2CB DUP8 DUP3 DUP9 ADD PUSH3 0x194 JUMP JUMPDEST SWAP4 POP POP PUSH3 0x2DC PUSH1 0x40 DUP7 ADD PUSH3 0x24B JUMP JUMPDEST SWAP2 POP PUSH3 0x2EC PUSH1 0x60 DUP7 ADD PUSH3 0x24B JUMP JUMPDEST SWAP1 POP SWAP3 SWAP6 SWAP2 SWAP5 POP SWAP3 POP JUMP JUMPDEST PUSH1 0x1 DUP2 DUP2 SHR SWAP1 DUP3 AND DUP1 PUSH3 0x30C JUMPI PUSH1 0x7F DUP3 AND SWAP2 POP JUMPDEST PUSH1 0x20 DUP3 LT DUP2 EQ ISZERO PUSH3 0x32E JUMPI PUSH4 0x4E487B71 PUSH1 0xE0 SHL PUSH1 0x0 MSTORE PUSH1 0x22 PUSH1 0x4 MSTORE PUSH1 0x24 PUSH1 0x0 REVERT JUMPDEST POP SWAP2 SWAP1 POP JUMP JUMPDEST PUSH2 0x50D0 DUP1 PUSH3 0x344 PUSH1 0x0 CODECOPY PUSH1 0x0 RETURN INVALID PUSH1 0x80 PUSH1 0x40 MSTORE PUSH1 0x4 CALLDATASIZE LT PUSH2 0x3E8 JUMPI PUSH1 0x0 CALLDATALOAD PUSH1 0xE0 SHR DUP1 PUSH4 0x6D908F38 GT PUSH2 0x208 JUMPI DUP1 PUSH4 0xA8602FEA GT PUSH2 0x118 JUMPI DUP1 PUSH4 0xCF477D6C GT PUSH2 0xAB JUMPI DUP1 PUSH4 0xE985E9C5 GT PUSH2 0x7A JUMPI DUP1 PUSH4 0xE985E9C5 EQ PUSH2 0xC52 JUMPI DUP1 PUSH4 0xEC2D455D EQ PUSH2 0xC9B JUMPI DUP1 PUSH4 0xECAD5CF6 EQ PUSH2 0xCC8 JUMPI DUP1 PUSH4 0xEF6E9440 EQ PUSH2 0xD03 JUMPI DUP1 PUSH4 0xF4C66C18 EQ PUSH2 0xD23 JUMPI PUSH1 0x0 DUP1 REVERT JUMPDEST DUP1 PUSH4 0xCF477D6C EQ PUSH2 0xBCF JUMPI DUP1 PUSH4 0xD3C5915A EQ PUSH2 0xBEF JUMPI DUP1 PUSH4 0xE448D598 EQ PUSH2 0xC05 JUMPI DUP1 PUSH4 0xE6629E0A EQ PUSH2 0xC32 JUMPI PUSH1 0x0 DUP1 REVERT JUMPDEST DUP1 PUSH4 0xC001EEBE GT PUSH2 0xE7 JUMPI DUP1 PUSH4 0xC001EEBE EQ PUSH2 0xB5C JUMPI DUP1 PUSH4 0xC3490263 EQ PUSH2 0xB7C JUMPI DUP1 PUSH4 0xC87B56DD EQ PUSH2 0xB9C JUMPI DUP1 PUSH4 0xCC87103B EQ PUSH2 0xBBC JUMPI PUSH1 0x0 DUP1 REVERT JUMPDEST DUP1 PUSH4 0xA8602FEA EQ PUSH2 0xADC JUMPI DUP1 PUSH4 0xB41A4D3D EQ PUSH2 0xAFC JUMPI DUP1 PUSH4 0xB88D4FDE EQ PUSH2 0xB1C JUMPI DUP1 PUSH4 0xBB542EF0 EQ PUSH2 0xB3C JUMPI PUSH1 0x0 DUP1 REVERT JUMPDEST DUP1 PUSH4 0x93003717 GT PUSH2 0x19B JUMPI DUP1 PUSH4 0x9E3C6311 GT PUSH2 0x16A JUMPI DUP1 PUSH4 0x9E3C6311 EQ PUSH2 0xA26 JUMPI DUP1 PUSH4 0x9F74B060 EQ PUSH2 0xA46 JUMPI DUP1 PUSH4 0xA22CB465 EQ PUSH2 0xA5C JUMPI DUP1 PUSH4 0xA4BF2108 EQ PUSH2 0xA7C JUMPI DUP1 PUSH4 0xA6C0E24B EQ PUSH2 0xAAC JUMPI PUSH1 0x0 DUP1 REVERT JUMPDEST DUP1 PUSH4 0x93003717 EQ PUSH2 0x9BE JUMPI DUP1 PUSH4 0x95D89B41 EQ PUSH2 0x9D1 JUMPI DUP1 PUSH4 0x967A7A65 EQ PUSH2 0x9E6 JUMPI DUP1 PUSH4 0x9B3F83D3 EQ PUSH2 0xA06 JUMPI PUSH1 0x0 DUP1 REVERT JUMPDEST DUP1 PUSH4 0x80598BFA GT PUSH2 0x1D7 JUMPI DUP1 PUSH4 0x80598BFA EQ PUSH2 0x948 JUMPI DUP1 PUSH4 0x8397FE26 EQ PUSH2 0x968 JUMPI DUP1 PUSH4 0x855FB05E EQ PUSH2 0x988 JUMPI DUP1 PUSH4 0x8E2AADB5 EQ PUSH2 0x99E JUMPI PUSH1 0x0 DUP1 REVERT JUMPDEST DUP1 PUSH4 0x6D908F38 EQ PUSH2 0x8C2 JUMPI DUP1 PUSH4 0x6FB3C03A EQ PUSH2 0x8D8 JUMPI DUP1 PUSH4 0x70A08231 EQ PUSH2 0x908 JUMPI DUP1 PUSH4 0x70BF164D EQ PUSH2 0x928 JUMPI PUSH1 0x0 DUP1 REVERT JUMPDEST DUP1 PUSH4 0x2D5EA429 GT PUSH2 0x303 JUMPI DUP1 PUSH4 0x55F804B3 GT PUSH2 0x296 JUMPI DUP1 PUSH4 0x6352211E GT PUSH2 0x265 JUMPI DUP1 PUSH4 0x6352211E EQ PUSH2 0x828 JUMPI DUP1 PUSH4 0x65A77932 EQ PUSH2 0x848 JUMPI DUP1 PUSH4 0x67A3E1D6 EQ PUSH2 0x878 JUMPI DUP1 PUSH4 0x6986B483 EQ PUSH2 0x88B JUMPI DUP1 PUSH4 0x6C0360EB EQ PUSH2 0x8AD JUMPI PUSH1 0x0 DUP1 REVERT JUMPDEST DUP1 PUSH4 0x55F804B3 EQ PUSH2 0x79B JUMPI DUP1 PUSH4 0x5A9CBC2B EQ PUSH2 0x7BB JUMPI DUP1 PUSH4 0x5C368498 EQ PUSH2 0x7DB JUMPI DUP1 PUSH4 0x5D91BAE9 EQ PUSH2 0x7FB JUMPI PUSH1 0x0 DUP1 REVERT JUMPDEST DUP1 PUSH4 0x42842E0E GT PUSH2 0x2D2 JUMPI DUP1 PUSH4 0x42842E0E EQ PUSH2 0x6FA JUMPI DUP1 PUSH4 0x4AFB6C79 EQ PUSH2 0x71A JUMPI DUP1 PUSH4 0x4E72CEA2 EQ PUSH2 0x747 JUMPI DUP1 PUSH4 0x4F6CCCE7 EQ PUSH2 0x77B JUMPI PUSH1 0x0 DUP1 REVERT JUMPDEST DUP1 PUSH4 0x2D5EA429 EQ PUSH2 0x689 JUMPI DUP1 PUSH4 0x2F745C59 EQ PUSH2 0x6A9 JUMPI DUP1 PUSH4 0x364CA6ED EQ PUSH2 0x6C9 JUMPI DUP1 PUSH4 0x41D7F75B EQ PUSH2 0x6E7 JUMPI PUSH1 0x0 DUP1 REVERT JUMPDEST DUP1 PUSH4 0x1D66870D GT PUSH2 0x37B JUMPI DUP1 PUSH4 0x23B872DD GT PUSH2 0x34A JUMPI DUP1 PUSH4 0x23B872DD EQ PUSH2 0x5A2 JUMPI DUP1 PUSH4 0x2800B89E EQ PUSH2 0x5C2 JUMPI DUP1 PUSH4 0x29BC5825 EQ PUSH2 0x5F8 JUMPI DUP1 PUSH4 0x2D11E332 EQ PUSH2 0x65C JUMPI PUSH1 0x0 DUP1 REVERT JUMPDEST DUP1 PUSH4 0x1D66870D EQ PUSH2 0x517 JUMPI DUP1 PUSH4 0x1F53AC02 EQ PUSH2 0x54C JUMPI DUP1 PUSH4 0x207CC63E EQ PUSH2 0x56C JUMPI DUP1 PUSH4 0x20E83600 EQ PUSH2 0x58C JUMPI PUSH1 0x0 DUP1 REVERT JUMPDEST DUP1 PUSH4 0xD944BEC GT PUSH2 0x3B7 JUMPI DUP1 PUSH4 0xD944BEC EQ PUSH2 0x4A5 JUMPI DUP1 PUSH4 0xF3C920C EQ PUSH2 0x4C5 JUMPI DUP1 PUSH4 0x115F4A55 EQ PUSH2 0x4D8 JUMPI DUP1 PUSH4 0x18160DDD EQ PUSH2 0x4F8 JUMPI PUSH1 0x0 DUP1 REVERT JUMPDEST DUP1 PUSH4 0x1FFC9A7 EQ PUSH2 0x3F4 JUMPI DUP1 PUSH4 0x6FDDE03 EQ PUSH2 0x429 JUMPI DUP1 PUSH4 0x81812FC EQ PUSH2 0x44B JUMPI DUP1 PUSH4 0x95EA7B3 EQ PUSH2 0x483 JUMPI PUSH1 0x0 DUP1 REVERT JUMPDEST CALLDATASIZE PUSH2 0x3EF JUMPI STOP JUMPDEST PUSH1 0x0 DUP1 REVERT JUMPDEST CALLVALUE DUP1 ISZERO PUSH2 0x400 JUMPI PUSH1 0x0 DUP1 REVERT JUMPDEST POP PUSH2 0x414 PUSH2 0x40F CALLDATASIZE PUSH1 0x4 PUSH2 0x449A JUMP JUMPDEST PUSH2 0xD43 JUMP JUMPDEST PUSH1 0x40 MLOAD SWAP1 ISZERO ISZERO DUP2 MSTORE PUSH1 0x20 ADD JUMPDEST PUSH1 0x40 MLOAD DUP1 SWAP2 SUB SWAP1 RETURN JUMPDEST CALLVALUE DUP1 ISZERO PUSH2 0x435 JUMPI PUSH1 0x0 DUP1 REVERT JUMPDEST POP PUSH2 0x43E PUSH2 0xD6E JUMP JUMPDEST PUSH1 0x40 MLOAD PUSH2 0x420 SWAP2 SWAP1 PUSH2 0x4516 JUMP JUMPDEST CALLVALUE DUP1 ISZERO PUSH2 0x457 JUMPI PUSH1 0x0 DUP1 REVERT JUMPDEST POP PUSH2 0x46B PUSH2 0x466 CALLDATASIZE PUSH1 0x4 PUSH2 0x4529 JUMP JUMPDEST PUSH2 0xE00 JUMP JUMPDEST PUSH1 0x40 MLOAD PUSH1 0x1 PUSH1 0x1 PUSH1 0xA0 SHL SUB SWAP1 SWAP2 AND DUP2 MSTORE PUSH1 0x20 ADD PUSH2 0x420 JUMP JUMPDEST CALLVALUE DUP1 ISZERO PUSH2 0x48F JUMPI PUSH1 0x0 DUP1 REVERT JUMPDEST POP PUSH2 0x4A3 PUSH2 0x49E CALLDATASIZE PUSH1 0x4 PUSH2 0x4559 JUMP JUMPDEST PUSH2 0xE9A JUMP JUMPDEST STOP JUMPDEST CALLVALUE DUP1 ISZERO PUSH2 0x4B1 JUMPI PUSH1 0x0 DUP1 REVERT JUMPDEST POP PUSH2 0x4A3 PUSH2 0x4C0 CALLDATASIZE PUSH1 0x4 PUSH2 0x4529 JUMP JUMPDEST PUSH2 0xFB0 JUMP JUMPDEST PUSH2 0x4A3 PUSH2 0x4D3 CALLDATASIZE PUSH1 0x4 PUSH2 0x462F JUMP JUMPDEST PUSH2 0x106F JUMP JUMPDEST CALLVALUE DUP1 ISZERO PUSH2 0x4E4 JUMPI PUSH1 0x0 DUP1 REVERT JUMPDEST POP PUSH2 0x4A3 PUSH2 0x4F3 CALLDATASIZE PUSH1 0x4 PUSH2 0x4529 JUMP JUMPDEST PUSH2 0x11A6 JUMP JUMPDEST CALLVALUE DUP1 ISZERO PUSH2 0x504 JUMPI PUSH1 0x0 DUP1 REVERT JUMPDEST POP PUSH1 0xA SLOAD JUMPDEST PUSH1 0x40 MLOAD SWAP1 DUP2 MSTORE PUSH1 0x20 ADD PUSH2 0x420 JUMP JUMPDEST CALLVALUE DUP1 ISZERO PUSH2 0x523 JUMPI PUSH1 0x0 DUP1 REVERT JUMPDEST POP PUSH2 0x537 PUSH2 0x532 CALLDATASIZE PUSH1 0x4 PUSH2 0x4529 JUMP JUMPDEST PUSH2 0x11E8 JUMP JUMPDEST PUSH1 0x40 MLOAD PUSH2 0x420 SWAP10 SWAP9 SWAP8 SWAP7 SWAP6 SWAP5 SWAP4 SWAP3 SWAP2 SWAP1 PUSH2 0x4714 JUMP JUMPDEST CALLVALUE DUP1 ISZERO PUSH2 0x558 JUMPI PUSH1 0x0 DUP1 REVERT JUMPDEST POP PUSH2 0x4A3 PUSH2 0x567 CALLDATASIZE PUSH1 0x4 PUSH2 0x479E JUMP JUMPDEST PUSH2 0x1405 JUMP JUMPDEST CALLVALUE DUP1 ISZERO PUSH2 0x578 JUMPI PUSH1 0x0 DUP1 REVERT JUMPDEST POP PUSH2 0x4A3 PUSH2 0x587 CALLDATASIZE PUSH1 0x4 PUSH2 0x47B9 JUMP JUMPDEST PUSH2 0x1451 JUMP JUMPDEST CALLVALUE DUP1 ISZERO PUSH2 0x598 JUMPI PUSH1 0x0 DUP1 REVERT JUMPDEST POP PUSH2 0x509 PUSH1 0xE SLOAD DUP2 JUMP JUMPDEST CALLVALUE DUP1 ISZERO PUSH2 0x5AE JUMPI PUSH1 0x0 DUP1 REVERT JUMPDEST POP PUSH2 0x4A3 PUSH2 0x5BD CALLDATASIZE PUSH1 0x4 PUSH2 0x47DB JUMP JUMPDEST PUSH2 0x151B JUMP JUMPDEST CALLVALUE DUP1 ISZERO PUSH2 0x5CE JUMPI PUSH1 0x0 DUP1 REVERT JUMPDEST POP PUSH2 0x46B PUSH2 0x5DD CALLDATASIZE PUSH1 0x4 PUSH2 0x4529 JUMP JUMPDEST PUSH1 0x29 PUSH1 0x20 MSTORE PUSH1 0x0 SWAP1 DUP2 MSTORE PUSH1 0x40 SWAP1 KECCAK256 SLOAD PUSH1 0x1 PUSH1 0x1 PUSH1 0xA0 SHL SUB AND DUP2 JUMP JUMPDEST CALLVALUE DUP1 ISZERO PUSH2 0x604 JUMPI PUSH1 0x0 DUP1 REVERT JUMPDEST POP PUSH2 0x63F PUSH2 0x613 CALLDATASIZE PUSH1 0x4 PUSH2 0x4529 JUMP JUMPDEST PUSH1 0x0 SWAP1 DUP2 MSTORE PUSH1 0x20 DUP1 DUP1 MSTORE PUSH1 0x40 DUP1 DUP4 KECCAK256 PUSH1 0x3 ADD SLOAD PUSH1 0x23 SWAP1 SWAP3 MSTORE SWAP1 SWAP2 KECCAK256 SLOAD SWAP1 SWAP2 PUSH1 0x1 PUSH1 0x1 PUSH1 0xA0 SHL SUB SWAP1 SWAP2 AND SWAP1 JUMP JUMPDEST PUSH1 0x40 DUP1 MLOAD SWAP3 DUP4 MSTORE PUSH1 0x1 PUSH1 0x1 PUSH1 0xA0 SHL SUB SWAP1 SWAP2 AND PUSH1 0x20 DUP4 ADD MSTORE ADD PUSH2 0x420 JUMP JUMPDEST CALLVALUE DUP1 ISZERO PUSH2 0x668 JUMPI PUSH1 0x0 DUP1 REVERT JUMPDEST POP PUSH2 0x509 PUSH2 0x677 CALLDATASIZE PUSH1 0x4 PUSH2 0x4529 JUMP JUMPDEST PUSH1 0x1A PUSH1 0x20 MSTORE PUSH1 0x0 SWAP1 DUP2 MSTORE PUSH1 0x40 SWAP1 KECCAK256 SLOAD DUP2 JUMP JUMPDEST CALLVALUE DUP1 ISZERO PUSH2 0x695 JUMPI PUSH1 0x0 DUP1 REVERT JUMPDEST POP PUSH2 0x414 PUSH2 0x6A4 CALLDATASIZE PUSH1 0x4 PUSH2 0x4529 JUMP JUMPDEST PUSH2 0x154C JUMP JUMPDEST CALLVALUE DUP1 ISZERO PUSH2 0x6B5 JUMPI PUSH1 0x0 DUP1 REVERT JUMPDEST POP PUSH2 0x509 PUSH2 0x6C4 CALLDATASIZE PUSH1 0x4 PUSH2 0x4559 JUMP JUMPDEST PUSH2 0x15A3 JUMP JUMPDEST CALLVALUE DUP1 ISZERO PUSH2 0x6D5 JUMPI PUSH1 0x0 DUP1 REVERT JUMPDEST POP PUSH1 0x13 SLOAD PUSH1 0x1 PUSH1 0x1 PUSH1 0xA0 SHL SUB AND PUSH2 0x46B JUMP JUMPDEST PUSH2 0x4A3 PUSH2 0x6F5 CALLDATASIZE PUSH1 0x4 PUSH2 0x47B9 JUMP JUMPDEST PUSH2 0x1639 JUMP JUMPDEST CALLVALUE DUP1 ISZERO PUSH2 0x706 JUMPI PUSH1 0x0 DUP1 REVERT JUMPDEST POP PUSH2 0x4A3 PUSH2 0x715 CALLDATASIZE PUSH1 0x4 PUSH2 0x47DB JUMP JUMPDEST PUSH2 0x182D JUMP JUMPDEST CALLVALUE DUP1 ISZERO PUSH2 0x726 JUMPI PUSH1 0x0 DUP1 REVERT JUMPDEST POP PUSH2 0x509 PUSH2 0x735 CALLDATASIZE PUSH1 0x4 PUSH2 0x4529 JUMP JUMPDEST PUSH1 0x1E PUSH1 0x20 MSTORE PUSH1 0x0 SWAP1 DUP2 MSTORE PUSH1 0x40 SWAP1 KECCAK256 SLOAD DUP2 JUMP JUMPDEST CALLVALUE DUP1 ISZERO PUSH2 0x753 JUMPI PUSH1 0x0 DUP1 REVERT JUMPDEST POP PUSH2 0x767 PUSH2 0x762 CALLDATASIZE PUSH1 0x4 PUSH2 0x4529 JUMP JUMPDEST PUSH2 0x1848 JUMP JUMPDEST PUSH1 0x40 MLOAD PUSH2 0x420 SWAP9 SWAP8 SWAP7 SWAP6 SWAP5 SWAP4 SWAP3 SWAP2 SWAP1 PUSH2 0x4817 JUMP JUMPDEST CALLVALUE DUP1 ISZERO PUSH2 0x787 JUMPI PUSH1 0x0 DUP1 REVERT JUMPDEST POP PUSH2 0x509 PUSH2 0x796 CALLDATASIZE PUSH1 0x4 PUSH2 0x4529 JUMP JUMPDEST PUSH2 0x1BFC JUMP JUMPDEST CALLVALUE DUP1 ISZERO PUSH2 0x7A7 JUMPI PUSH1 0x0 DUP1 REVERT JUMPDEST POP PUSH2 0x4A3 PUSH2 0x7B6 CALLDATASIZE PUSH1 0x4 PUSH2 0x48A8 JUMP JUMPDEST PUSH2 0x1C8F JUMP JUMPDEST CALLVALUE DUP1 ISZERO PUSH2 0x7C7 JUMPI PUSH1 0x0 DUP1 REVERT JUMPDEST POP PUSH2 0x509 PUSH2 0x7D6 CALLDATASIZE PUSH1 0x4 PUSH2 0x4559 JUMP JUMPDEST PUSH2 0x1CCC JUMP JUMPDEST CALLVALUE DUP1 ISZERO PUSH2 0x7E7 JUMPI PUSH1 0x0 DUP1 REVERT JUMPDEST POP PUSH2 0x4A3 PUSH2 0x7F6 CALLDATASIZE PUSH1 0x4 PUSH2 0x4529 JUMP JUMPDEST PUSH2 0x1CFD JUMP JUMPDEST CALLVALUE DUP1 ISZERO PUSH2 0x807 JUMPI PUSH1 0x0 DUP1 REVERT JUMPDEST POP PUSH2 0x509 PUSH2 0x816 CALLDATASIZE PUSH1 0x4 PUSH2 0x4529 JUMP JUMPDEST PUSH1 0x1D PUSH1 0x20 MSTORE PUSH1 0x0 SWAP1 DUP2 MSTORE PUSH1 0x40 SWAP1 KECCAK256 SLOAD DUP2 JUMP JUMPDEST CALLVALUE DUP1 ISZERO PUSH2 0x834 JUMPI PUSH1 0x0 DUP1 REVERT JUMPDEST POP PUSH2 0x46B PUSH2 0x843 CALLDATASIZE PUSH1 0x4 PUSH2 0x4529 JUMP JUMPDEST PUSH2 0x1D2C JUMP JUMPDEST CALLVALUE DUP1 ISZERO PUSH2 0x854 JUMPI PUSH1 0x0 DUP1 REVERT JUMPDEST POP PUSH2 0x868 PUSH2 0x863 CALLDATASIZE PUSH1 0x4 PUSH2 0x4529 JUMP JUMPDEST PUSH2 0x1DA3 JUMP JUMPDEST PUSH1 0x40 MLOAD PUSH2 0x420 SWAP5 SWAP4 SWAP3 SWAP2 SWAP1 PUSH2 0x4918 JUMP JUMPDEST PUSH2 0x4A3 PUSH2 0x886 CALLDATASIZE PUSH1 0x4 PUSH2 0x4961 JUMP JUMPDEST PUSH2 0x1E7C JUMP JUMPDEST CALLVALUE DUP1 ISZERO PUSH2 0x897 JUMPI PUSH1 0x0 DUP1 REVERT JUMPDEST POP PUSH2 0x8A0 PUSH2 0x217D JUMP JUMPDEST PUSH1 0x40 MLOAD PUSH2 0x420 SWAP2 SWAP1 PUSH2 0x498D JUMP JUMPDEST CALLVALUE DUP1 ISZERO PUSH2 0x8B9 JUMPI PUSH1 0x0 DUP1 REVERT JUMPDEST POP PUSH2 0x43E PUSH2 0x21DD JUMP JUMPDEST CALLVALUE DUP1 ISZERO PUSH2 0x8CE JUMPI PUSH1 0x0 DUP1 REVERT JUMPDEST POP PUSH2 0x509 PUSH1 0x11 SLOAD DUP2 JUMP JUMPDEST CALLVALUE DUP1 ISZERO PUSH2 0x8E4 JUMPI PUSH1 0x0 DUP1 REVERT JUMPDEST POP PUSH2 0x414 PUSH2 0x8F3 CALLDATASIZE PUSH1 0x4 PUSH2 0x4529 JUMP JUMPDEST PUSH1 0x28 PUSH1 0x20 MSTORE PUSH1 0x0 SWAP1 DUP2 MSTORE PUSH1 0x40 SWAP1 KECCAK256 SLOAD PUSH1 0xFF AND DUP2 JUMP JUMPDEST CALLVALUE DUP1 ISZERO PUSH2 0x914 JUMPI PUSH1 0x0 DUP1 REVERT JUMPDEST POP PUSH2 0x509 PUSH2 0x923 CALLDATASIZE PUSH1 0x4 PUSH2 0x479E JUMP JUMPDEST PUSH2 0x226B JUMP JUMPDEST CALLVALUE DUP1 ISZERO PUSH2 0x934 JUMPI PUSH1 0x0 DUP1 REVERT JUMPDEST POP PUSH2 0x509 PUSH2 0x943 CALLDATASIZE PUSH1 0x4 PUSH2 0x4529 JUMP JUMPDEST PUSH2 0x22F2 JUMP JUMPDEST CALLVALUE DUP1 ISZERO PUSH2 0x954 JUMPI PUSH1 0x0 DUP1 REVERT JUMPDEST POP PUSH2 0x4A3 PUSH2 0x963 CALLDATASIZE PUSH1 0x4 PUSH2 0x49A0 JUMP JUMPDEST PUSH2 0x2327 JUMP JUMPDEST CALLVALUE DUP1 ISZERO PUSH2 0x974 JUMPI PUSH1 0x0 DUP1 REVERT JUMPDEST POP PUSH2 0x8A0 PUSH2 0x983 CALLDATASIZE PUSH1 0x4 PUSH2 0x4529 JUMP JUMPDEST PUSH2 0x24B2 JUMP JUMPDEST CALLVALUE DUP1 ISZERO PUSH2 0x994 JUMPI PUSH1 0x0 DUP1 REVERT JUMPDEST POP PUSH2 0x509 PUSH1 0x10 SLOAD DUP2 JUMP JUMPDEST CALLVALUE DUP1 ISZERO PUSH2 0x9AA JUMPI PUSH1 0x0 DUP1 REVERT JUMPDEST POP PUSH2 0x4A3 PUSH2 0x9B9 CALLDATASIZE PUSH1 0x4 PUSH2 0x4529 JUMP JUMPDEST PUSH2 0x2514 JUMP JUMPDEST PUSH2 0x4A3 PUSH2 0x9CC CALLDATASIZE PUSH1 0x4 PUSH2 0x4529 JUMP JUMPDEST PUSH2 0x2543 JUMP JUMPDEST CALLVALUE DUP1 ISZERO PUSH2 0x9DD JUMPI PUSH1 0x0 DUP1 REVERT JUMPDEST POP PUSH2 0x43E PUSH2 0x270E JUMP JUMPDEST CALLVALUE DUP1 ISZERO PUSH2 0x9F2 JUMPI PUSH1 0x0 DUP1 REVERT JUMPDEST POP PUSH2 0x4A3 PUSH2 0xA01 CALLDATASIZE PUSH1 0x4 PUSH2 0x4529 JUMP JUMPDEST PUSH2 0x271D JUMP JUMPDEST CALLVALUE DUP1 ISZERO PUSH2 0xA12 JUMPI PUSH1 0x0 DUP1 REVERT JUMPDEST POP PUSH2 0x4A3 PUSH2 0xA21 CALLDATASIZE PUSH1 0x4 PUSH2 0x47B9 JUMP JUMPDEST PUSH2 0x27CB JUMP JUMPDEST CALLVALUE DUP1 ISZERO PUSH2 0xA32 JUMPI PUSH1 0x0 DUP1 REVERT JUMPDEST POP PUSH2 0x4A3 PUSH2 0xA41 CALLDATASIZE PUSH1 0x4 PUSH2 0x4529 JUMP JUMPDEST PUSH2 0x291F JUMP JUMPDEST CALLVALUE DUP1 ISZERO PUSH2 0xA52 JUMPI PUSH1 0x0 DUP1 REVERT JUMPDEST POP PUSH2 0x509 PUSH1 0xF SLOAD DUP2 JUMP JUMPDEST CALLVALUE DUP1 ISZERO PUSH2 0xA68 JUMPI PUSH1 0x0 DUP1 REVERT JUMPDEST POP PUSH2 0x4A3 PUSH2 0xA77 CALLDATASIZE PUSH1 0x4 PUSH2 0x49D2 JUMP JUMPDEST PUSH2 0x29DC JUMP JUMPDEST CALLVALUE DUP1 ISZERO PUSH2 0xA88 JUMPI PUSH1 0x0 DUP1 REVERT JUMPDEST POP PUSH2 0x414 PUSH2 0xA97 CALLDATASIZE PUSH1 0x4 PUSH2 0x4529 JUMP JUMPDEST PUSH1 0x25 PUSH1 0x20 MSTORE PUSH1 0x0 SWAP1 DUP2 MSTORE PUSH1 0x40 SWAP1 KECCAK256 SLOAD PUSH1 0xFF AND DUP2 JUMP JUMPDEST CALLVALUE DUP1 ISZERO PUSH2 0xAB8 JUMPI PUSH1 0x0 DUP1 REVERT JUMPDEST POP PUSH2 0x414 PUSH2 0xAC7 CALLDATASIZE PUSH1 0x4 PUSH2 0x4529 JUMP JUMPDEST PUSH1 0x0 SWAP1 DUP2 MSTORE PUSH1 0x28 PUSH1 0x20 MSTORE PUSH1 0x40 SWAP1 KECCAK256 SLOAD PUSH1 0xFF AND SWAP1 JUMP JUMPDEST CALLVALUE DUP1 ISZERO PUSH2 0xAE8 JUMPI PUSH1 0x0 DUP1 REVERT JUMPDEST POP PUSH2 0x4A3 PUSH2 0xAF7 CALLDATASIZE PUSH1 0x4 PUSH2 0x479E JUMP JUMPDEST PUSH2 0x2AA1 JUMP JUMPDEST CALLVALUE DUP1 ISZERO PUSH2 0xB08 JUMPI PUSH1 0x0 DUP1 REVERT JUMPDEST POP PUSH2 0x509 PUSH2 0xB17 CALLDATASIZE PUSH1 0x4 PUSH2 0x47B9 JUMP JUMPDEST PUSH2 0x2AED JUMP JUMPDEST CALLVALUE DUP1 ISZERO PUSH2 0xB28 JUMPI PUSH1 0x0 DUP1 REVERT JUMPDEST POP PUSH2 0x4A3 PUSH2 0xB37 CALLDATASIZE PUSH1 0x4 PUSH2 0x49FC JUMP JUMPDEST PUSH2 0x2B09 JUMP JUMPDEST CALLVALUE DUP1 ISZERO PUSH2 0xB48 JUMPI PUSH1 0x0 DUP1 REVERT JUMPDEST POP PUSH2 0x4A3 PUSH2 0xB57 CALLDATASIZE PUSH1 0x4 PUSH2 0x479E JUMP JUMPDEST PUSH2 0x2B41 JUMP JUMPDEST CALLVALUE DUP1 ISZERO PUSH2 0xB68 JUMPI PUSH1 0x0 DUP1 REVERT JUMPDEST POP PUSH2 0x4A3 PUSH2 0xB77 CALLDATASIZE PUSH1 0x4 PUSH2 0x479E JUMP JUMPDEST PUSH2 0x2BA9 JUMP JUMPDEST CALLVALUE DUP1 ISZERO PUSH2 0xB88 JUMPI PUSH1 0x0 DUP1 REVERT JUMPDEST POP PUSH2 0x4A3 PUSH2 0xB97 CALLDATASIZE PUSH1 0x4 PUSH2 0x47B9 JUMP JUMPDEST PUSH2 0x2BF5 JUMP JUMPDEST CALLVALUE DUP1 ISZERO PUSH2 0xBA8 JUMPI PUSH1 0x0 DUP1 REVERT JUMPDEST POP PUSH2 0x43E PUSH2 0xBB7 CALLDATASIZE PUSH1 0x4 PUSH2 0x4529 JUMP JUMPDEST PUSH2 0x2F9D JUMP JUMPDEST PUSH2 0x4A3 PUSH2 0xBCA CALLDATASIZE PUSH1 0x4 PUSH2 0x4A78 JUMP JUMPDEST PUSH2 0x3117 JUMP JUMPDEST CALLVALUE DUP1 ISZERO PUSH2 0xBDB JUMPI PUSH1 0x0 DUP1 REVERT JUMPDEST POP PUSH2 0x4A3 PUSH2 0xBEA CALLDATASIZE PUSH1 0x4 PUSH2 0x4529 JUMP JUMPDEST PUSH2 0x328E JUMP JUMPDEST CALLVALUE DUP1 ISZERO PUSH2 0xBFB JUMPI PUSH1 0x0 DUP1 REVERT JUMPDEST POP PUSH2 0x509 PUSH1 0x12 SLOAD DUP2 JUMP JUMPDEST CALLVALUE DUP1 ISZERO PUSH2 0xC11 JUMPI PUSH1 0x0 DUP1 REVERT JUMPDEST POP PUSH2 0x509 PUSH2 0xC20 CALLDATASIZE PUSH1 0x4 PUSH2 0x479E JUMP JUMPDEST PUSH1 0x19 PUSH1 0x20 MSTORE PUSH1 0x0 SWAP1 DUP2 MSTORE PUSH1 0x40 SWAP1 KECCAK256 SLOAD DUP2 JUMP JUMPDEST CALLVALUE DUP1 ISZERO PUSH2 0xC3E JUMPI PUSH1 0x0 DUP1 REVERT JUMPDEST POP PUSH2 0x4A3 PUSH2 0xC4D CALLDATASIZE PUSH1 0x4 PUSH2 0x4B49 JUMP JUMPDEST PUSH2 0x32BD JUMP JUMPDEST CALLVALUE DUP1 ISZERO PUSH2 0xC5E JUMPI PUSH1 0x0 DUP1 REVERT JUMPDEST POP PUSH2 0x414 PUSH2 0xC6D CALLDATASIZE PUSH1 0x4 PUSH2 0x4C23 JUMP JUMPDEST PUSH1 0x1 PUSH1 0x1 PUSH1 0xA0 SHL SUB SWAP2 DUP3 AND PUSH1 0x0 SWAP1 DUP2 MSTORE PUSH1 0x5 PUSH1 0x20 SWAP1 DUP2 MSTORE PUSH1 0x40 DUP1 DUP4 KECCAK256 SWAP4 SWAP1 SWAP5 AND DUP3 MSTORE SWAP2 SWAP1 SWAP2 MSTORE KECCAK256 SLOAD PUSH1 0xFF AND SWAP1 JUMP JUMPDEST CALLVALUE DUP1 ISZERO PUSH2 0xCA7 JUMPI PUSH1 0x0 DUP1 REVERT JUMPDEST POP PUSH2 0x509 PUSH2 0xCB6 CALLDATASIZE PUSH1 0x4 PUSH2 0x4529 JUMP JUMPDEST PUSH1 0x22 PUSH1 0x20 MSTORE PUSH1 0x0 SWAP1 DUP2 MSTORE PUSH1 0x40 SWAP1 KECCAK256 SLOAD DUP2 JUMP JUMPDEST CALLVALUE DUP1 ISZERO PUSH2 0xCD4 JUMPI PUSH1 0x0 DUP1 REVERT JUMPDEST POP PUSH2 0x414 PUSH2 0xCE3 CALLDATASIZE PUSH1 0x4 PUSH2 0x48A8 JUMP JUMPDEST DUP1 MLOAD PUSH1 0x20 DUP2 DUP4 ADD DUP2 ADD DUP1 MLOAD PUSH1 0x24 DUP3 MSTORE SWAP3 DUP3 ADD SWAP2 SWAP1 SWAP4 ADD KECCAK256 SWAP2 MSTORE SLOAD PUSH1 0xFF AND DUP2 JUMP JUMPDEST CALLVALUE DUP1 ISZERO PUSH2 0xD0F JUMPI PUSH1 0x0 DUP1 REVERT JUMPDEST POP PUSH2 0x4A3 PUSH2 0xD1E CALLDATASIZE PUSH1 0x4 PUSH2 0x4529 JUMP JUMPDEST PUSH2 0x349E JUMP JUMPDEST CALLVALUE DUP1 ISZERO PUSH2 0xD2F JUMPI PUSH1 0x0 DUP1 REVERT JUMPDEST POP PUSH2 0x4A3 PUSH2 0xD3E CALLDATASIZE PUSH1 0x4 PUSH2 0x4529 JUMP JUMPDEST PUSH2 0x35C6 JUMP JUMPDEST PUSH1 0x0 PUSH1 0x1 PUSH1 0x1 PUSH1 0xE0 SHL SUB NOT DUP3 AND PUSH4 0x780E9D63 PUSH1 0xE0 SHL EQ DUP1 PUSH2 0xD68 JUMPI POP PUSH2 0xD68 DUP3 PUSH2 0x3663 JUMP JUMPDEST SWAP3 SWAP2 POP POP JUMP JUMPDEST PUSH1 0x60 PUSH1 0x0 DUP1 SLOAD PUSH2 0xD7D SWAP1 PUSH2 0x4C4D JUMP JUMPDEST DUP1 PUSH1 0x1F ADD PUSH1 0x20 DUP1 SWAP2 DIV MUL PUSH1 0x20 ADD PUSH1 0x40 MLOAD SWAP1 DUP2 ADD PUSH1 0x40 MSTORE DUP1 SWAP3 SWAP2 SWAP1 DUP2 DUP2 MSTORE PUSH1 0x20 ADD DUP3 DUP1 SLOAD PUSH2 0xDA9 SWAP1 PUSH2 0x4C4D JUMP JUMPDEST DUP1 ISZERO PUSH2 0xDF6 JUMPI DUP1 PUSH1 0x1F LT PUSH2 0xDCB JUMPI PUSH2 0x100 DUP1 DUP4 SLOAD DIV MUL DUP4 MSTORE SWAP2 PUSH1 0x20 ADD SWAP2 PUSH2 0xDF6 JUMP JUMPDEST DUP3 ADD SWAP2 SWAP1 PUSH1 0x0 MSTORE PUSH1 0x20 PUSH1 0x0 KECCAK256 SWAP1 JUMPDEST DUP2 SLOAD DUP2 MSTORE SWAP1 PUSH1 0x1 ADD SWAP1 PUSH1 0x20 ADD DUP1 DUP4 GT PUSH2 0xDD9 JUMPI DUP3 SWAP1 SUB PUSH1 0x1F AND DUP3 ADD SWAP2 JUMPDEST POP POP POP POP POP SWAP1 POP SWAP1 JUMP JUMPDEST PUSH1 0x0 DUP2 DUP2 MSTORE PUSH1 0x2 PUSH1 0x20 MSTORE PUSH1 0x40 DUP2 KECCAK256 SLOAD PUSH1 0x1 PUSH1 0x1 PUSH1 0xA0 SHL SUB AND PUSH2 0xE7E JUMPI PUSH1 0x40 MLOAD PUSH3 0x461BCD PUSH1 0xE5 SHL DUP2 MSTORE PUSH1 0x20 PUSH1 0x4 DUP3 ADD MSTORE PUSH1 0x2C PUSH1 0x24 DUP3 ADD MSTORE PUSH32 0x4552433732313A20617070726F76656420717565727920666F72206E6F6E6578 PUSH1 0x44 DUP3 ADD MSTORE PUSH12 0x34B9BA32B73A103A37B5B2B7 PUSH1 0xA1 SHL PUSH1 0x64 DUP3 ADD MSTORE PUSH1 0x84 ADD JUMPDEST PUSH1 0x40 MLOAD DUP1 SWAP2 SUB SWAP1 REVERT JUMPDEST POP PUSH1 0x0 SWAP1 DUP2 MSTORE PUSH1 0x4 PUSH1 0x20 MSTORE PUSH1 0x40 SWAP1 KECCAK256 SLOAD PUSH1 0x1 PUSH1 0x1 PUSH1 0xA0 SHL SUB AND SWAP1 JUMP JUMPDEST PUSH1 0x0 PUSH2 0xEA5 DUP3 PUSH2 0x1D2C JUMP JUMPDEST SWAP1 POP DUP1 PUSH1 0x1 PUSH1 0x1 PUSH1 0xA0 SHL SUB AND DUP4 PUSH1 0x1 PUSH1 0x1 PUSH1 0xA0 SHL SUB AND EQ ISZERO PUSH2 0xF13 JUMPI PUSH1 0x40 MLOAD PUSH3 0x461BCD PUSH1 0xE5 SHL DUP2 MSTORE PUSH1 0x20 PUSH1 0x4 DUP3 ADD MSTORE PUSH1 0x21 PUSH1 0x24 DUP3 ADD MSTORE PUSH32 0x4552433732313A20617070726F76616C20746F2063757272656E74206F776E65 PUSH1 0x44 DUP3 ADD MSTORE PUSH1 0x39 PUSH1 0xF9 SHL PUSH1 0x64 DUP3 ADD MSTORE PUSH1 0x84 ADD PUSH2 0xE75 JUMP JUMPDEST CALLER PUSH1 0x1 PUSH1 0x1 PUSH1 0xA0 SHL SUB DUP3 AND EQ DUP1 PUSH2 0xF2F JUMPI POP PUSH2 0xF2F DUP2 CALLER PUSH2 0xC6D JUMP JUMPDEST PUSH2 0xFA1 JUMPI PUSH1 0x40 MLOAD PUSH3 0x461BCD PUSH1 0xE5 SHL DUP2 MSTORE PUSH1 0x20 PUSH1 0x4 DUP3 ADD MSTORE PUSH1 0x38 PUSH1 0x24 DUP3 ADD MSTORE PUSH32 0x4552433732313A20617070726F76652063616C6C6572206973206E6F74206F77 PUSH1 0x44 DUP3 ADD MSTORE PUSH32 0x6E6572206E6F7220617070726F76656420666F7220616C6C0000000000000000 PUSH1 0x64 DUP3 ADD MSTORE PUSH1 0x84 ADD PUSH2 0xE75 JUMP JUMPDEST PUSH2 0xFAB DUP4 DUP4 PUSH2 0x36B3 JUMP JUMPDEST POP POP POP JUMP JUMPDEST PUSH1 0x0 DUP2 DUP2 MSTORE PUSH1 0x29 PUSH1 0x20 MSTORE PUSH1 0x40 SWAP1 KECCAK256 SLOAD PUSH1 0x1 PUSH1 0x1 PUSH1 0xA0 SHL SUB AND CALLER EQ PUSH2 0x1016 JUMPI PUSH1 0x40 MLOAD PUSH3 0x461BCD PUSH1 0xE5 SHL DUP2 MSTORE PUSH1 0x20 PUSH1 0x4 DUP3 ADD MSTORE PUSH1 0x1A PUSH1 0x24 DUP3 ADD MSTORE PUSH32 0x796F7520617265206E6F74206F726967696E616C206F776E6572000000000000 PUSH1 0x44 DUP3 ADD MSTORE PUSH1 0x64 ADD PUSH2 0xE75 JUMP JUMPDEST PUSH1 0x0 DUP2 DUP2 MSTORE PUSH1 0x15 PUSH1 0x20 MSTORE PUSH1 0x40 DUP2 KECCAK256 SWAP1 DUP2 SSTORE PUSH1 0x1 ADD DUP1 SLOAD PUSH1 0xFF NOT AND SWAP1 SSTORE PUSH2 0x103D ADDRESS CALLER DUP4 PUSH2 0x3721 JUMP JUMPDEST PUSH1 0x0 DUP2 DUP2 MSTORE PUSH1 0x1D PUSH1 0x20 MSTORE PUSH1 0x40 SWAP1 KECCAK256 SLOAD PUSH1 0x1B DUP1 SLOAD SWAP1 SWAP2 SWAP1 DUP2 LT PUSH2 0x1061 JUMPI PUSH2 0x1061 PUSH2 0x4C88 JUMP JUMPDEST PUSH1 0x0 SWAP2 DUP3 MSTORE PUSH1 0x20 DUP3 KECCAK256 ADD SSTORE POP JUMP JUMPDEST PUSH1 0x1 JUMPDEST DUP3 DUP2 GT PUSH2 0x119A JUMPI PUSH1 0x1 PUSH1 0xE PUSH1 0x0 DUP3 DUP3 SLOAD PUSH2 0x108C SWAP2 SWAP1 PUSH2 0x4CB4 JUMP JUMPDEST SWAP1 SWAP2 SSTORE POP POP PUSH1 0x0 DUP11 DUP2 MSTORE PUSH1 0x16 PUSH1 0x20 SWAP1 DUP2 MSTORE PUSH1 0x40 DUP1 DUP4 KECCAK256 PUSH1 0xE SLOAD DUP2 SLOAD PUSH1 0x1 DUP2 DUP2 ADD DUP5 SSTORE SWAP3 DUP7 MSTORE DUP5 DUP7 KECCAK256 ADD SSTORE DUP14 DUP5 MSTORE PUSH1 0x1A SWAP1 SWAP3 MSTORE DUP3 KECCAK256 DUP1 SLOAD TIMESTAMP SWAP4 SWAP1 PUSH2 0x10D0 SWAP1 DUP5 SWAP1 PUSH2 0x4CB4 JUMP JUMPDEST SWAP1 SWAP2 SSTORE POP POP PUSH1 0x0 DUP12 DUP2 MSTORE PUSH1 0x1A PUSH1 0x20 MSTORE PUSH1 0x40 SWAP1 KECCAK256 SLOAD PUSH2 0x10F0 SWAP1 PUSH1 0x1 SWAP1 PUSH2 0x4CCC JUMP JUMPDEST PUSH1 0x0 DUP13 DUP2 MSTORE PUSH1 0x1F PUSH1 0x20 SWAP1 DUP2 MSTORE PUSH1 0x40 DUP1 DUP4 KECCAK256 PUSH1 0xE DUP1 SLOAD DUP6 MSTORE SWAP1 DUP4 MSTORE DUP2 DUP5 KECCAK256 SWAP5 SWAP1 SWAP5 SSTORE DUP4 SLOAD DUP4 MSTORE PUSH1 0x22 DUP3 MSTORE DUP1 DUP4 KECCAK256 DUP16 SWAP1 SSTORE DUP4 SLOAD DUP4 MSTORE PUSH1 0x29 SWAP1 SWAP2 MSTORE SWAP1 KECCAK256 DUP1 SLOAD PUSH1 0x1 PUSH1 0x1 PUSH1 0xA0 SHL SUB NOT AND CALLER OR SWAP1 SSTORE SLOAD PUSH2 0x1175 SWAP1 DUP12 SWAP1 DUP12 DUP12 PUSH2 0x114C DUP4 PUSH2 0x3851 JUMP JUMPDEST PUSH1 0x40 MLOAD PUSH1 0x20 ADD PUSH2 0x115D SWAP3 SWAP2 SWAP1 PUSH2 0x4CE3 JUMP JUMPDEST PUSH1 0x40 MLOAD PUSH1 0x20 DUP2 DUP4 SUB SUB DUP2 MSTORE SWAP1 PUSH1 0x40 MSTORE DUP6 DUP13 DUP13 DUP13 PUSH2 0x395A JUMP JUMPDEST DUP3 ISZERO PUSH2 0x1187 JUMPI PUSH2 0x1187 PUSH1 0xE SLOAD DUP5 PUSH2 0x27CB JUMP JUMPDEST POP DUP1 PUSH2 0x1192 DUP2 PUSH2 0x4D21 JUMP JUMPDEST SWAP2 POP POP PUSH2 0x1072 JUMP JUMPDEST POP POP POP POP POP POP POP POP POP POP JUMP JUMPDEST PUSH1 0x14 SLOAD PUSH1 0x1 PUSH1 0x1 PUSH1 0xA0 SHL SUB AND CALLER EQ PUSH2 0x11D0 JUMPI PUSH1 0x40 MLOAD PUSH3 0x461BCD PUSH1 0xE5 SHL DUP2 MSTORE PUSH1 0x4 ADD PUSH2 0xE75 SWAP1 PUSH2 0x4D3C JUMP JUMPDEST PUSH1 0x0 SWAP1 DUP2 MSTORE PUSH1 0x28 PUSH1 0x20 MSTORE PUSH1 0x40 SWAP1 KECCAK256 DUP1 SLOAD PUSH1 0xFF NOT AND SWAP1 SSTORE JUMP JUMPDEST PUSH1 0x0 DUP2 DUP2 MSTORE PUSH1 0x6 PUSH1 0x20 MSTORE PUSH1 0x40 DUP2 KECCAK256 PUSH1 0x1 DUP2 ADD SLOAD PUSH1 0x4 DUP3 ADD SLOAD PUSH1 0x60 SWAP3 DUP5 SWAP3 DUP5 SWAP3 DUP5 SWAP3 DUP5 SWAP3 DUP4 SWAP3 DUP6 SWAP3 DUP4 SWAP3 DUP13 SWAP3 DUP4 SWAP3 SWAP2 SWAP1 PUSH1 0x2 DUP4 ADD SWAP1 PUSH1 0x3 DUP5 ADD PUSH2 0x1229 DUP7 PUSH2 0x2F9D JUMP JUMPDEST PUSH1 0x0 DUP9 DUP2 MSTORE PUSH1 0x22 PUSH1 0x20 MSTORE PUSH1 0x40 SWAP1 KECCAK256 SLOAD PUSH2 0x1241 DUP10 PUSH2 0x1D2C JUMP JUMPDEST DUP8 DUP1 SLOAD PUSH2 0x124D SWAP1 PUSH2 0x4C4D JUMP JUMPDEST DUP1 PUSH1 0x1F ADD PUSH1 0x20 DUP1 SWAP2 DIV MUL PUSH1 0x20 ADD PUSH1 0x40 MLOAD SWAP1 DUP2 ADD PUSH1 0x40 MSTORE DUP1 SWAP3 SWAP2 SWAP1 DUP2 DUP2 MSTORE PUSH1 0x20 ADD DUP3 DUP1 SLOAD PUSH2 0x1279 SWAP1 PUSH2 0x4C4D JUMP JUMPDEST DUP1 ISZERO PUSH2 0x12C6 JUMPI DUP1 PUSH1 0x1F LT PUSH2 0x129B JUMPI PUSH2 0x100 DUP1 DUP4 SLOAD DIV MUL DUP4 MSTORE SWAP2 PUSH1 0x20 ADD SWAP2 PUSH2 0x12C6 JUMP JUMPDEST DUP3 ADD SWAP2 SWAP1 PUSH1 0x0 MSTORE PUSH1 0x20 PUSH1 0x0 KECCAK256 SWAP1 JUMPDEST DUP2 SLOAD DUP2 MSTORE SWAP1 PUSH1 0x1 ADD SWAP1 PUSH1 0x20 ADD DUP1 DUP4 GT PUSH2 0x12A9 JUMPI DUP3 SWAP1 SUB PUSH1 0x1F AND DUP3 ADD SWAP2 JUMPDEST POP POP POP POP POP SWAP8 POP DUP6 DUP1 SLOAD PUSH2 0x12D9 SWAP1 PUSH2 0x4C4D JUMP JUMPDEST DUP1 PUSH1 0x1F ADD PUSH1 0x20 DUP1 SWAP2 DIV MUL PUSH1 0x20 ADD PUSH1 0x40 MLOAD SWAP1 DUP2 ADD PUSH1 0x40 MSTORE DUP1 SWAP3 SWAP2 SWAP1 DUP2 DUP2 MSTORE PUSH1 0x20 ADD DUP3 DUP1 SLOAD PUSH2 0x1305 SWAP1 PUSH2 0x4C4D JUMP JUMPDEST DUP1 ISZERO PUSH2 0x1352 JUMPI DUP1 PUSH1 0x1F LT PUSH2 0x1327 JUMPI PUSH2 0x100 DUP1 DUP4 SLOAD DIV MUL DUP4 MSTORE SWAP2 PUSH1 0x20 ADD SWAP2 PUSH2 0x1352 JUMP JUMPDEST DUP3 ADD SWAP2 SWAP1 PUSH1 0x0 MSTORE PUSH1 0x20 PUSH1 0x0 KECCAK256 SWAP1 JUMPDEST DUP2 SLOAD DUP2 MSTORE SWAP1 PUSH1 0x1 ADD SWAP1 PUSH1 0x20 ADD DUP1 DUP4 GT PUSH2 0x1335 JUMPI DUP3 SWAP1 SUB PUSH1 0x1F AND DUP3 ADD SWAP2 JUMPDEST POP POP POP POP POP SWAP6 POP DUP4 DUP1 SLOAD PUSH2 0x1365 SWAP1 PUSH2 0x4C4D JUMP JUMPDEST DUP1 PUSH1 0x1F ADD PUSH1 0x20 DUP1 SWAP2 DIV MUL PUSH1 0x20 ADD PUSH1 0x40 MLOAD SWAP1 DUP2 ADD PUSH1 0x40 MSTORE DUP1 SWAP3 SWAP2 SWAP1 DUP2 DUP2 MSTORE PUSH1 0x20 ADD DUP3 DUP1 SLOAD PUSH2 0x1391 SWAP1 PUSH2 0x4C4D JUMP JUMPDEST DUP1 ISZERO PUSH2 0x13DE JUMPI DUP1 PUSH1 0x1F LT PUSH2 0x13B3 JUMPI PUSH2 0x100 DUP1 DUP4 SLOAD DIV MUL DUP4 MSTORE SWAP2 PUSH1 0x20 ADD SWAP2 PUSH2 0x13DE JUMP JUMPDEST DUP3 ADD SWAP2 SWAP1 PUSH1 0x0 MSTORE PUSH1 0x20 PUSH1 0x0 KECCAK256 SWAP1 JUMPDEST DUP2 SLOAD DUP2 MSTORE SWAP1 PUSH1 0x1 ADD SWAP1 PUSH1 0x20 ADD DUP1 DUP4 GT PUSH2 0x13C1 JUMPI DUP3 SWAP1 SUB PUSH1 0x1F AND DUP3 ADD SWAP2 JUMPDEST POP POP POP POP POP SWAP4 POP SWAP10 POP SWAP10 POP SWAP10 POP SWAP10 POP SWAP10 POP SWAP10 POP SWAP10 POP SWAP10 POP SWAP10 POP POP SWAP2 SWAP4 SWAP6 SWAP8 SWAP10 SWAP1 SWAP3 SWAP5 SWAP7 SWAP9 POP JUMP JUMPDEST PUSH1 0xC SLOAD PUSH1 0x1 PUSH1 0x1 PUSH1 0xA0 SHL SUB AND CALLER EQ PUSH2 0x142F JUMPI PUSH1 0x40 MLOAD PUSH3 0x461BCD PUSH1 0xE5 SHL DUP2 MSTORE PUSH1 0x4 ADD PUSH2 0xE75 SWAP1 PUSH2 0x4D67 JUMP JUMPDEST PUSH1 0xC DUP1 SLOAD PUSH1 0x1 PUSH1 0x1 PUSH1 0xA0 SHL SUB NOT AND PUSH1 0x1 PUSH1 0x1 PUSH1 0xA0 SHL SUB SWAP3 SWAP1 SWAP3 AND SWAP2 SWAP1 SWAP2 OR SWAP1 SSTORE JUMP JUMPDEST PUSH1 0xC SLOAD PUSH1 0x1 PUSH1 0x1 PUSH1 0xA0 SHL SUB AND CALLER EQ PUSH2 0x147B JUMPI PUSH1 0x40 MLOAD PUSH3 0x461BCD PUSH1 0xE5 SHL DUP2 MSTORE PUSH1 0x4 ADD PUSH2 0xE75 SWAP1 PUSH2 0x4D67 JUMP JUMPDEST PUSH1 0x0 DUP3 DUP2 MSTORE PUSH1 0x16 PUSH1 0x20 SWAP1 DUP2 MSTORE PUSH1 0x40 DUP1 DUP4 KECCAK256 PUSH1 0x1F DUP4 MSTORE DUP2 DUP5 KECCAK256 DUP6 DUP6 MSTORE SWAP1 SWAP3 MSTORE SWAP1 SWAP2 KECCAK256 SLOAD DUP2 SLOAD DUP2 LT PUSH2 0x14AD JUMPI PUSH2 0x14AD PUSH2 0x4C88 JUMP JUMPDEST PUSH1 0x0 SWAP2 DUP3 MSTORE PUSH1 0x20 DUP1 DUP4 KECCAK256 SWAP1 SWAP2 ADD DUP3 SWAP1 SSTORE DUP3 DUP3 MSTORE PUSH1 0x29 SWAP1 MSTORE PUSH1 0x40 DUP2 KECCAK256 DUP1 SLOAD PUSH1 0x1 PUSH1 0x1 PUSH1 0xA0 SHL SUB NOT AND SWAP1 SSTORE PUSH1 0x24 PUSH2 0x14E1 DUP4 PUSH2 0x2F9D JUMP JUMPDEST PUSH1 0x40 MLOAD PUSH2 0x14EE SWAP2 SWAP1 PUSH2 0x4D8E JUMP JUMPDEST SWAP1 DUP2 MSTORE PUSH1 0x40 MLOAD SWAP1 DUP2 SWAP1 SUB PUSH1 0x20 ADD SWAP1 KECCAK256 DUP1 SLOAD SWAP2 ISZERO ISZERO PUSH1 0xFF NOT SWAP1 SWAP3 AND SWAP2 SWAP1 SWAP2 OR SWAP1 SSTORE PUSH2 0x1517 DUP2 PUSH2 0x39E7 JUMP JUMPDEST POP POP JUMP JUMPDEST PUSH2 0x1525 CALLER DUP3 PUSH2 0x3A8E JUMP JUMPDEST PUSH2 0x1541 JUMPI PUSH1 0x40 MLOAD PUSH3 0x461BCD PUSH1 0xE5 SHL DUP2 MSTORE PUSH1 0x4 ADD PUSH2 0xE75 SWAP1 PUSH2 0x4DAA JUMP JUMPDEST PUSH2 0xFAB DUP4 DUP4 DUP4 PUSH2 0x3721 JUMP JUMPDEST PUSH1 0x0 DUP2 DUP2 MSTORE PUSH1 0x20 DUP1 MSTORE PUSH1 0x40 DUP2 KECCAK256 SLOAD TIMESTAMP LT ISZERO PUSH2 0x1579 JUMPI PUSH1 0x40 MLOAD PUSH3 0x461BCD PUSH1 0xE5 SHL DUP2 MSTORE PUSH1 0x4 ADD PUSH2 0xE75 SWAP1 PUSH2 0x4DFB JUMP JUMPDEST PUSH1 0x0 DUP3 DUP2 MSTORE PUSH1 0x23 PUSH1 0x20 MSTORE PUSH1 0x40 SWAP1 KECCAK256 SLOAD PUSH1 0x1 PUSH1 0x1 PUSH1 0xA0 SHL SUB AND ISZERO PUSH2 0x159E JUMPI POP PUSH1 0x1 SWAP2 SWAP1 POP JUMP JUMPDEST SWAP2 SWAP1 POP JUMP JUMPDEST PUSH1 0x0 PUSH2 0x15AE DUP4 PUSH2 0x226B JUMP JUMPDEST DUP3 LT PUSH2 0x1610 JUMPI PUSH1 0x40 MLOAD PUSH3 0x461BCD PUSH1 0xE5 SHL DUP2 MSTORE PUSH1 0x20 PUSH1 0x4 DUP3 ADD MSTORE PUSH1 0x2B PUSH1 0x24 DUP3 ADD MSTORE PUSH32 0x455243373231456E756D657261626C653A206F776E657220696E646578206F75 PUSH1 0x44 DUP3 ADD MSTORE PUSH11 0x74206F6620626F756E6473 PUSH1 0xA8 SHL PUSH1 0x64 DUP3 ADD MSTORE PUSH1 0x84 ADD PUSH2 0xE75 JUMP JUMPDEST POP PUSH1 0x1 PUSH1 0x1 PUSH1 0xA0 SHL SUB SWAP2 SWAP1 SWAP2 AND PUSH1 0x0 SWAP1 DUP2 MSTORE PUSH1 0x8 PUSH1 0x20 SWAP1 DUP2 MSTORE PUSH1 0x40 DUP1 DUP4 KECCAK256 SWAP4 DUP4 MSTORE SWAP3 SWAP1 MSTORE KECCAK256 SLOAD SWAP1 JUMP JUMPDEST PUSH1 0x0 DUP2 DUP2 MSTORE PUSH1 0x15 PUSH1 0x20 MSTORE PUSH1 0x40 SWAP1 KECCAK256 PUSH1 0x1 ADD SLOAD PUSH1 0xFF AND PUSH2 0x166A JUMPI PUSH1 0x40 MLOAD PUSH3 0x461BCD PUSH1 0xE5 SHL DUP2 MSTORE PUSH1 0x4 ADD PUSH2 0xE75 SWAP1 PUSH2 0x4E20 JUMP JUMPDEST PUSH1 0x0 PUSH1 0x10 SLOAD PUSH1 0x64 PUSH2 0x167B SWAP2 SWAP1 PUSH2 0x4CCC JUMP JUMPDEST PUSH1 0x0 DUP4 DUP2 MSTORE PUSH1 0x15 PUSH1 0x20 MSTORE PUSH1 0x40 SWAP1 KECCAK256 SLOAD SWAP1 SWAP2 POP CALLVALUE SWAP1 DUP2 LT ISZERO PUSH2 0x16DE JUMPI PUSH1 0x40 MLOAD PUSH3 0x461BCD PUSH1 0xE5 SHL DUP2 MSTORE PUSH1 0x20 PUSH1 0x4 DUP3 ADD MSTORE PUSH1 0x17 PUSH1 0x24 DUP3 ADD MSTORE PUSH32 0x70726963652073686F756C642062652067726561746572000000000000000000 PUSH1 0x44 DUP3 ADD MSTORE PUSH1 0x64 ADD PUSH2 0xE75 JUMP JUMPDEST PUSH1 0x0 PUSH1 0x64 PUSH2 0x16EC DUP5 DUP5 PUSH2 0x4E49 JUMP JUMPDEST PUSH2 0x16F6 SWAP2 SWAP1 PUSH2 0x4E7E JUMP JUMPDEST SWAP1 POP PUSH1 0x0 PUSH2 0x1704 DUP3 DUP5 PUSH2 0x4CCC JUMP JUMPDEST PUSH1 0x0 DUP7 DUP2 MSTORE PUSH1 0x29 PUSH1 0x20 MSTORE PUSH1 0x40 DUP1 DUP3 KECCAK256 SLOAD SWAP1 MLOAD SWAP3 SWAP4 POP PUSH1 0x1 PUSH1 0x1 PUSH1 0xA0 SHL SUB AND SWAP2 DUP3 SWAP1 DUP6 SWAP1 DUP4 DUP2 DUP2 DUP2 DUP6 DUP8 GAS CALL SWAP3 POP POP POP RETURNDATASIZE DUP1 PUSH1 0x0 DUP2 EQ PUSH2 0x175F JUMPI PUSH1 0x40 MLOAD SWAP2 POP PUSH1 0x1F NOT PUSH1 0x3F RETURNDATASIZE ADD AND DUP3 ADD PUSH1 0x40 MSTORE RETURNDATASIZE DUP3 MSTORE RETURNDATASIZE PUSH1 0x0 PUSH1 0x20 DUP5 ADD RETURNDATACOPY PUSH2 0x1764 JUMP JUMPDEST PUSH1 0x60 SWAP2 POP JUMPDEST POP POP SWAP1 POP DUP1 PUSH2 0x1785 JUMPI PUSH1 0x40 MLOAD PUSH3 0x461BCD PUSH1 0xE5 SHL DUP2 MSTORE PUSH1 0x4 ADD PUSH2 0xE75 SWAP1 PUSH2 0x4E92 JUMP JUMPDEST PUSH1 0xD SLOAD PUSH1 0x40 MLOAD PUSH1 0x0 SWAP2 PUSH1 0x1 PUSH1 0x1 PUSH1 0xA0 SHL SUB AND SWAP1 DUP6 SWAP1 DUP4 DUP2 DUP2 DUP2 DUP6 DUP8 GAS CALL SWAP3 POP POP POP RETURNDATASIZE DUP1 PUSH1 0x0 DUP2 EQ PUSH2 0x17D2 JUMPI PUSH1 0x40 MLOAD SWAP2 POP PUSH1 0x1F NOT PUSH1 0x3F RETURNDATASIZE ADD AND DUP3 ADD PUSH1 0x40 MSTORE RETURNDATASIZE DUP3 MSTORE RETURNDATASIZE PUSH1 0x0 PUSH1 0x20 DUP5 ADD RETURNDATACOPY PUSH2 0x17D7 JUMP JUMPDEST PUSH1 0x60 SWAP2 POP JUMPDEST POP POP SWAP1 POP DUP1 PUSH2 0x17F8 JUMPI PUSH1 0x40 MLOAD PUSH3 0x461BCD PUSH1 0xE5 SHL DUP2 MSTORE PUSH1 0x4 ADD PUSH2 0xE75 SWAP1 PUSH2 0x4E92 JUMP JUMPDEST PUSH2 0x1803 ADDRESS CALLER DUP11 PUSH2 0x3721 JUMP JUMPDEST PUSH1 0x0 DUP9 DUP2 MSTORE PUSH1 0x6 PUSH1 0x20 MSTORE PUSH1 0x40 SWAP1 KECCAK256 TIMESTAMP PUSH1 0x1 SWAP1 SWAP2 ADD SSTORE PUSH2 0x1822 DUP10 DUP10 PUSH2 0x3B81 JUMP JUMPDEST POP POP POP POP POP POP POP POP POP JUMP JUMPDEST PUSH2 0xFAB DUP4 DUP4 DUP4 PUSH1 0x40 MLOAD DUP1 PUSH1 0x20 ADD PUSH1 0x40 MSTORE DUP1 PUSH1 0x0 DUP2 MSTORE POP PUSH2 0x2B09 JUMP JUMPDEST PUSH1 0x0 DUP1 PUSH1 0x60 DUP1 PUSH1 0x60 DUP1 PUSH1 0x60 PUSH1 0x0 DUP1 PUSH1 0x17 PUSH1 0x0 DUP12 DUP2 MSTORE PUSH1 0x20 ADD SWAP1 DUP2 MSTORE PUSH1 0x20 ADD PUSH1 0x0 KECCAK256 PUSH1 0x1 ADD DUP1 SLOAD PUSH2 0x1877 SWAP1 PUSH2 0x4C4D JUMP JUMPDEST DUP1 PUSH1 0x1F ADD PUSH1 0x20 DUP1 SWAP2 DIV MUL PUSH1 0x20 ADD PUSH1 0x40 MLOAD SWAP1 DUP2 ADD PUSH1 0x40 MSTORE DUP1 SWAP3 SWAP2 SWAP1 DUP2 DUP2 MSTORE PUSH1 0x20 ADD DUP3 DUP1 SLOAD PUSH2 0x18A3 SWAP1 PUSH2 0x4C4D JUMP JUMPDEST DUP1 ISZERO PUSH2 0x18F0 JUMPI DUP1 PUSH1 0x1F LT PUSH2 0x18C5 JUMPI PUSH2 0x100 DUP1 DUP4 SLOAD DIV MUL DUP4 MSTORE SWAP2 PUSH1 0x20 ADD SWAP2 PUSH2 0x18F0 JUMP JUMPDEST DUP3 ADD SWAP2 SWAP1 PUSH1 0x0 MSTORE PUSH1 0x20 PUSH1 0x0 KECCAK256 SWAP1 JUMPDEST DUP2 SLOAD DUP2 MSTORE SWAP1 PUSH1 0x1 ADD SWAP1 PUSH1 0x20 ADD DUP1 DUP4 GT PUSH2 0x18D3 JUMPI DUP3 SWAP1 SUB PUSH1 0x1F AND DUP3 ADD SWAP2 JUMPDEST POP POP POP POP POP SWAP1 POP PUSH1 0x0 PUSH1 0x17 PUSH1 0x0 DUP13 DUP2 MSTORE PUSH1 0x20 ADD SWAP1 DUP2 MSTORE PUSH1 0x20 ADD PUSH1 0x0 KECCAK256 PUSH1 0x2 ADD DUP1 SLOAD PUSH2 0x191A SWAP1 PUSH2 0x4C4D JUMP JUMPDEST DUP1 PUSH1 0x1F ADD PUSH1 0x20 DUP1 SWAP2 DIV MUL PUSH1 0x20 ADD PUSH1 0x40 MLOAD SWAP1 DUP2 ADD PUSH1 0x40 MSTORE DUP1 SWAP3 SWAP2 SWAP1 DUP2 DUP2 MSTORE PUSH1 0x20 ADD DUP3 DUP1 SLOAD PUSH2 0x1946 SWAP1 PUSH2 0x4C4D JUMP JUMPDEST DUP1 ISZERO PUSH2 0x1993 JUMPI DUP1 PUSH1 0x1F LT PUSH2 0x1968 JUMPI PUSH2 0x100 DUP1 DUP4 SLOAD DIV MUL DUP4 MSTORE SWAP2 PUSH1 0x20 ADD SWAP2 PUSH2 0x1993 JUMP JUMPDEST DUP3 ADD SWAP2 SWAP1 PUSH1 0x0 MSTORE PUSH1 0x20 PUSH1 0x0 KECCAK256 SWAP1 JUMPDEST DUP2 SLOAD DUP2 MSTORE SWAP1 PUSH1 0x1 ADD SWAP1 PUSH1 0x20 ADD DUP1 DUP4 GT PUSH2 0x1976 JUMPI DUP3 SWAP1 SUB PUSH1 0x1F AND DUP3 ADD SWAP2 JUMPDEST POP POP POP POP POP SWAP1 POP PUSH1 0x0 PUSH1 0x17 PUSH1 0x0 DUP14 DUP2 MSTORE PUSH1 0x20 ADD SWAP1 DUP2 MSTORE PUSH1 0x20 ADD PUSH1 0x0 KECCAK256 PUSH1 0x3 ADD DUP1 SLOAD PUSH2 0x19BD SWAP1 PUSH2 0x4C4D JUMP JUMPDEST DUP1 PUSH1 0x1F ADD PUSH1 0x20 DUP1 SWAP2 DIV MUL PUSH1 0x20 ADD PUSH1 0x40 MLOAD SWAP1 DUP2 ADD PUSH1 0x40 MSTORE DUP1 SWAP3 SWAP2 SWAP1 DUP2 DUP2 MSTORE PUSH1 0x20 ADD DUP3 DUP1 SLOAD PUSH2 0x19E9 SWAP1 PUSH2 0x4C4D JUMP JUMPDEST DUP1 ISZERO PUSH2 0x1A36 JUMPI DUP1 PUSH1 0x1F LT PUSH2 0x1A0B JUMPI PUSH2 0x100 DUP1 DUP4 SLOAD DIV MUL DUP4 MSTORE SWAP2 PUSH1 0x20 ADD SWAP2 PUSH2 0x1A36 JUMP JUMPDEST DUP3 ADD SWAP2 SWAP1 PUSH1 0x0 MSTORE PUSH1 0x20 PUSH1 0x0 KECCAK256 SWAP1 JUMPDEST DUP2 SLOAD DUP2 MSTORE SWAP1 PUSH1 0x1 ADD SWAP1 PUSH1 0x20 ADD DUP1 DUP4 GT PUSH2 0x1A19 JUMPI DUP3 SWAP1 SUB PUSH1 0x1F AND DUP3 ADD SWAP2 JUMPDEST POP POP POP POP POP SWAP1 POP PUSH1 0x0 PUSH1 0x17 PUSH1 0x0 DUP15 DUP2 MSTORE PUSH1 0x20 ADD SWAP1 DUP2 MSTORE PUSH1 0x20 ADD PUSH1 0x0 KECCAK256 PUSH1 0x4 ADD DUP1 SLOAD PUSH2 0x1A60 SWAP1 PUSH2 0x4C4D JUMP JUMPDEST DUP1 PUSH1 0x1F ADD PUSH1 0x20 DUP1 SWAP2 DIV MUL PUSH1 0x20 ADD PUSH1 0x40 MLOAD SWAP1 DUP2 ADD PUSH1 0x40 MSTORE DUP1 SWAP3 SWAP2 SWAP1 DUP2 DUP2 MSTORE PUSH1 0x20 ADD DUP3 DUP1 SLOAD PUSH2 0x1A8C SWAP1 PUSH2 0x4C4D JUMP JUMPDEST DUP1 ISZERO PUSH2 0x1AD9 JUMPI DUP1 PUSH1 0x1F LT PUSH2 0x1AAE JUMPI PUSH2 0x100 DUP1 DUP4 SLOAD DIV MUL DUP4 MSTORE SWAP2 PUSH1 0x20 ADD SWAP2 PUSH2 0x1AD9 JUMP JUMPDEST DUP3 ADD SWAP2 SWAP1 PUSH1 0x0 MSTORE PUSH1 0x20 PUSH1 0x0 KECCAK256 SWAP1 JUMPDEST DUP2 SLOAD DUP2 MSTORE SWAP1 PUSH1 0x1 ADD SWAP1 PUSH1 0x20 ADD DUP1 DUP4 GT PUSH2 0x1ABC JUMPI DUP3 SWAP1 SUB PUSH1 0x1F AND DUP3 ADD SWAP2 JUMPDEST POP POP POP POP POP SWAP1 POP PUSH1 0x0 PUSH1 0x17 PUSH1 0x0 DUP16 DUP2 MSTORE PUSH1 0x20 ADD SWAP1 DUP2 MSTORE PUSH1 0x20 ADD PUSH1 0x0 KECCAK256 PUSH1 0x5 ADD DUP1 SLOAD PUSH2 0x1B03 SWAP1 PUSH2 0x4C4D JUMP JUMPDEST DUP1 PUSH1 0x1F ADD PUSH1 0x20 DUP1 SWAP2 DIV MUL PUSH1 0x20 ADD PUSH1 0x40 MLOAD SWAP1 DUP2 ADD PUSH1 0x40 MSTORE DUP1 SWAP3 SWAP2 SWAP1 DUP2 DUP2 MSTORE PUSH1 0x20 ADD DUP3 DUP1 SLOAD PUSH2 0x1B2F SWAP1 PUSH2 0x4C4D JUMP JUMPDEST DUP1 ISZERO PUSH2 0x1B7C JUMPI DUP1 PUSH1 0x1F LT PUSH2 0x1B51 JUMPI PUSH2 0x100 DUP1 DUP4 SLOAD DIV MUL DUP4 MSTORE SWAP2 PUSH1 0x20 ADD SWAP2 PUSH2 0x1B7C JUMP JUMPDEST DUP3 ADD SWAP2 SWAP1 PUSH1 0x0 MSTORE PUSH1 0x20 PUSH1 0x0 KECCAK256 SWAP1 JUMPDEST DUP2 SLOAD DUP2 MSTORE SWAP1 PUSH1 0x1 ADD SWAP1 PUSH1 0x20 ADD DUP1 DUP4 GT PUSH2 0x1B5F JUMPI DUP3 SWAP1 SUB PUSH1 0x1F AND DUP3 ADD SWAP2 JUMPDEST POP POP POP POP POP SWAP1 POP PUSH1 0x0 DUP15 SWAP1 POP PUSH1 0x0 PUSH1 0x17 PUSH1 0x0 DUP4 DUP2 MSTORE PUSH1 0x20 ADD SWAP1 DUP2 MSTORE PUSH1 0x20 ADD PUSH1 0x0 KECCAK256 PUSH1 0x6 ADD SLOAD SWAP1 POP PUSH1 0x0 PUSH1 0x17 PUSH1 0x0 DUP5 DUP2 MSTORE PUSH1 0x20 ADD SWAP1 DUP2 MSTORE PUSH1 0x20 ADD PUSH1 0x0 KECCAK256 PUSH1 0x0 ADD PUSH1 0x0 SWAP1 SLOAD SWAP1 PUSH2 0x100 EXP SWAP1 DIV PUSH1 0x1 PUSH1 0x1 PUSH1 0xA0 SHL SUB AND SWAP1 POP DUP3 DUP2 DUP10 DUP10 DUP10 DUP10 DUP10 DUP9 SWAP16 POP SWAP16 POP SWAP16 POP SWAP16 POP SWAP16 POP SWAP16 POP SWAP16 POP SWAP16 POP POP POP POP POP POP POP POP POP SWAP2 SWAP4 SWAP6 SWAP8 POP SWAP2 SWAP4 SWAP6 SWAP8 JUMP JUMPDEST PUSH1 0x0 PUSH2 0x1C07 PUSH1 0xA SLOAD SWAP1 JUMP JUMPDEST DUP3 LT PUSH2 0x1C6A JUMPI PUSH1 0x40 MLOAD PUSH3 0x461BCD PUSH1 0xE5 SHL DUP2 MSTORE PUSH1 0x20 PUSH1 0x4 DUP3 ADD MSTORE PUSH1 0x2C PUSH1 0x24 DUP3 ADD MSTORE PUSH32 0x455243373231456E756D657261626C653A20676C6F62616C20696E646578206F PUSH1 0x44 DUP3 ADD MSTORE PUSH12 0x7574206F6620626F756E6473 PUSH1 0xA0 SHL PUSH1 0x64 DUP3 ADD MSTORE PUSH1 0x84 ADD PUSH2 0xE75 JUMP JUMPDEST PUSH1 0xA DUP3 DUP2 SLOAD DUP2 LT PUSH2 0x1C7D JUMPI PUSH2 0x1C7D PUSH2 0x4C88 JUMP JUMPDEST SWAP1 PUSH1 0x0 MSTORE PUSH1 0x20 PUSH1 0x0 KECCAK256 ADD SLOAD SWAP1 POP SWAP2 SWAP1 POP JUMP JUMPDEST PUSH1 0xC SLOAD PUSH1 0x1 PUSH1 0x1 PUSH1 0xA0 SHL SUB AND CALLER EQ PUSH2 0x1CB9 JUMPI PUSH1 0x40 MLOAD PUSH3 0x461BCD PUSH1 0xE5 SHL DUP2 MSTORE PUSH1 0x4 ADD PUSH2 0xE75 SWAP1 PUSH2 0x4D67 JUMP JUMPDEST DUP1 MLOAD PUSH2 0x1517 SWAP1 PUSH1 0x2A SWAP1 PUSH1 0x20 DUP5 ADD SWAP1 PUSH2 0x4394 JUMP JUMPDEST PUSH1 0x18 PUSH1 0x20 MSTORE DUP2 PUSH1 0x0 MSTORE PUSH1 0x40 PUSH1 0x0 KECCAK256 DUP2 DUP2 SLOAD DUP2 LT PUSH2 0x1CE8 JUMPI PUSH1 0x0 DUP1 REVERT JUMPDEST SWAP1 PUSH1 0x0 MSTORE PUSH1 0x20 PUSH1 0x0 KECCAK256 ADD PUSH1 0x0 SWAP2 POP SWAP2 POP POP SLOAD DUP2 JUMP JUMPDEST PUSH1 0xC SLOAD PUSH1 0x1 PUSH1 0x1 PUSH1 0xA0 SHL SUB AND CALLER EQ PUSH2 0x1D27 JUMPI PUSH1 0x40 MLOAD PUSH3 0x461BCD PUSH1 0xE5 SHL DUP2 MSTORE PUSH1 0x4 ADD PUSH2 0xE75 SWAP1 PUSH2 0x4D67 JUMP JUMPDEST PUSH1 0x12 SSTORE JUMP JUMPDEST PUSH1 0x0 DUP2 DUP2 MSTORE PUSH1 0x2 PUSH1 0x20 MSTORE PUSH1 0x40 DUP2 KECCAK256 SLOAD PUSH1 0x1 PUSH1 0x1 PUSH1 0xA0 SHL SUB AND DUP1 PUSH2 0xD68 JUMPI PUSH1 0x40 MLOAD PUSH3 0x461BCD PUSH1 0xE5 SHL DUP2 MSTORE PUSH1 0x20 PUSH1 0x4 DUP3 ADD MSTORE PUSH1 0x29 PUSH1 0x24 DUP3 ADD MSTORE PUSH32 0x4552433732313A206F776E657220717565727920666F72206E6F6E6578697374 PUSH1 0x44 DUP3 ADD MSTORE PUSH9 0x32B73A103A37B5B2B7 PUSH1 0xB9 SHL PUSH1 0x64 DUP3 ADD MSTORE PUSH1 0x84 ADD PUSH2 0xE75 JUMP JUMPDEST PUSH1 0x0 DUP2 DUP2 MSTORE PUSH1 0x20 DUP1 DUP1 MSTORE PUSH1 0x40 DUP1 DUP4 KECCAK256 PUSH1 0x1 ADD SLOAD PUSH1 0x15 DUP4 MSTORE DUP2 DUP5 KECCAK256 SLOAD PUSH1 0x1B DUP1 SLOAD DUP5 MLOAD DUP2 DUP8 MUL DUP2 ADD DUP8 ADD SWAP1 SWAP6 MSTORE DUP1 DUP6 MSTORE PUSH1 0x60 SWAP7 DUP8 SWAP7 SWAP1 SWAP6 DUP7 SWAP6 SWAP4 SWAP5 PUSH1 0x1C SWAP5 SWAP4 SWAP1 SWAP3 DUP7 SWAP2 SWAP1 DUP4 ADD DUP3 DUP3 DUP1 ISZERO PUSH2 0x1E14 JUMPI PUSH1 0x20 MUL DUP3 ADD SWAP2 SWAP1 PUSH1 0x0 MSTORE PUSH1 0x20 PUSH1 0x0 KECCAK256 SWAP1 JUMPDEST DUP2 SLOAD DUP2 MSTORE PUSH1 0x20 ADD SWAP1 PUSH1 0x1 ADD SWAP1 DUP1 DUP4 GT PUSH2 0x1E00 JUMPI JUMPDEST POP POP POP POP POP SWAP4 POP DUP3 DUP1 SLOAD DUP1 PUSH1 0x20 MUL PUSH1 0x20 ADD PUSH1 0x40 MLOAD SWAP1 DUP2 ADD PUSH1 0x40 MSTORE DUP1 SWAP3 SWAP2 SWAP1 DUP2 DUP2 MSTORE PUSH1 0x20 ADD DUP3 DUP1 SLOAD DUP1 ISZERO PUSH2 0x1E66 JUMPI PUSH1 0x20 MUL DUP3 ADD SWAP2 SWAP1 PUSH1 0x0 MSTORE PUSH1 0x20 PUSH1 0x0 KECCAK256 SWAP1 JUMPDEST DUP2 SLOAD DUP2 MSTORE PUSH1 0x20 ADD SWAP1 PUSH1 0x1 ADD SWAP1 DUP1 DUP4 GT PUSH2 0x1E52 JUMPI JUMPDEST POP POP POP POP POP SWAP3 POP SWAP4 POP SWAP4 POP SWAP4 POP SWAP4 POP SWAP2 SWAP4 POP SWAP2 SWAP4 JUMP JUMPDEST PUSH1 0x0 DUP3 DUP2 MSTORE PUSH1 0x20 DUP1 MSTORE PUSH1 0x40 SWAP1 KECCAK256 SLOAD TIMESTAMP GT ISZERO PUSH2 0x1EA9 JUMPI PUSH1 0x40 MLOAD PUSH3 0x461BCD PUSH1 0xE5 SHL DUP2 MSTORE PUSH1 0x4 ADD PUSH2 0xE75 SWAP1 PUSH2 0x4DFB JUMP JUMPDEST PUSH1 0x0 PUSH1 0x11 SLOAD PUSH1 0x64 PUSH2 0x1EBA SWAP2 SWAP1 PUSH2 0x4CCC JUMP JUMPDEST SWAP1 POP DUP2 ISZERO PUSH2 0x1FB7 JUMPI PUSH1 0x0 DUP4 DUP2 MSTORE PUSH1 0x21 PUSH1 0x20 SWAP1 DUP2 MSTORE PUSH1 0x40 DUP1 DUP4 KECCAK256 CALLER DUP5 MSTORE SWAP1 SWAP2 MSTORE DUP2 KECCAK256 DUP1 SLOAD CALLVALUE SWAP3 SWAP1 PUSH2 0x1EEB SWAP1 DUP5 SWAP1 PUSH2 0x4CB4 JUMP JUMPDEST SWAP1 SWAP2 SSTORE POP POP PUSH1 0x0 DUP4 DUP2 MSTORE PUSH1 0x20 DUP1 DUP1 MSTORE PUSH1 0x40 DUP1 DUP4 KECCAK256 PUSH1 0x3 ADD SLOAD PUSH1 0x21 DUP4 MSTORE DUP2 DUP5 KECCAK256 CALLER DUP6 MSTORE SWAP1 SWAP3 MSTORE SWAP1 SWAP2 KECCAK256 SLOAD GT ISZERO PUSH2 0xFAB JUMPI PUSH1 0x0 DUP4 DUP2 MSTORE PUSH1 0x20 DUP1 DUP1 MSTORE PUSH1 0x40 DUP1 DUP4 KECCAK256 CALLVALUE PUSH1 0x3 SWAP1 SWAP2 ADD DUP2 SWAP1 SSTORE PUSH1 0x23 SWAP1 SWAP3 MSTORE DUP1 DUP4 KECCAK256 DUP1 SLOAD PUSH1 0x1 PUSH1 0x1 PUSH1 0xA0 SHL SUB NOT AND CALLER OR SWAP1 SSTORE MLOAD SWAP1 SWAP2 SWAP1 ADDRESS SWAP1 DUP4 SWAP1 DUP4 DUP2 DUP2 DUP2 DUP6 DUP8 GAS CALL SWAP3 POP POP POP RETURNDATASIZE DUP1 PUSH1 0x0 DUP2 EQ PUSH2 0x1F8A JUMPI PUSH1 0x40 MLOAD SWAP2 POP PUSH1 0x1F NOT PUSH1 0x3F RETURNDATASIZE ADD AND DUP3 ADD PUSH1 0x40 MSTORE RETURNDATASIZE DUP3 MSTORE RETURNDATASIZE PUSH1 0x0 PUSH1 0x20 DUP5 ADD RETURNDATACOPY PUSH2 0x1F8F JUMP JUMPDEST PUSH1 0x60 SWAP2 POP JUMPDEST POP POP SWAP1 POP DUP1 PUSH2 0x1FB0 JUMPI PUSH1 0x40 MLOAD PUSH3 0x461BCD PUSH1 0xE5 SHL DUP2 MSTORE PUSH1 0x4 ADD PUSH2 0xE75 SWAP1 PUSH2 0x4E92 JUMP JUMPDEST POP POP POP POP POP JUMP JUMPDEST PUSH1 0x0 DUP4 DUP2 MSTORE PUSH1 0x23 PUSH1 0x20 MSTORE PUSH1 0x40 SWAP1 KECCAK256 SLOAD PUSH1 0x1 PUSH1 0x1 PUSH1 0xA0 SHL SUB AND CALLER EQ PUSH2 0xFAB JUMPI PUSH1 0x0 DUP4 DUP2 MSTORE PUSH1 0x21 PUSH1 0x20 SWAP1 DUP2 MSTORE PUSH1 0x40 DUP1 DUP4 KECCAK256 CALLER DUP5 MSTORE SWAP1 SWAP2 MSTORE SWAP1 KECCAK256 SLOAD PUSH2 0x202C JUMPI PUSH1 0x40 MLOAD PUSH3 0x461BCD PUSH1 0xE5 SHL DUP2 MSTORE PUSH1 0x20 PUSH1 0x4 DUP3 ADD MSTORE PUSH1 0xE PUSH1 0x24 DUP3 ADD MSTORE PUSH14 0x596F7520646F6E7420616C6C6F77 PUSH1 0x90 SHL PUSH1 0x44 DUP3 ADD MSTORE PUSH1 0x64 ADD PUSH2 0xE75 JUMP JUMPDEST PUSH1 0x0 DUP4 DUP2 MSTORE PUSH1 0x21 PUSH1 0x20 SWAP1 DUP2 MSTORE PUSH1 0x40 DUP1 DUP4 KECCAK256 CALLER DUP5 MSTORE SWAP1 SWAP2 MSTORE DUP2 KECCAK256 SLOAD SWAP1 PUSH1 0x64 PUSH2 0x2053 DUP5 DUP5 PUSH2 0x4E49 JUMP JUMPDEST PUSH2 0x205D SWAP2 SWAP1 PUSH2 0x4E7E JUMP JUMPDEST SWAP1 POP PUSH1 0x0 PUSH1 0x64 PUSH1 0x11 SLOAD DUP5 PUSH2 0x2071 SWAP2 SWAP1 PUSH2 0x4E49 JUMP JUMPDEST PUSH2 0x207B SWAP2 SWAP1 PUSH2 0x4E7E JUMP JUMPDEST PUSH1 0x40 MLOAD SWAP1 SWAP2 POP PUSH1 0x0 SWAP1 CALLER SWAP1 DUP5 SWAP1 DUP4 DUP2 DUP2 DUP2 DUP6 DUP8 GAS CALL SWAP3 POP POP POP RETURNDATASIZE DUP1 PUSH1 0x0 DUP2 EQ PUSH2 0x20C0 JUMPI PUSH1 0x40 MLOAD SWAP2 POP PUSH1 0x1F NOT PUSH1 0x3F RETURNDATASIZE ADD AND DUP3 ADD PUSH1 0x40 MSTORE RETURNDATASIZE DUP3 MSTORE RETURNDATASIZE PUSH1 0x0 PUSH1 0x20 DUP5 ADD RETURNDATACOPY PUSH2 0x20C5 JUMP JUMPDEST PUSH1 0x60 SWAP2 POP JUMPDEST POP POP SWAP1 POP DUP1 PUSH2 0x20E6 JUMPI PUSH1 0x40 MLOAD PUSH3 0x461BCD PUSH1 0xE5 SHL DUP2 MSTORE PUSH1 0x4 ADD PUSH2 0xE75 SWAP1 PUSH2 0x4E92 JUMP JUMPDEST PUSH1 0xD SLOAD PUSH1 0x40 MLOAD PUSH1 0x0 SWAP2 PUSH1 0x1 PUSH1 0x1 PUSH1 0xA0 SHL SUB AND SWAP1 DUP5 SWAP1 DUP4 DUP2 DUP2 DUP2 DUP6 DUP8 GAS CALL SWAP3 POP POP POP RETURNDATASIZE DUP1 PUSH1 0x0 DUP2 EQ PUSH2 0x2133 JUMPI PUSH1 0x40 MLOAD SWAP2 POP PUSH1 0x1F NOT PUSH1 0x3F RETURNDATASIZE ADD AND DUP3 ADD PUSH1 0x40 MSTORE RETURNDATASIZE DUP3 MSTORE RETURNDATASIZE PUSH1 0x0 PUSH1 0x20 DUP5 ADD RETURNDATACOPY PUSH2 0x2138 JUMP JUMPDEST PUSH1 0x60 SWAP2 POP JUMPDEST POP POP SWAP1 POP DUP1 PUSH2 0x2159 JUMPI PUSH1 0x40 MLOAD PUSH3 0x461BCD PUSH1 0xE5 SHL DUP2 MSTORE PUSH1 0x4 ADD PUSH2 0xE75 SWAP1 PUSH2 0x4E92 JUMP JUMPDEST POP POP POP PUSH1 0x0 DUP6 DUP2 MSTORE PUSH1 0x21 PUSH1 0x20 SWAP1 DUP2 MSTORE PUSH1 0x40 DUP1 DUP4 KECCAK256 CALLER DUP5 MSTORE SWAP1 SWAP2 MSTORE DUP2 KECCAK256 SSTORE POP POP POP POP POP JUMP JUMPDEST CALLER PUSH1 0x0 SWAP1 DUP2 MSTORE PUSH1 0x18 PUSH1 0x20 SWAP1 DUP2 MSTORE PUSH1 0x40 SWAP2 DUP3 SWAP1 KECCAK256 DUP1 SLOAD DUP4 MLOAD DUP2 DUP5 MUL DUP2 ADD DUP5 ADD SWAP1 SWAP5 MSTORE DUP1 DUP5 MSTORE PUSH1 0x60 SWAP4 SWAP3 DUP4 ADD DUP3 DUP3 DUP1 ISZERO PUSH2 0xDF6 JUMPI PUSH1 0x20 MUL DUP3 ADD SWAP2 SWAP1 PUSH1 0x0 MSTORE PUSH1 0x20 PUSH1 0x0 KECCAK256 SWAP1 JUMPDEST DUP2 SLOAD DUP2 MSTORE PUSH1 0x20 ADD SWAP1 PUSH1 0x1 ADD SWAP1 DUP1 DUP4 GT PUSH2 0x21C0 JUMPI POP POP POP POP POP SWAP1 POP SWAP1 JUMP JUMPDEST PUSH1 0x2A DUP1 SLOAD PUSH2 0x21EA SWAP1 PUSH2 0x4C4D JUMP JUMPDEST DUP1 PUSH1 0x1F ADD PUSH1 0x20 DUP1 SWAP2 DIV MUL PUSH1 0x20 ADD PUSH1 0x40 MLOAD SWAP1 DUP2 ADD PUSH1 0x40 MSTORE DUP1 SWAP3 SWAP2 SWAP1 DUP2 DUP2 MSTORE PUSH1 0x20 ADD DUP3 DUP1 SLOAD PUSH2 0x2216 SWAP1 PUSH2 0x4C4D JUMP JUMPDEST DUP1 ISZERO PUSH2 0x2263 JUMPI DUP1 PUSH1 0x1F LT PUSH2 0x2238 JUMPI PUSH2 0x100 DUP1 DUP4 SLOAD DIV MUL DUP4 MSTORE SWAP2 PUSH1 0x20 ADD SWAP2 PUSH2 0x2263 JUMP JUMPDEST DUP3 ADD SWAP2 SWAP1 PUSH1 0x0 MSTORE PUSH1 0x20 PUSH1 0x0 KECCAK256 SWAP1 JUMPDEST DUP2 SLOAD DUP2 MSTORE SWAP1 PUSH1 0x1 ADD SWAP1 PUSH1 0x20 ADD DUP1 DUP4 GT PUSH2 0x2246 JUMPI DUP3 SWAP1 SUB PUSH1 0x1F AND DUP3 ADD SWAP2 JUMPDEST POP POP POP POP POP DUP2 JUMP JUMPDEST PUSH1 0x0 PUSH1 0x1 PUSH1 0x1 PUSH1 0xA0 SHL SUB DUP3 AND PUSH2 0x22D6 JUMPI PUSH1 0x40 MLOAD PUSH3 0x461BCD PUSH1 0xE5 SHL DUP2 MSTORE PUSH1 0x20 PUSH1 0x4 DUP3 ADD MSTORE PUSH1 0x2A PUSH1 0x24 DUP3 ADD MSTORE PUSH32 0x4552433732313A2062616C616E636520717565727920666F7220746865207A65 PUSH1 0x44 DUP3 ADD MSTORE PUSH10 0x726F2061646472657373 PUSH1 0xB0 SHL PUSH1 0x64 DUP3 ADD MSTORE PUSH1 0x84 ADD PUSH2 0xE75 JUMP JUMPDEST POP PUSH1 0x1 PUSH1 0x1 PUSH1 0xA0 SHL SUB AND PUSH1 0x0 SWAP1 DUP2 MSTORE PUSH1 0x3 PUSH1 0x20 MSTORE PUSH1 0x40 SWAP1 KECCAK256 SLOAD SWAP1 JUMP JUMPDEST PUSH1 0x0 DUP2 DUP2 MSTORE PUSH1 0x20 DUP1 MSTORE PUSH1 0x40 DUP2 KECCAK256 SLOAD TIMESTAMP GT PUSH2 0x231F JUMPI PUSH1 0x0 DUP3 DUP2 MSTORE PUSH1 0x20 DUP1 MSTORE PUSH1 0x40 SWAP1 KECCAK256 SLOAD PUSH2 0xD68 SWAP1 TIMESTAMP SWAP1 PUSH2 0x4CCC JUMP JUMPDEST POP PUSH1 0x0 SWAP2 SWAP1 POP JUMP JUMPDEST PUSH1 0x0 DUP5 DUP2 MSTORE PUSH1 0x28 PUSH1 0x20 MSTORE PUSH1 0x40 SWAP1 KECCAK256 SLOAD PUSH1 0xFF AND ISZERO PUSH2 0x2375 JUMPI PUSH1 0x40 MLOAD PUSH3 0x461BCD PUSH1 0xE5 SHL DUP2 MSTORE PUSH1 0x20 PUSH1 0x4 DUP3 ADD MSTORE PUSH1 0xC PUSH1 0x24 DUP3 ADD MSTORE PUSH12 0x6E6674206973207374616B65 PUSH1 0xA0 SHL PUSH1 0x44 DUP3 ADD MSTORE PUSH1 0x64 ADD PUSH2 0xE75 JUMP JUMPDEST PUSH1 0x0 DUP5 DUP2 MSTORE PUSH1 0x20 DUP1 MSTORE PUSH1 0x40 SWAP1 KECCAK256 PUSH1 0x2 ADD SLOAD PUSH1 0xFF AND ISZERO PUSH2 0x23A6 JUMPI PUSH1 0x40 MLOAD PUSH3 0x461BCD PUSH1 0xE5 SHL DUP2 MSTORE PUSH1 0x4 ADD PUSH2 0xE75 SWAP1 PUSH2 0x4EB9 JUMP JUMPDEST PUSH1 0x0 DUP5 DUP2 MSTORE PUSH1 0x15 PUSH1 0x20 MSTORE PUSH1 0x40 SWAP1 KECCAK256 PUSH1 0x1 ADD SLOAD PUSH1 0xFF AND ISZERO PUSH2 0x23D8 JUMPI PUSH1 0x40 MLOAD PUSH3 0x461BCD PUSH1 0xE5 SHL DUP2 MSTORE PUSH1 0x4 ADD PUSH2 0xE75 SWAP1 PUSH2 0x4EB9 JUMP JUMPDEST CALLER PUSH2 0x23E2 DUP6 PUSH2 0x1D2C JUMP JUMPDEST PUSH1 0x1 PUSH1 0x1 PUSH1 0xA0 SHL SUB AND EQ PUSH2 0x2408 JUMPI PUSH1 0x40 MLOAD PUSH3 0x461BCD PUSH1 0xE5 SHL DUP2 MSTORE PUSH1 0x4 ADD PUSH2 0xE75 SWAP1 PUSH2 0x4D3C JUMP JUMPDEST PUSH2 0x2414 PUSH2 0xE10 DUP3 PUSH2 0x4E49 JUMP JUMPDEST PUSH2 0x2421 PUSH3 0x15180 DUP5 PUSH2 0x4E49 JUMP JUMPDEST PUSH2 0x242B SWAP1 TIMESTAMP PUSH2 0x4CB4 JUMP JUMPDEST PUSH2 0x2435 SWAP2 SWAP1 PUSH2 0x4CB4 JUMP JUMPDEST PUSH1 0x0 DUP6 DUP2 MSTORE PUSH1 0x20 DUP1 DUP1 MSTORE PUSH1 0x40 DUP1 DUP4 KECCAK256 SWAP4 DUP5 SSTORE PUSH1 0x1 DUP1 DUP6 ADD DUP9 SWAP1 SSTORE PUSH1 0x2 SWAP1 SWAP5 ADD DUP1 SLOAD PUSH1 0xFF NOT AND DUP6 OR SWAP1 SSTORE PUSH1 0x1C DUP1 SLOAD PUSH1 0x1E SWAP1 SWAP4 MSTORE SWAP1 DUP4 KECCAK256 DUP3 SWAP1 SSTORE SWAP3 DUP2 ADD DUP4 SSTORE SWAP2 DUP2 MSTORE PUSH32 0xE4562A10381DEC21B205ED72637E6B1B523BDD0E4D4D50AF5CD23DD4500A211 SWAP1 SWAP2 ADD DUP6 SWAP1 SSTORE PUSH2 0x24A5 DUP6 PUSH2 0x1D2C JUMP JUMPDEST SWAP1 POP PUSH2 0x1FB0 DUP2 ADDRESS DUP8 PUSH2 0x151B JUMP JUMPDEST PUSH1 0x0 DUP2 DUP2 MSTORE PUSH1 0x16 PUSH1 0x20 SWAP1 DUP2 MSTORE PUSH1 0x40 SWAP2 DUP3 SWAP1 KECCAK256 DUP1 SLOAD DUP4 MLOAD DUP2 DUP5 MUL DUP2 ADD DUP5 ADD SWAP1 SWAP5 MSTORE DUP1 DUP5 MSTORE PUSH1 0x60 SWAP4 SWAP3 DUP4 ADD DUP3 DUP3 DUP1 ISZERO PUSH2 0x2508 JUMPI PUSH1 0x20 MUL DUP3 ADD SWAP2 SWAP1 PUSH1 0x0 MSTORE PUSH1 0x20 PUSH1 0x0 KECCAK256 SWAP1 JUMPDEST DUP2 SLOAD DUP2 MSTORE PUSH1 0x20 ADD SWAP1 PUSH1 0x1 ADD SWAP1 DUP1 DUP4 GT PUSH2 0x24F4 JUMPI JUMPDEST POP POP POP POP POP SWAP1 POP SWAP2 SWAP1 POP JUMP JUMPDEST PUSH1 0xC SLOAD PUSH1 0x1 PUSH1 0x1 PUSH1 0xA0 SHL SUB AND CALLER EQ PUSH2 0x253E JUMPI PUSH1 0x40 MLOAD PUSH3 0x461BCD PUSH1 0xE5 SHL DUP2 MSTORE PUSH1 0x4 ADD PUSH2 0xE75 SWAP1 PUSH2 0x4D67 JUMP JUMPDEST PUSH1 0x11 SSTORE JUMP JUMPDEST PUSH1 0x0 DUP2 DUP2 MSTORE PUSH1 0x20 DUP1 MSTORE PUSH1 0x40 SWAP1 KECCAK256 PUSH1 0x2 ADD SLOAD PUSH1 0xFF AND PUSH2 0x2573 JUMPI PUSH1 0x40 MLOAD PUSH3 0x461BCD PUSH1 0xE5 SHL DUP2 MSTORE PUSH1 0x4 ADD PUSH2 0xE75 SWAP1 PUSH2 0x4E20 JUMP JUMPDEST PUSH1 0x0 DUP2 DUP2 MSTORE PUSH1 0x20 DUP1 MSTORE PUSH1 0x40 SWAP1 KECCAK256 PUSH1 0x1 ADD SLOAD CALLVALUE LT ISZERO PUSH2 0x25D3 JUMPI PUSH1 0x40 MLOAD PUSH3 0x461BCD PUSH1 0xE5 SHL DUP2 MSTORE PUSH1 0x20 PUSH1 0x4 DUP3 ADD MSTORE PUSH1 0x18 PUSH1 0x24 DUP3 ADD MSTORE PUSH32 0x616D6F756E742073686F756C6420626520677265617465720000000000000000 PUSH1 0x44 DUP3 ADD MSTORE PUSH1 0x64 ADD PUSH2 0xE75 JUMP JUMPDEST PUSH1 0x0 DUP2 DUP2 MSTORE PUSH1 0x20 DUP1 MSTORE PUSH1 0x40 SWAP1 KECCAK256 PUSH1 0x3 ADD SLOAD CALLVALUE GT PUSH2 0x2632 JUMPI PUSH1 0x40 MLOAD PUSH3 0x461BCD PUSH1 0xE5 SHL DUP2 MSTORE PUSH1 0x20 PUSH1 0x4 DUP3 ADD MSTORE PUSH1 0x17 PUSH1 0x24 DUP3 ADD MSTORE PUSH32 0x70726576696F75732062696464696E6720616D6F756E74000000000000000000 PUSH1 0x44 DUP3 ADD MSTORE PUSH1 0x64 ADD PUSH2 0xE75 JUMP JUMPDEST PUSH1 0x0 DUP2 DUP2 MSTORE PUSH1 0x20 DUP1 MSTORE PUSH1 0x40 SWAP1 KECCAK256 SLOAD TIMESTAMP GT ISZERO PUSH2 0x265F JUMPI PUSH1 0x40 MLOAD PUSH3 0x461BCD PUSH1 0xE5 SHL DUP2 MSTORE PUSH1 0x4 ADD PUSH2 0xE75 SWAP1 PUSH2 0x4DFB JUMP JUMPDEST PUSH1 0x0 DUP2 DUP2 MSTORE PUSH1 0x20 DUP1 DUP1 MSTORE PUSH1 0x40 DUP1 DUP4 KECCAK256 CALLVALUE PUSH1 0x3 SWAP1 SWAP2 ADD DUP2 SWAP1 SSTORE PUSH1 0x21 DUP4 MSTORE DUP2 DUP5 KECCAK256 CALLER DUP1 DUP7 MSTORE SWAP1 DUP5 MSTORE DUP3 DUP6 KECCAK256 DUP3 SWAP1 SSTORE DUP6 DUP6 MSTORE PUSH1 0x23 SWAP1 SWAP4 MSTORE DUP2 DUP5 KECCAK256 DUP1 SLOAD PUSH1 0x1 PUSH1 0x1 PUSH1 0xA0 SHL SUB NOT AND SWAP1 SWAP4 OR SWAP1 SWAP3 SSTORE MLOAD SWAP1 SWAP2 SWAP1 ADDRESS SWAP1 DUP4 SWAP1 DUP4 DUP2 DUP2 DUP2 DUP6 DUP8 GAS CALL SWAP3 POP POP POP RETURNDATASIZE DUP1 PUSH1 0x0 DUP2 EQ PUSH2 0x26E8 JUMPI PUSH1 0x40 MLOAD SWAP2 POP PUSH1 0x1F NOT PUSH1 0x3F RETURNDATASIZE ADD AND DUP3 ADD PUSH1 0x40 MSTORE RETURNDATASIZE DUP3 MSTORE RETURNDATASIZE PUSH1 0x0 PUSH1 0x20 DUP5 ADD RETURNDATACOPY PUSH2 0x26ED JUMP JUMPDEST PUSH1 0x60 SWAP2 POP JUMPDEST POP POP SWAP1 POP DUP1 PUSH2 0xFAB JUMPI PUSH1 0x40 MLOAD PUSH3 0x461BCD PUSH1 0xE5 SHL DUP2 MSTORE PUSH1 0x4 ADD PUSH2 0xE75 SWAP1 PUSH2 0x4E92 JUMP JUMPDEST PUSH1 0x60 PUSH1 0x1 DUP1 SLOAD PUSH2 0xD7D SWAP1 PUSH2 0x4C4D JUMP JUMPDEST PUSH1 0x0 DUP2 DUP2 MSTORE PUSH1 0x20 DUP1 MSTORE PUSH1 0x40 SWAP1 KECCAK256 PUSH1 0x2 ADD SLOAD PUSH1 0xFF AND ISZERO PUSH2 0x274E JUMPI PUSH1 0x40 MLOAD PUSH3 0x461BCD PUSH1 0xE5 SHL DUP2 MSTORE PUSH1 0x4 ADD PUSH2 0xE75 SWAP1 PUSH2 0x4EB9 JUMP JUMPDEST PUSH1 0x0 DUP2 DUP2 MSTORE PUSH1 0x15 PUSH1 0x20 MSTORE PUSH1 0x40 SWAP1 KECCAK256 PUSH1 0x1 ADD SLOAD PUSH1 0xFF AND ISZERO PUSH2 0x2780 JUMPI PUSH1 0x40 MLOAD PUSH3 0x461BCD PUSH1 0xE5 SHL DUP2 MSTORE PUSH1 0x4 ADD PUSH2 0xE75 SWAP1 PUSH2 0x4EB9 JUMP JUMPDEST CALLER PUSH2 0x278A DUP3 PUSH2 0x1D2C JUMP JUMPDEST PUSH1 0x1 PUSH1 0x1 PUSH1 0xA0 SHL SUB AND EQ PUSH2 0x27B0 JUMPI PUSH1 0x40 MLOAD PUSH3 0x461BCD PUSH1 0xE5 SHL DUP2 MSTORE PUSH1 0x4 ADD PUSH2 0xE75 SWAP1 PUSH2 0x4D3C JUMP JUMPDEST PUSH1 0x0 SWAP1 DUP2 MSTORE PUSH1 0x28 PUSH1 0x20 MSTORE PUSH1 0x40 SWAP1 KECCAK256 DUP1 SLOAD PUSH1 0xFF NOT AND PUSH1 0x1 OR SWAP1 SSTORE JUMP JUMPDEST PUSH1 0x0 DUP3 DUP2 MSTORE PUSH1 0x28 PUSH1 0x20 MSTORE PUSH1 0x40 SWAP1 KECCAK256 SLOAD PUSH1 0xFF AND ISZERO PUSH2 0x2819 JUMPI PUSH1 0x40 MLOAD PUSH3 0x461BCD PUSH1 0xE5 SHL DUP2 MSTORE PUSH1 0x20 PUSH1 0x4 DUP3 ADD MSTORE PUSH1 0xC PUSH1 0x24 DUP3 ADD MSTORE PUSH12 0x6E6674206973207374616B65 PUSH1 0xA0 SHL PUSH1 0x44 DUP3 ADD MSTORE PUSH1 0x64 ADD PUSH2 0xE75 JUMP JUMPDEST PUSH1 0x0 DUP3 DUP2 MSTORE PUSH1 0x20 DUP1 MSTORE PUSH1 0x40 SWAP1 KECCAK256 PUSH1 0x2 ADD SLOAD PUSH1 0xFF AND ISZERO PUSH2 0x284A JUMPI PUSH1 0x40 MLOAD PUSH3 0x461BCD PUSH1 0xE5 SHL DUP2 MSTORE PUSH1 0x4 ADD PUSH2 0xE75 SWAP1 PUSH2 0x4EB9 JUMP JUMPDEST PUSH1 0x0 DUP3 DUP2 MSTORE PUSH1 0x15 PUSH1 0x20 MSTORE PUSH1 0x40 SWAP1 KECCAK256 PUSH1 0x1 ADD SLOAD PUSH1 0xFF AND ISZERO PUSH2 0x287C JUMPI PUSH1 0x40 MLOAD PUSH3 0x461BCD PUSH1 0xE5 SHL DUP2 MSTORE PUSH1 0x4 ADD PUSH2 0xE75 SWAP1 PUSH2 0x4EB9 JUMP JUMPDEST CALLER PUSH2 0x2886 DUP4 PUSH2 0x1D2C JUMP JUMPDEST PUSH1 0x1 PUSH1 0x1 PUSH1 0xA0 SHL SUB AND EQ PUSH2 0x28AC JUMPI PUSH1 0x40 MLOAD PUSH3 0x461BCD PUSH1 0xE5 SHL DUP2 MSTORE PUSH1 0x4 ADD PUSH2 0xE75 SWAP1 PUSH2 0x4D3C JUMP JUMPDEST PUSH1 0x0 DUP3 DUP2 MSTORE PUSH1 0x15 PUSH1 0x20 SWAP1 DUP2 MSTORE PUSH1 0x40 DUP1 DUP4 KECCAK256 DUP5 DUP2 SSTORE PUSH1 0x1 SWAP1 DUP2 ADD DUP1 SLOAD PUSH1 0xFF NOT AND DUP3 OR SWAP1 SSTORE PUSH1 0x1B DUP1 SLOAD PUSH1 0x1D SWAP1 SWAP5 MSTORE SWAP2 DUP5 KECCAK256 DUP4 SWAP1 SSTORE DUP3 ADD DUP2 SSTORE DUP3 MSTORE PUSH32 0x3AD8AA4F87544323A9D1E5DD902F40C356527A7955687113DB5F9A85AD579DC1 ADD DUP4 SWAP1 SSTORE PUSH2 0x2912 DUP4 PUSH2 0x1D2C JUMP JUMPDEST SWAP1 POP PUSH2 0xFAB DUP2 ADDRESS DUP6 PUSH2 0x151B JUMP JUMPDEST PUSH1 0x0 DUP2 DUP2 MSTORE PUSH1 0x29 PUSH1 0x20 MSTORE PUSH1 0x40 SWAP1 KECCAK256 SLOAD PUSH1 0x1 PUSH1 0x1 PUSH1 0xA0 SHL SUB AND CALLER EQ PUSH2 0x2985 JUMPI PUSH1 0x40 MLOAD PUSH3 0x461BCD PUSH1 0xE5 SHL DUP2 MSTORE PUSH1 0x20 PUSH1 0x4 DUP3 ADD MSTORE PUSH1 0x19 PUSH1 0x24 DUP3 ADD MSTORE PUSH32 0x596F7520617265206E6F74206F726967696E616C6F776E657200000000000000 PUSH1 0x44 DUP3 ADD MSTORE PUSH1 0x64 ADD PUSH2 0xE75 JUMP JUMPDEST PUSH1 0x0 DUP2 DUP2 MSTORE PUSH1 0x20 DUP1 MSTORE PUSH1 0x40 DUP2 KECCAK256 PUSH1 0x1 DUP2 ADD DUP3 SWAP1 SSTORE PUSH1 0x3 DUP2 ADD DUP3 SWAP1 SSTORE PUSH1 0x2 DUP2 ADD DUP1 SLOAD PUSH1 0xFF NOT AND SWAP1 SSTORE SSTORE PUSH2 0x29B8 ADDRESS CALLER DUP4 PUSH2 0x3721 JUMP JUMPDEST PUSH1 0x0 DUP2 DUP2 MSTORE PUSH1 0x1E PUSH1 0x20 MSTORE PUSH1 0x40 SWAP1 KECCAK256 SLOAD PUSH1 0x1C DUP1 SLOAD SWAP1 SWAP2 SWAP1 DUP2 LT PUSH2 0x1061 JUMPI PUSH2 0x1061 PUSH2 0x4C88 JUMP JUMPDEST PUSH1 0x1 PUSH1 0x1 PUSH1 0xA0 SHL SUB DUP3 AND CALLER EQ ISZERO PUSH2 0x2A35 JUMPI PUSH1 0x40 MLOAD PUSH3 0x461BCD PUSH1 0xE5 SHL DUP2 MSTORE PUSH1 0x20 PUSH1 0x4 DUP3 ADD MSTORE PUSH1 0x19 PUSH1 0x24 DUP3 ADD MSTORE PUSH32 0x4552433732313A20617070726F766520746F2063616C6C657200000000000000 PUSH1 0x44 DUP3 ADD MSTORE PUSH1 0x64 ADD PUSH2 0xE75 JUMP JUMPDEST CALLER PUSH1 0x0 DUP2 DUP2 MSTORE PUSH1 0x5 PUSH1 0x20 SWAP1 DUP2 MSTORE PUSH1 0x40 DUP1 DUP4 KECCAK256 PUSH1 0x1 PUSH1 0x1 PUSH1 0xA0 SHL SUB DUP8 AND DUP1 DUP6 MSTORE SWAP1 DUP4 MSTORE SWAP3 DUP2 SWAP1 KECCAK256 DUP1 SLOAD PUSH1 0xFF NOT AND DUP7 ISZERO ISZERO SWAP1 DUP2 OR SWAP1 SWAP2 SSTORE SWAP1 MLOAD SWAP1 DUP2 MSTORE SWAP2 SWAP3 SWAP2 PUSH32 0x17307EAB39AB6107E8899845AD3D59BD9653F200F220920489CA2B5937696C31 SWAP2 ADD PUSH1 0x40 MLOAD DUP1 SWAP2 SUB SWAP1 LOG3 POP POP JUMP JUMPDEST PUSH1 0xC SLOAD PUSH1 0x1 PUSH1 0x1 PUSH1 0xA0 SHL SUB AND CALLER EQ PUSH2 0x2ACB JUMPI PUSH1 0x40 MLOAD PUSH3 0x461BCD PUSH1 0xE5 SHL DUP2 MSTORE PUSH1 0x4 ADD PUSH2 0xE75 SWAP1 PUSH2 0x4D67 JUMP JUMPDEST PUSH1 0xD DUP1 SLOAD PUSH1 0x1 PUSH1 0x1 PUSH1 0xA0 SHL SUB NOT AND PUSH1 0x1 PUSH1 0x1 PUSH1 0xA0 SHL SUB SWAP3 SWAP1 SWAP3 AND SWAP2 SWAP1 SWAP2 OR SWAP1 SSTORE JUMP JUMPDEST PUSH1 0x16 PUSH1 0x20 MSTORE DUP2 PUSH1 0x0 MSTORE PUSH1 0x40 PUSH1 0x0 KECCAK256 DUP2 DUP2 SLOAD DUP2 LT PUSH2 0x1CE8 JUMPI PUSH1 0x0 DUP1 REVERT JUMPDEST PUSH2 0x2B13 CALLER DUP4 PUSH2 0x3A8E JUMP JUMPDEST PUSH2 0x2B2F JUMPI PUSH1 0x40 MLOAD PUSH3 0x461BCD PUSH1 0xE5 SHL DUP2 MSTORE PUSH1 0x4 ADD PUSH2 0xE75 SWAP1 PUSH2 0x4DAA JUMP JUMPDEST PUSH2 0x2B3B DUP5 DUP5 DUP5 DUP5 PUSH2 0x3CC3 JUMP JUMPDEST POP POP POP POP JUMP JUMPDEST PUSH1 0x13 SLOAD PUSH1 0x1 PUSH1 0x1 PUSH1 0xA0 SHL SUB AND CALLER EQ PUSH2 0x2B87 JUMPI PUSH1 0x40 MLOAD PUSH3 0x461BCD PUSH1 0xE5 SHL DUP2 MSTORE PUSH1 0x20 PUSH1 0x4 DUP3 ADD MSTORE PUSH1 0x9 PUSH1 0x24 DUP3 ADD MSTORE PUSH9 0x3737BA1037BBB732B9 PUSH1 0xB9 SHL PUSH1 0x44 DUP3 ADD MSTORE PUSH1 0x64 ADD PUSH2 0xE75 JUMP JUMPDEST PUSH1 0x13 DUP1 SLOAD PUSH1 0x1 PUSH1 0x1 PUSH1 0xA0 SHL SUB NOT AND PUSH1 0x1 PUSH1 0x1 PUSH1 0xA0 SHL SUB SWAP3 SWAP1 SWAP3 AND SWAP2 SWAP1 SWAP2 OR SWAP1 SSTORE JUMP JUMPDEST PUSH1 0xC SLOAD PUSH1 0x1 PUSH1 0x1 PUSH1 0xA0 SHL SUB AND CALLER EQ PUSH2 0x2BD3 JUMPI PUSH1 0x40 MLOAD PUSH3 0x461BCD PUSH1 0xE5 SHL DUP2 MSTORE PUSH1 0x4 ADD PUSH2 0xE75 SWAP1 PUSH2 0x4D67 JUMP JUMPDEST PUSH1 0x14 DUP1 SLOAD PUSH1 0x1 PUSH1 0x1 PUSH1 0xA0 SHL SUB NOT AND PUSH1 0x1 PUSH1 0x1 PUSH1 0xA0 SHL SUB SWAP3 SWAP1 SWAP3 AND SWAP2 SWAP1 SWAP2 OR SWAP1 SSTORE JUMP JUMPDEST PUSH1 0x0 DUP2 DUP2 MSTORE PUSH1 0x20 DUP1 MSTORE PUSH1 0x40 SWAP1 KECCAK256 PUSH1 0x2 ADD SLOAD PUSH1 0xFF AND PUSH2 0x2C25 JUMPI PUSH1 0x40 MLOAD PUSH3 0x461BCD PUSH1 0xE5 SHL DUP2 MSTORE PUSH1 0x4 ADD PUSH2 0xE75 SWAP1 PUSH2 0x4E20 JUMP JUMPDEST PUSH1 0x0 DUP2 DUP2 MSTORE PUSH1 0x20 DUP1 MSTORE PUSH1 0x40 SWAP1 KECCAK256 SLOAD TIMESTAMP GT PUSH2 0x2C73 JUMPI PUSH1 0x40 MLOAD PUSH3 0x461BCD PUSH1 0xE5 SHL DUP2 MSTORE PUSH1 0x20 PUSH1 0x4 DUP3 ADD MSTORE PUSH1 0xF PUSH1 0x24 DUP3 ADD MSTORE PUSH15 0x185D58DD1A5BDB881B9BDD08195B99 PUSH1 0x8A SHL PUSH1 0x44 DUP3 ADD MSTORE PUSH1 0x64 ADD PUSH2 0xE75 JUMP JUMPDEST PUSH1 0x0 PUSH1 0x10 SLOAD PUSH1 0x64 PUSH2 0x2C84 SWAP2 SWAP1 PUSH2 0x4CCC JUMP JUMPDEST PUSH1 0x0 DUP4 DUP2 MSTORE PUSH1 0x23 PUSH1 0x20 MSTORE PUSH1 0x40 SWAP1 KECCAK256 SLOAD SWAP1 SWAP2 POP PUSH1 0x1 PUSH1 0x1 PUSH1 0xA0 SHL SUB AND CALLER EQ ISZERO PUSH2 0x2DF5 JUMPI PUSH1 0x0 DUP3 DUP2 MSTORE PUSH1 0x20 DUP1 MSTORE PUSH1 0x40 DUP2 KECCAK256 PUSH1 0x3 ADD SLOAD SWAP1 PUSH1 0x64 PUSH2 0x2CC4 DUP5 DUP5 PUSH2 0x4E49 JUMP JUMPDEST PUSH2 0x2CCE SWAP2 SWAP1 PUSH2 0x4E7E JUMP JUMPDEST SWAP1 POP PUSH1 0x0 PUSH1 0x64 PUSH1 0x10 SLOAD DUP5 PUSH2 0x2CE2 SWAP2 SWAP1 PUSH2 0x4E49 JUMP JUMPDEST PUSH2 0x2CEC SWAP2 SWAP1 PUSH2 0x4E7E JUMP JUMPDEST PUSH1 0x0 DUP7 DUP2 MSTORE PUSH1 0x29 PUSH1 0x20 MSTORE PUSH1 0x40 DUP1 DUP3 KECCAK256 SLOAD SWAP1 MLOAD SWAP3 SWAP4 POP PUSH1 0x1 PUSH1 0x1 PUSH1 0xA0 SHL SUB AND SWAP2 DUP3 SWAP1 DUP6 SWAP1 DUP4 DUP2 DUP2 DUP2 DUP6 DUP8 GAS CALL SWAP3 POP POP POP RETURNDATASIZE DUP1 PUSH1 0x0 DUP2 EQ PUSH2 0x2D47 JUMPI PUSH1 0x40 MLOAD SWAP2 POP PUSH1 0x1F NOT PUSH1 0x3F RETURNDATASIZE ADD AND DUP3 ADD PUSH1 0x40 MSTORE RETURNDATASIZE DUP3 MSTORE RETURNDATASIZE PUSH1 0x0 PUSH1 0x20 DUP5 ADD RETURNDATACOPY PUSH2 0x2D4C JUMP JUMPDEST PUSH1 0x60 SWAP2 POP JUMPDEST POP POP SWAP1 POP DUP1 PUSH2 0x2D6D JUMPI PUSH1 0x40 MLOAD PUSH3 0x461BCD PUSH1 0xE5 SHL DUP2 MSTORE PUSH1 0x4 ADD PUSH2 0xE75 SWAP1 PUSH2 0x4E92 JUMP JUMPDEST PUSH1 0xD SLOAD PUSH1 0x40 MLOAD PUSH1 0x0 SWAP2 PUSH1 0x1 PUSH1 0x1 PUSH1 0xA0 SHL SUB AND SWAP1 DUP6 SWAP1 DUP4 DUP2 DUP2 DUP2 DUP6 DUP8 GAS CALL SWAP3 POP POP POP RETURNDATASIZE DUP1 PUSH1 0x0 DUP2 EQ PUSH2 0x2DBA JUMPI PUSH1 0x40 MLOAD SWAP2 POP PUSH1 0x1F NOT PUSH1 0x3F RETURNDATASIZE ADD AND DUP3 ADD PUSH1 0x40 MSTORE RETURNDATASIZE DUP3 MSTORE RETURNDATASIZE PUSH1 0x0 PUSH1 0x20 DUP5 ADD RETURNDATACOPY PUSH2 0x2DBF JUMP JUMPDEST PUSH1 0x60 SWAP2 POP JUMPDEST POP POP SWAP1 POP DUP1 PUSH2 0x2DE0 JUMPI PUSH1 0x40 MLOAD PUSH3 0x461BCD PUSH1 0xE5 SHL DUP2 MSTORE PUSH1 0x4 ADD PUSH2 0xE75 SWAP1 PUSH2 0x4E92 JUMP JUMPDEST PUSH2 0x2DEB ADDRESS CALLER DUP11 PUSH2 0x3721 JUMP JUMPDEST PUSH2 0x1822 DUP10 DUP10 PUSH2 0x3CF6 JUMP JUMPDEST PUSH1 0x0 DUP3 DUP2 MSTORE PUSH1 0x21 PUSH1 0x20 SWAP1 DUP2 MSTORE PUSH1 0x40 DUP1 DUP4 KECCAK256 CALLER DUP5 MSTORE SWAP1 SWAP2 MSTORE SWAP1 KECCAK256 SLOAD PUSH2 0x2E4C JUMPI PUSH1 0x40 MLOAD PUSH3 0x461BCD PUSH1 0xE5 SHL DUP2 MSTORE PUSH1 0x20 PUSH1 0x4 DUP3 ADD MSTORE PUSH1 0xE PUSH1 0x24 DUP3 ADD MSTORE PUSH14 0x596F7520646F6E7420616C6C6F77 PUSH1 0x90 SHL PUSH1 0x44 DUP3 ADD MSTORE PUSH1 0x64 ADD PUSH2 0xE75 JUMP JUMPDEST PUSH1 0x0 DUP3 DUP2 MSTORE PUSH1 0x21 PUSH1 0x20 SWAP1 DUP2 MSTORE PUSH1 0x40 DUP1 DUP4 KECCAK256 CALLER DUP5 MSTORE SWAP1 SWAP2 MSTORE DUP2 KECCAK256 SLOAD SWAP1 PUSH1 0x64 PUSH2 0x2E73 DUP5 DUP5 PUSH2 0x4E49 JUMP JUMPDEST PUSH2 0x2E7D SWAP2 SWAP1 PUSH2 0x4E7E JUMP JUMPDEST SWAP1 POP PUSH1 0x0 PUSH1 0x64 PUSH1 0x11 SLOAD DUP5 PUSH2 0x2E91 SWAP2 SWAP1 PUSH2 0x4E49 JUMP JUMPDEST PUSH2 0x2E9B SWAP2 SWAP1 PUSH2 0x4E7E JUMP JUMPDEST PUSH1 0x40 MLOAD SWAP1 SWAP2 POP PUSH1 0x0 SWAP1 CALLER SWAP1 DUP5 SWAP1 DUP4 DUP2 DUP2 DUP2 DUP6 DUP8 GAS CALL SWAP3 POP POP POP RETURNDATASIZE DUP1 PUSH1 0x0 DUP2 EQ PUSH2 0x2EE0 JUMPI PUSH1 0x40 MLOAD SWAP2 POP PUSH1 0x1F NOT PUSH1 0x3F RETURNDATASIZE ADD AND DUP3 ADD PUSH1 0x40 MSTORE RETURNDATASIZE DUP3 MSTORE RETURNDATASIZE PUSH1 0x0 PUSH1 0x20 DUP5 ADD RETURNDATACOPY PUSH2 0x2EE5 JUMP JUMPDEST PUSH1 0x60 SWAP2 POP JUMPDEST POP POP SWAP1 POP DUP1 PUSH2 0x2F06 JUMPI PUSH1 0x40 MLOAD PUSH3 0x461BCD PUSH1 0xE5 SHL DUP2 MSTORE PUSH1 0x4 ADD PUSH2 0xE75 SWAP1 PUSH2 0x4E92 JUMP JUMPDEST PUSH1 0xD SLOAD PUSH1 0x40 MLOAD PUSH1 0x0 SWAP2 PUSH1 0x1 PUSH1 0x1 PUSH1 0xA0 SHL SUB AND SWAP1 DUP5 SWAP1 DUP4 DUP2 DUP2 DUP2 DUP6 DUP8 GAS CALL SWAP3 POP POP POP RETURNDATASIZE DUP1 PUSH1 0x0 DUP2 EQ PUSH2 0x2F53 JUMPI PUSH1 0x40 MLOAD SWAP2 POP PUSH1 0x1F NOT PUSH1 0x3F RETURNDATASIZE ADD AND DUP3 ADD PUSH1 0x40 MSTORE RETURNDATASIZE DUP3 MSTORE RETURNDATASIZE PUSH1 0x0 PUSH1 0x20 DUP5 ADD RETURNDATACOPY PUSH2 0x2F58 JUMP JUMPDEST PUSH1 0x60 SWAP2 POP JUMPDEST POP POP SWAP1 POP DUP1 PUSH2 0x2F79 JUMPI PUSH1 0x40 MLOAD PUSH3 0x461BCD PUSH1 0xE5 SHL DUP2 MSTORE PUSH1 0x4 ADD PUSH2 0xE75 SWAP1 PUSH2 0x4E92 JUMP JUMPDEST POP POP POP PUSH1 0x0 DUP5 DUP2 MSTORE PUSH1 0x21 PUSH1 0x20 SWAP1 DUP2 MSTORE PUSH1 0x40 DUP1 DUP4 KECCAK256 CALLER DUP5 MSTORE SWAP1 SWAP2 MSTORE DUP2 KECCAK256 SSTORE POP POP POP POP POP JUMP JUMPDEST PUSH1 0x0 DUP2 DUP2 MSTORE PUSH1 0x2 PUSH1 0x20 MSTORE PUSH1 0x40 SWAP1 KECCAK256 SLOAD PUSH1 0x60 SWAP1 PUSH1 0x1 PUSH1 0x1 PUSH1 0xA0 SHL SUB AND PUSH2 0x301E JUMPI PUSH1 0x40 MLOAD PUSH3 0x461BCD PUSH1 0xE5 SHL DUP2 MSTORE PUSH1 0x20 PUSH1 0x4 DUP3 ADD MSTORE PUSH1 0x31 PUSH1 0x24 DUP3 ADD MSTORE PUSH32 0x45524337323155524953746F726167653A2055524920717565727920666F7220 PUSH1 0x44 DUP3 ADD MSTORE PUSH17 0x3737B732BC34B9BA32B73A103A37B5B2B7 PUSH1 0x79 SHL PUSH1 0x64 DUP3 ADD MSTORE PUSH1 0x84 ADD PUSH2 0xE75 JUMP JUMPDEST PUSH1 0x0 DUP3 DUP2 MSTORE PUSH1 0x7 PUSH1 0x20 MSTORE PUSH1 0x40 DUP2 KECCAK256 DUP1 SLOAD PUSH2 0x3037 SWAP1 PUSH2 0x4C4D JUMP JUMPDEST DUP1 PUSH1 0x1F ADD PUSH1 0x20 DUP1 SWAP2 DIV MUL PUSH1 0x20 ADD PUSH1 0x40 MLOAD SWAP1 DUP2 ADD PUSH1 0x40 MSTORE DUP1 SWAP3 SWAP2 SWAP1 DUP2 DUP2 MSTORE PUSH1 0x20 ADD DUP3 DUP1 SLOAD PUSH2 0x3063 SWAP1 PUSH2 0x4C4D JUMP JUMPDEST DUP1 ISZERO PUSH2 0x30B0 JUMPI DUP1 PUSH1 0x1F LT PUSH2 0x3085 JUMPI PUSH2 0x100 DUP1 DUP4 SLOAD DIV MUL DUP4 MSTORE SWAP2 PUSH1 0x20 ADD SWAP2 PUSH2 0x30B0 JUMP JUMPDEST DUP3 ADD SWAP2 SWAP1 PUSH1 0x0 MSTORE PUSH1 0x20 PUSH1 0x0 KECCAK256 SWAP1 JUMPDEST DUP2 SLOAD DUP2 MSTORE SWAP1 PUSH1 0x1 ADD SWAP1 PUSH1 0x20 ADD DUP1 DUP4 GT PUSH2 0x3093 JUMPI DUP3 SWAP1 SUB PUSH1 0x1F AND DUP3 ADD SWAP2 JUMPDEST POP POP POP POP POP SWAP1 POP PUSH1 0x0 PUSH2 0x30C1 PUSH2 0x3E48 JUMP JUMPDEST SWAP1 POP DUP1 MLOAD PUSH1 0x0 EQ ISZERO PUSH2 0x30D4 JUMPI POP SWAP3 SWAP2 POP POP JUMP JUMPDEST DUP2 MLOAD ISZERO PUSH2 0x3106 JUMPI DUP1 DUP3 PUSH1 0x40 MLOAD PUSH1 0x20 ADD PUSH2 0x30EE SWAP3 SWAP2 SWAP1 PUSH2 0x4EE2 JUMP JUMPDEST PUSH1 0x40 MLOAD PUSH1 0x20 DUP2 DUP4 SUB SUB DUP2 MSTORE SWAP1 PUSH1 0x40 MSTORE SWAP3 POP POP POP SWAP2 SWAP1 POP JUMP JUMPDEST PUSH2 0x310F DUP5 PUSH2 0x2F9D JUMP JUMPDEST SWAP5 SWAP4 POP POP POP POP JUMP JUMPDEST PUSH1 0x24 DUP6 PUSH1 0x40 MLOAD PUSH2 0x3127 SWAP2 SWAP1 PUSH2 0x4D8E JUMP JUMPDEST SWAP1 DUP2 MSTORE PUSH1 0x40 MLOAD SWAP1 DUP2 SWAP1 SUB PUSH1 0x20 ADD SWAP1 KECCAK256 SLOAD PUSH1 0xFF AND ISZERO PUSH2 0x317F JUMPI PUSH1 0x40 MLOAD PUSH3 0x461BCD PUSH1 0xE5 SHL DUP2 MSTORE PUSH1 0x20 PUSH1 0x4 DUP3 ADD MSTORE PUSH1 0x15 PUSH1 0x24 DUP3 ADD MSTORE PUSH21 0x151BDAD95B88155492481B9BDD08185B1B1BDDD959 PUSH1 0x5A SHL PUSH1 0x44 DUP3 ADD MSTORE PUSH1 0x64 ADD PUSH2 0xE75 JUMP JUMPDEST PUSH1 0x1 PUSH1 0xE PUSH1 0x0 DUP3 DUP3 SLOAD PUSH2 0x3192 SWAP2 SWAP1 PUSH2 0x4CB4 JUMP JUMPDEST SWAP1 SWAP2 SSTORE POP POP PUSH1 0x0 DUP8 DUP2 MSTORE PUSH1 0x16 PUSH1 0x20 SWAP1 DUP2 MSTORE PUSH1 0x40 DUP1 DUP4 KECCAK256 PUSH1 0xE SLOAD DUP2 SLOAD PUSH1 0x1 DUP2 DUP2 ADD DUP5 SSTORE SWAP3 DUP7 MSTORE DUP5 DUP7 KECCAK256 ADD SSTORE DUP11 DUP5 MSTORE PUSH1 0x1A SWAP1 SWAP3 MSTORE DUP3 KECCAK256 DUP1 SLOAD TIMESTAMP SWAP4 SWAP1 PUSH2 0x31D6 SWAP1 DUP5 SWAP1 PUSH2 0x4CB4 JUMP JUMPDEST SWAP1 SWAP2 SSTORE POP POP PUSH1 0x0 DUP9 DUP2 MSTORE PUSH1 0x1A PUSH1 0x20 MSTORE PUSH1 0x40 SWAP1 KECCAK256 SLOAD PUSH2 0x31F6 SWAP1 PUSH1 0x1 SWAP1 PUSH2 0x4CCC JUMP JUMPDEST PUSH1 0x0 DUP10 DUP2 MSTORE PUSH1 0x1F PUSH1 0x20 SWAP1 DUP2 MSTORE PUSH1 0x40 DUP1 DUP4 KECCAK256 PUSH1 0xE DUP1 SLOAD DUP6 MSTORE SWAP1 DUP4 MSTORE DUP2 DUP5 KECCAK256 SWAP5 SWAP1 SWAP5 SSTORE DUP4 SLOAD DUP4 MSTORE PUSH1 0x22 DUP3 MSTORE DUP1 DUP4 KECCAK256 DUP13 SWAP1 SSTORE DUP4 SLOAD DUP4 MSTORE PUSH1 0x29 SWAP1 SWAP2 MSTORE SWAP1 KECCAK256 DUP1 SLOAD PUSH1 0x1 PUSH1 0x1 PUSH1 0xA0 SHL SUB NOT AND CALLER OR SWAP1 SSTORE SLOAD PUSH2 0x3252 SWAP1 DUP9 SWAP1 DUP9 DUP9 DUP6 DUP10 DUP10 DUP10 PUSH2 0x395A JUMP JUMPDEST PUSH1 0x1 PUSH1 0x24 DUP8 PUSH1 0x40 MLOAD PUSH2 0x3264 SWAP2 SWAP1 PUSH2 0x4D8E JUMP JUMPDEST SWAP1 DUP2 MSTORE PUSH1 0x40 MLOAD SWAP1 DUP2 SWAP1 SUB PUSH1 0x20 ADD SWAP1 KECCAK256 DUP1 SLOAD SWAP2 ISZERO ISZERO PUSH1 0xFF NOT SWAP1 SWAP3 AND SWAP2 SWAP1 SWAP2 OR SWAP1 SSTORE POP POP POP POP POP POP POP POP JUMP JUMPDEST PUSH1 0xC SLOAD PUSH1 0x1 PUSH1 0x1 PUSH1 0xA0 SHL SUB AND CALLER EQ PUSH2 0x32B8 JUMPI PUSH1 0x40 MLOAD PUSH3 0x461BCD PUSH1 0xE5 SHL DUP2 MSTORE PUSH1 0x4 ADD PUSH2 0xE75 SWAP1 PUSH2 0x4D67 JUMP JUMPDEST PUSH1 0x10 SSTORE JUMP JUMPDEST PUSH1 0x24 DUP3 PUSH1 0x40 MLOAD PUSH2 0x32CD SWAP2 SWAP1 PUSH2 0x4D8E JUMP JUMPDEST SWAP1 DUP2 MSTORE PUSH1 0x40 MLOAD SWAP1 DUP2 SWAP1 SUB PUSH1 0x20 ADD SWAP1 KECCAK256 SLOAD PUSH1 0xFF AND ISZERO PUSH2 0x3321 JUMPI PUSH1 0x40 MLOAD PUSH3 0x461BCD PUSH1 0xE5 SHL DUP2 MSTORE PUSH1 0x20 PUSH1 0x4 DUP3 ADD MSTORE PUSH1 0x11 PUSH1 0x24 DUP3 ADD MSTORE PUSH17 0x1D985B1D59481B9BDD08185B1B1BDDD959 PUSH1 0x7A SHL PUSH1 0x44 DUP3 ADD MSTORE PUSH1 0x64 ADD PUSH2 0xE75 JUMP JUMPDEST PUSH1 0x1 PUSH1 0xF PUSH1 0x0 DUP3 DUP3 SLOAD PUSH2 0x3334 SWAP2 SWAP1 PUSH2 0x4CB4 JUMP JUMPDEST SWAP1 SWAP2 SSTORE POP POP PUSH1 0xF DUP1 SLOAD PUSH1 0x0 SWAP1 DUP2 MSTORE PUSH1 0x17 PUSH1 0x20 SWAP1 DUP2 MSTORE PUSH1 0x40 DUP1 DUP4 KECCAK256 DUP1 SLOAD PUSH1 0x1 PUSH1 0x1 PUSH1 0xA0 SHL SUB NOT AND CALLER OR SWAP1 SSTORE SWAP3 SLOAD DUP3 MSTORE SWAP2 SWAP1 KECCAK256 DUP8 MLOAD PUSH2 0x337A SWAP3 PUSH1 0x1 SWAP3 SWAP1 SWAP3 ADD SWAP2 DUP10 ADD SWAP1 PUSH2 0x4394 JUMP JUMPDEST POP PUSH1 0xF SLOAD PUSH1 0x0 SWAP1 DUP2 MSTORE PUSH1 0x17 PUSH1 0x20 SWAP1 DUP2 MSTORE PUSH1 0x40 SWAP1 SWAP2 KECCAK256 DUP7 MLOAD PUSH2 0x33A3 SWAP3 PUSH1 0x2 SWAP1 SWAP3 ADD SWAP2 DUP9 ADD SWAP1 PUSH2 0x4394 JUMP JUMPDEST POP PUSH1 0xF SLOAD PUSH1 0x0 SWAP1 DUP2 MSTORE PUSH1 0x17 PUSH1 0x20 SWAP1 DUP2 MSTORE PUSH1 0x40 SWAP1 SWAP2 KECCAK256 DUP6 MLOAD PUSH2 0x33CC SWAP3 PUSH1 0x3 SWAP1 SWAP3 ADD SWAP2 DUP8 ADD SWAP1 PUSH2 0x4394 JUMP JUMPDEST POP PUSH1 0xF SLOAD PUSH1 0x0 SWAP1 DUP2 MSTORE PUSH1 0x17 PUSH1 0x20 SWAP1 DUP2 MSTORE PUSH1 0x40 SWAP1 SWAP2 KECCAK256 DUP5 MLOAD PUSH2 0x33F5 SWAP3 PUSH1 0x4 SWAP1 SWAP3 ADD SWAP2 DUP7 ADD SWAP1 PUSH2 0x4394 JUMP JUMPDEST POP PUSH1 0xF SLOAD PUSH1 0x0 SWAP1 DUP2 MSTORE PUSH1 0x17 PUSH1 0x20 SWAP1 DUP2 MSTORE PUSH1 0x40 SWAP1 SWAP2 KECCAK256 DUP4 MLOAD PUSH2 0x341E SWAP3 PUSH1 0x5 SWAP1 SWAP3 ADD SWAP2 DUP6 ADD SWAP1 PUSH2 0x4394 JUMP JUMPDEST POP PUSH1 0xF DUP1 SLOAD PUSH1 0x0 SWAP1 DUP2 MSTORE PUSH1 0x17 PUSH1 0x20 SWAP1 DUP2 MSTORE PUSH1 0x40 DUP1 DUP4 KECCAK256 PUSH1 0x6 ADD DUP6 SWAP1 SSTORE CALLER DUP1 DUP5 MSTORE PUSH1 0x18 DUP4 MSTORE DUP2 DUP5 KECCAK256 DUP6 SLOAD DUP2 SLOAD PUSH1 0x1 DUP2 DUP2 ADD DUP5 SSTORE SWAP3 DUP8 MSTORE DUP6 DUP8 KECCAK256 ADD SSTORE SWAP5 SLOAD SWAP1 DUP5 MSTORE PUSH1 0x19 SWAP1 SWAP3 MSTORE SWAP2 DUP3 SWAP1 KECCAK256 SSTORE MLOAD PUSH1 0x24 SWAP1 PUSH2 0x3476 SWAP1 DUP6 SWAP1 PUSH2 0x4D8E JUMP JUMPDEST SWAP1 DUP2 MSTORE PUSH1 0x40 MLOAD SWAP1 DUP2 SWAP1 SUB PUSH1 0x20 ADD SWAP1 KECCAK256 DUP1 SLOAD SWAP2 ISZERO ISZERO PUSH1 0xFF NOT SWAP1 SWAP3 AND SWAP2 SWAP1 SWAP2 OR SWAP1 SSTORE POP POP POP POP POP POP JUMP JUMPDEST PUSH1 0xC SLOAD PUSH1 0x1 PUSH1 0x1 PUSH1 0xA0 SHL SUB AND CALLER EQ PUSH2 0x34C8 JUMPI PUSH1 0x40 MLOAD PUSH3 0x461BCD PUSH1 0xE5 SHL DUP2 MSTORE PUSH1 0x4 ADD PUSH2 0xE75 SWAP1 PUSH2 0x4D67 JUMP JUMPDEST PUSH1 0x0 DUP2 DUP2 MSTORE PUSH1 0x17 PUSH1 0x20 SWAP1 DUP2 MSTORE PUSH1 0x40 DUP1 DUP4 KECCAK256 SLOAD PUSH1 0x1 PUSH1 0x1 PUSH1 0xA0 SHL SUB AND DUP4 MSTORE PUSH1 0x18 SWAP1 SWAP2 MSTORE DUP2 KECCAK256 PUSH2 0x34F5 SWAP2 PUSH2 0x4418 JUMP JUMPDEST PUSH1 0x0 DUP2 DUP2 MSTORE PUSH1 0x17 PUSH1 0x20 DUP2 DUP2 MSTORE PUSH1 0x40 DUP1 DUP5 KECCAK256 DUP1 SLOAD PUSH1 0x1 PUSH1 0x1 PUSH1 0xA0 SHL SUB AND DUP6 MSTORE PUSH1 0x19 DUP4 MSTORE DUP2 DUP6 KECCAK256 DUP6 SWAP1 SSTORE DUP6 DUP6 MSTORE SWAP3 SWAP1 SWAP2 MSTORE MLOAD PUSH1 0x24 SWAP2 PUSH2 0x3537 SWAP2 PUSH1 0x5 SWAP1 SWAP2 ADD SWAP1 PUSH2 0x4F11 JUMP JUMPDEST SWAP1 DUP2 MSTORE PUSH1 0x40 DUP1 MLOAD PUSH1 0x20 SWAP3 DUP2 SWAP1 SUB DUP4 ADD SWAP1 KECCAK256 DUP1 SLOAD PUSH1 0xFF NOT AND SWAP4 ISZERO ISZERO SWAP4 SWAP1 SWAP4 OR SWAP1 SWAP3 SSTORE PUSH1 0x0 DUP4 DUP2 MSTORE PUSH1 0x17 SWAP1 SWAP2 MSTORE SWAP1 DUP2 KECCAK256 DUP1 SLOAD PUSH1 0x1 PUSH1 0x1 PUSH1 0xA0 SHL SUB NOT AND DUP2 SSTORE SWAP1 PUSH2 0x3581 PUSH1 0x1 DUP4 ADD DUP3 PUSH2 0x4439 JUMP JUMPDEST PUSH2 0x358F PUSH1 0x2 DUP4 ADD PUSH1 0x0 PUSH2 0x4439 JUMP JUMPDEST PUSH2 0x359D PUSH1 0x3 DUP4 ADD PUSH1 0x0 PUSH2 0x4439 JUMP JUMPDEST PUSH2 0x35AB PUSH1 0x4 DUP4 ADD PUSH1 0x0 PUSH2 0x4439 JUMP JUMPDEST PUSH2 0x35B9 PUSH1 0x5 DUP4 ADD PUSH1 0x0 PUSH2 0x4439 JUMP JUMPDEST PUSH1 0x6 DUP3 ADD PUSH1 0x0 SWAP1 SSTORE POP POP POP JUMP JUMPDEST PUSH1 0xC SLOAD PUSH1 0x1 PUSH1 0x1 PUSH1 0xA0 SHL SUB AND CALLER EQ PUSH2 0x35F0 JUMPI PUSH1 0x40 MLOAD PUSH3 0x461BCD PUSH1 0xE5 SHL DUP2 MSTORE PUSH1 0x4 ADD PUSH2 0xE75 SWAP1 PUSH2 0x4D67 JUMP JUMPDEST PUSH1 0xC SLOAD PUSH1 0x40 MLOAD PUSH1 0x0 SWAP2 PUSH1 0x1 PUSH1 0x1 PUSH1 0xA0 SHL SUB AND SWAP1 DUP4 SWAP1 DUP4 DUP2 DUP2 DUP2 DUP6 DUP8 GAS CALL SWAP3 POP POP POP RETURNDATASIZE DUP1 PUSH1 0x0 DUP2 EQ PUSH2 0x363D JUMPI PUSH1 0x40 MLOAD SWAP2 POP PUSH1 0x1F NOT PUSH1 0x3F RETURNDATASIZE ADD AND DUP3 ADD PUSH1 0x40 MSTORE RETURNDATASIZE DUP3 MSTORE RETURNDATASIZE PUSH1 0x0 PUSH1 0x20 DUP5 ADD RETURNDATACOPY PUSH2 0x3642 JUMP JUMPDEST PUSH1 0x60 SWAP2 POP JUMPDEST POP POP SWAP1 POP DUP1 PUSH2 0x1517 JUMPI PUSH1 0x40 MLOAD PUSH3 0x461BCD PUSH1 0xE5 SHL DUP2 MSTORE PUSH1 0x4 ADD PUSH2 0xE75 SWAP1 PUSH2 0x4E92 JUMP JUMPDEST PUSH1 0x0 PUSH1 0x1 PUSH1 0x1 PUSH1 0xE0 SHL SUB NOT DUP3 AND PUSH4 0x80AC58CD PUSH1 0xE0 SHL EQ DUP1 PUSH2 0x3694 JUMPI POP PUSH1 0x1 PUSH1 0x1 PUSH1 0xE0 SHL SUB NOT DUP3 AND PUSH4 0x5B5E139F PUSH1 0xE0 SHL EQ JUMPDEST DUP1 PUSH2 0xD68 JUMPI POP PUSH4 0x1FFC9A7 PUSH1 0xE0 SHL PUSH1 0x1 PUSH1 0x1 PUSH1 0xE0 SHL SUB NOT DUP4 AND EQ PUSH2 0xD68 JUMP JUMPDEST PUSH1 0x0 DUP2 DUP2 MSTORE PUSH1 0x4 PUSH1 0x20 MSTORE PUSH1 0x40 SWAP1 KECCAK256 DUP1 SLOAD PUSH1 0x1 PUSH1 0x1 PUSH1 0xA0 SHL SUB NOT AND PUSH1 0x1 PUSH1 0x1 PUSH1 0xA0 SHL SUB DUP5 AND SWAP1 DUP2 OR SWAP1 SWAP2 SSTORE DUP2 SWAP1 PUSH2 0x36E8 DUP3 PUSH2 0x1D2C JUMP JUMPDEST PUSH1 0x1 PUSH1 0x1 PUSH1 0xA0 SHL SUB AND PUSH32 0x8C5BE1E5EBEC7D5BD14F71427D1E84F3DD0314C0F7B2291E5B200AC8C7C3B925 PUSH1 0x40 MLOAD PUSH1 0x40 MLOAD DUP1 SWAP2 SUB SWAP1 LOG4 POP POP JUMP JUMPDEST PUSH1 0x1 PUSH1 0x1 PUSH1 0xA0 SHL SUB DUP3 AND PUSH2 0x3783 JUMPI PUSH1 0x40 MLOAD PUSH3 0x461BCD PUSH1 0xE5 SHL DUP2 MSTORE PUSH1 0x20 PUSH1 0x4 DUP3 ADD MSTORE PUSH1 0x24 DUP1 DUP3 ADD MSTORE PUSH32 0x4552433732313A207472616E7366657220746F20746865207A65726F20616464 PUSH1 0x44 DUP3 ADD MSTORE PUSH4 0x72657373 PUSH1 0xE0 SHL PUSH1 0x64 DUP3 ADD MSTORE PUSH1 0x84 ADD PUSH2 0xE75 JUMP JUMPDEST PUSH2 0x378E DUP4 DUP4 DUP4 PUSH2 0x3E57 JUMP JUMPDEST PUSH2 0x3799 PUSH1 0x0 DUP3 PUSH2 0x36B3 JUMP JUMPDEST PUSH1 0x1 PUSH1 0x1 PUSH1 0xA0 SHL SUB DUP4 AND PUSH1 0x0 SWAP1 DUP2 MSTORE PUSH1 0x3 PUSH1 0x20 MSTORE PUSH1 0x40 DUP2 KECCAK256 DUP1 SLOAD PUSH1 0x1 SWAP3 SWAP1 PUSH2 0x37C2 SWAP1 DUP5 SWAP1 PUSH2 0x4CCC JUMP JUMPDEST SWAP1 SWAP2 SSTORE POP POP PUSH1 0x1 PUSH1 0x1 PUSH1 0xA0 SHL SUB DUP3 AND PUSH1 0x0 SWAP1 DUP2 MSTORE PUSH1 0x3 PUSH1 0x20 MSTORE PUSH1 0x40 DUP2 KECCAK256 DUP1 SLOAD PUSH1 0x1 SWAP3 SWAP1 PUSH2 0x37F0 SWAP1 DUP5 SWAP1 PUSH2 0x4CB4 JUMP JUMPDEST SWAP1 SWAP2 SSTORE POP POP PUSH1 0x0 DUP2 DUP2 MSTORE PUSH1 0x2 PUSH1 0x20 MSTORE PUSH1 0x40 DUP1 DUP3 KECCAK256 DUP1 SLOAD PUSH1 0x1 PUSH1 0x1 PUSH1 0xA0 SHL SUB NOT AND PUSH1 0x1 PUSH1 0x1 PUSH1 0xA0 SHL SUB DUP7 DUP2 AND SWAP2 DUP3 OR SWAP1 SWAP3 SSTORE SWAP2 MLOAD DUP5 SWAP4 SWAP2 DUP8 AND SWAP2 PUSH32 0xDDF252AD1BE2C89B69C2B068FC378DAA952BA7F163C4A11628F55A4DF523B3EF SWAP2 LOG4 POP POP POP JUMP JUMPDEST PUSH1 0x60 DUP2 PUSH2 0x3875 JUMPI POP POP PUSH1 0x40 DUP1 MLOAD DUP1 DUP3 ADD SWAP1 SWAP2 MSTORE PUSH1 0x1 DUP2 MSTORE PUSH1 0x3 PUSH1 0xFC SHL PUSH1 0x20 DUP3 ADD MSTORE SWAP1 JUMP JUMPDEST DUP2 PUSH1 0x0 JUMPDEST DUP2 ISZERO PUSH2 0x389F JUMPI DUP1 PUSH2 0x3889 DUP2 PUSH2 0x4D21 JUMP JUMPDEST SWAP2 POP PUSH2 0x3898 SWAP1 POP PUSH1 0xA DUP4 PUSH2 0x4E7E JUMP JUMPDEST SWAP2 POP PUSH2 0x3879 JUMP JUMPDEST PUSH1 0x0 DUP2 PUSH8 0xFFFFFFFFFFFFFFFF DUP2 GT ISZERO PUSH2 0x38BA JUMPI PUSH2 0x38BA PUSH2 0x4583 JUMP JUMPDEST PUSH1 0x40 MLOAD SWAP1 DUP1 DUP3 MSTORE DUP1 PUSH1 0x1F ADD PUSH1 0x1F NOT AND PUSH1 0x20 ADD DUP3 ADD PUSH1 0x40 MSTORE DUP1 ISZERO PUSH2 0x38E4 JUMPI PUSH1 0x20 DUP3 ADD DUP2 DUP1 CALLDATASIZE DUP4 CALLDATACOPY ADD SWAP1 POP JUMPDEST POP DUP6 SWAP4 POP SWAP1 POP DUP2 JUMPDEST DUP4 ISZERO PUSH2 0x3951 JUMPI PUSH2 0x38FD PUSH1 0xA DUP6 PUSH2 0x4FAD JUMP JUMPDEST PUSH2 0x3908 SWAP1 PUSH1 0x30 PUSH2 0x4CB4 JUMP JUMPDEST PUSH1 0xF8 SHL DUP3 PUSH2 0x3915 DUP4 PUSH2 0x4FC1 JUMP JUMPDEST SWAP3 POP DUP3 DUP2 MLOAD DUP2 LT PUSH2 0x3928 JUMPI PUSH2 0x3928 PUSH2 0x4C88 JUMP JUMPDEST PUSH1 0x20 ADD ADD SWAP1 PUSH1 0x1 PUSH1 0x1 PUSH1 0xF8 SHL SUB NOT AND SWAP1 DUP2 PUSH1 0x0 BYTE SWAP1 MSTORE8 POP PUSH2 0x394A PUSH1 0xA DUP6 PUSH2 0x4E7E JUMP JUMPDEST SWAP4 POP PUSH2 0x38EC JUMP JUMPDEST POP SWAP5 SWAP4 POP POP POP POP JUMP JUMPDEST PUSH2 0x3964 DUP9 DUP9 PUSH2 0x3F0F JUMP JUMPDEST PUSH2 0x396E DUP8 DUP8 PUSH2 0x405D JUMP JUMPDEST PUSH1 0x0 DUP8 DUP2 MSTORE PUSH1 0x6 PUSH1 0x20 SWAP1 DUP2 MSTORE PUSH1 0x40 SWAP1 SWAP2 KECCAK256 DUP7 MLOAD PUSH2 0x398D SWAP3 DUP9 ADD SWAP1 PUSH2 0x4394 JUMP JUMPDEST POP PUSH1 0x0 DUP8 DUP2 MSTORE PUSH1 0x6 PUSH1 0x20 SWAP1 DUP2 MSTORE PUSH1 0x40 SWAP1 SWAP2 KECCAK256 PUSH1 0x1 DUP2 ADD DUP7 SWAP1 SSTORE DUP5 MLOAD PUSH2 0x39BA SWAP3 PUSH1 0x2 SWAP1 SWAP3 ADD SWAP2 DUP7 ADD SWAP1 PUSH2 0x4394 JUMP JUMPDEST POP PUSH1 0x0 DUP8 DUP2 MSTORE PUSH1 0x6 PUSH1 0x20 SWAP1 DUP2 MSTORE PUSH1 0x40 SWAP1 SWAP2 KECCAK256 PUSH1 0x4 DUP2 ADD DUP5 SWAP1 SSTORE DUP3 MLOAD PUSH2 0x1822 SWAP3 PUSH1 0x3 SWAP1 SWAP3 ADD SWAP2 DUP5 ADD SWAP1 PUSH2 0x4394 JUMP JUMPDEST PUSH1 0x0 PUSH2 0x39F2 DUP3 PUSH2 0x1D2C JUMP JUMPDEST SWAP1 POP PUSH2 0x3A00 DUP2 PUSH1 0x0 DUP5 PUSH2 0x3E57 JUMP JUMPDEST PUSH2 0x3A0B PUSH1 0x0 DUP4 PUSH2 0x36B3 JUMP JUMPDEST PUSH1 0x1 PUSH1 0x1 PUSH1 0xA0 SHL SUB DUP2 AND PUSH1 0x0 SWAP1 DUP2 MSTORE PUSH1 0x3 PUSH1 0x20 MSTORE PUSH1 0x40 DUP2 KECCAK256 DUP1 SLOAD PUSH1 0x1 SWAP3 SWAP1 PUSH2 0x3A34 SWAP1 DUP5 SWAP1 PUSH2 0x4CCC JUMP JUMPDEST SWAP1 SWAP2 SSTORE POP POP PUSH1 0x0 DUP3 DUP2 MSTORE PUSH1 0x2 PUSH1 0x20 MSTORE PUSH1 0x40 DUP1 DUP3 KECCAK256 DUP1 SLOAD PUSH1 0x1 PUSH1 0x1 PUSH1 0xA0 SHL SUB NOT AND SWAP1 SSTORE MLOAD DUP4 SWAP2 SWAP1 PUSH1 0x1 PUSH1 0x1 PUSH1 0xA0 SHL SUB DUP5 AND SWAP1 PUSH32 0xDDF252AD1BE2C89B69C2B068FC378DAA952BA7F163C4A11628F55A4DF523B3EF SWAP1 DUP4 SWAP1 LOG4 POP POP JUMP JUMPDEST PUSH1 0x0 DUP2 DUP2 MSTORE PUSH1 0x2 PUSH1 0x20 MSTORE PUSH1 0x40 DUP2 KECCAK256 SLOAD PUSH1 0x1 PUSH1 0x1 PUSH1 0xA0 SHL SUB AND PUSH2 0x3B07 JUMPI PUSH1 0x40 MLOAD PUSH3 0x461BCD PUSH1 0xE5 SHL DUP2 MSTORE PUSH1 0x20 PUSH1 0x4 DUP3 ADD MSTORE PUSH1 0x2C PUSH1 0x24 DUP3 ADD MSTORE PUSH32 0x4552433732313A206F70657261746F7220717565727920666F72206E6F6E6578 PUSH1 0x44 DUP3 ADD MSTORE PUSH12 0x34B9BA32B73A103A37B5B2B7 PUSH1 0xA1 SHL PUSH1 0x64 DUP3 ADD MSTORE PUSH1 0x84 ADD PUSH2 0xE75 JUMP JUMPDEST PUSH1 0x0 PUSH2 0x3B12 DUP4 PUSH2 0x1D2C JUMP JUMPDEST SWAP1 POP DUP1 PUSH1 0x1 PUSH1 0x1 PUSH1 0xA0 SHL SUB AND DUP5 PUSH1 0x1 PUSH1 0x1 PUSH1 0xA0 SHL SUB AND EQ DUP1 PUSH2 0x3B4D JUMPI POP DUP4 PUSH1 0x1 PUSH1 0x1 PUSH1 0xA0 SHL SUB AND PUSH2 0x3B42 DUP5 PUSH2 0xE00 JUMP JUMPDEST PUSH1 0x1 PUSH1 0x1 PUSH1 0xA0 SHL SUB AND EQ JUMPDEST DUP1 PUSH2 0x310F JUMPI POP PUSH1 0x1 PUSH1 0x1 PUSH1 0xA0 SHL SUB DUP1 DUP3 AND PUSH1 0x0 SWAP1 DUP2 MSTORE PUSH1 0x5 PUSH1 0x20 SWAP1 DUP2 MSTORE PUSH1 0x40 DUP1 DUP4 KECCAK256 SWAP4 DUP9 AND DUP4 MSTORE SWAP3 SWAP1 MSTORE KECCAK256 SLOAD PUSH1 0xFF AND PUSH2 0x310F JUMP JUMPDEST PUSH1 0x0 DUP3 DUP2 MSTORE PUSH1 0x16 PUSH1 0x20 SWAP1 DUP2 MSTORE PUSH1 0x40 DUP1 DUP4 KECCAK256 PUSH1 0x1F DUP4 MSTORE DUP2 DUP5 KECCAK256 DUP6 DUP6 MSTORE SWAP1 SWAP3 MSTORE SWAP1 SWAP2 KECCAK256 SLOAD DUP2 SLOAD DUP2 LT PUSH2 0x3BB3 JUMPI PUSH2 0x3BB3 PUSH2 0x4C88 JUMP JUMPDEST PUSH1 0x0 SWAP2 DUP3 MSTORE PUSH1 0x20 DUP1 DUP4 KECCAK256 SWAP1 SWAP2 ADD DUP3 SWAP1 SSTORE CALLER DUP3 MSTORE PUSH1 0x19 DUP2 MSTORE PUSH1 0x40 DUP1 DUP4 KECCAK256 DUP1 SLOAD DUP5 MSTORE PUSH1 0x16 DUP4 MSTORE DUP2 DUP5 KECCAK256 DUP1 SLOAD PUSH1 0x1 DUP2 DUP2 ADD DUP4 SSTORE SWAP2 DUP7 MSTORE DUP5 DUP7 KECCAK256 ADD DUP7 SWAP1 SSTORE SWAP1 SLOAD DUP5 MSTORE PUSH1 0x1A SWAP1 SWAP3 MSTORE DUP3 KECCAK256 DUP1 SLOAD SWAP2 SWAP3 SWAP1 SWAP2 PUSH2 0x3C09 SWAP1 DUP5 SWAP1 PUSH2 0x4CB4 JUMP JUMPDEST SWAP1 SWAP2 SSTORE POP POP CALLER PUSH1 0x0 SWAP1 DUP2 MSTORE PUSH1 0x19 PUSH1 0x20 SWAP1 DUP2 MSTORE PUSH1 0x40 DUP1 DUP4 KECCAK256 SLOAD DUP4 MSTORE PUSH1 0x1A SWAP1 SWAP2 MSTORE SWAP1 KECCAK256 SLOAD PUSH2 0x3C37 SWAP1 PUSH1 0x1 SWAP1 PUSH2 0x4CCC JUMP JUMPDEST CALLER PUSH1 0x0 DUP2 DUP2 MSTORE PUSH1 0x19 PUSH1 0x20 SWAP1 DUP2 MSTORE PUSH1 0x40 DUP1 DUP4 KECCAK256 DUP1 SLOAD DUP5 MSTORE PUSH1 0x1F DUP4 MSTORE DUP2 DUP5 KECCAK256 DUP8 DUP6 MSTORE DUP4 MSTORE DUP2 DUP5 KECCAK256 SWAP6 SWAP1 SWAP6 SSTORE PUSH1 0x15 DUP3 MSTORE DUP1 DUP4 KECCAK256 DUP4 DUP2 SSTORE PUSH1 0x1 ADD DUP1 SLOAD PUSH1 0xFF NOT AND SWAP1 SSTORE SWAP4 SLOAD PUSH1 0x22 DUP3 MSTORE DUP5 DUP4 KECCAK256 SSTORE PUSH1 0x29 DUP2 MSTORE DUP4 DUP3 KECCAK256 DUP1 SLOAD PUSH1 0x1 PUSH1 0x1 PUSH1 0xA0 SHL SUB NOT AND SWAP1 SWAP4 OR SWAP1 SWAP3 SSTORE PUSH1 0x1D SWAP1 SWAP2 MSTORE KECCAK256 SLOAD PUSH1 0x1B DUP1 SLOAD SWAP1 SWAP2 SWAP1 DUP2 LT PUSH2 0x3CB4 JUMPI PUSH2 0x3CB4 PUSH2 0x4C88 JUMP JUMPDEST PUSH1 0x0 SWAP2 DUP3 MSTORE PUSH1 0x20 DUP3 KECCAK256 ADD SSTORE POP POP JUMP JUMPDEST PUSH2 0x3CCE DUP5 DUP5 DUP5 PUSH2 0x3721 JUMP JUMPDEST PUSH2 0x3CDA DUP5 DUP5 DUP5 DUP5 PUSH2 0x40F7 JUMP JUMPDEST PUSH2 0x2B3B JUMPI PUSH1 0x40 MLOAD PUSH3 0x461BCD PUSH1 0xE5 SHL DUP2 MSTORE PUSH1 0x4 ADD PUSH2 0xE75 SWAP1 PUSH2 0x4FD8 JUMP JUMPDEST PUSH1 0x0 DUP3 DUP2 MSTORE PUSH1 0x16 PUSH1 0x20 SWAP1 DUP2 MSTORE PUSH1 0x40 DUP1 DUP4 KECCAK256 PUSH1 0x1F DUP4 MSTORE DUP2 DUP5 KECCAK256 DUP6 DUP6 MSTORE SWAP1 SWAP3 MSTORE SWAP1 SWAP2 KECCAK256 SLOAD DUP2 SLOAD DUP2 LT PUSH2 0x3D28 JUMPI PUSH2 0x3D28 PUSH2 0x4C88 JUMP JUMPDEST PUSH1 0x0 SWAP2 DUP3 MSTORE PUSH1 0x20 DUP1 DUP4 KECCAK256 SWAP1 SWAP2 ADD DUP3 SWAP1 SSTORE CALLER DUP3 MSTORE PUSH1 0x19 DUP2 MSTORE PUSH1 0x40 DUP1 DUP4 KECCAK256 DUP1 SLOAD DUP5 MSTORE PUSH1 0x16 DUP4 MSTORE DUP2 DUP5 KECCAK256 DUP1 SLOAD PUSH1 0x1 DUP2 DUP2 ADD DUP4 SSTORE SWAP2 DUP7 MSTORE DUP5 DUP7 KECCAK256 ADD DUP7 SWAP1 SSTORE SWAP1 SLOAD DUP5 MSTORE PUSH1 0x1A SWAP1 SWAP3 MSTORE DUP3 KECCAK256 DUP1 SLOAD SWAP2 SWAP3 SWAP1 SWAP2 PUSH2 0x3D7E SWAP1 DUP5 SWAP1 PUSH2 0x4CB4 JUMP JUMPDEST SWAP1 SWAP2 SSTORE POP POP CALLER PUSH1 0x0 SWAP1 DUP2 MSTORE PUSH1 0x19 PUSH1 0x20 SWAP1 DUP2 MSTORE PUSH1 0x40 DUP1 DUP4 KECCAK256 SLOAD DUP4 MSTORE PUSH1 0x1A SWAP1 SWAP2 MSTORE SWAP1 KECCAK256 SLOAD PUSH2 0x3DAC SWAP1 PUSH1 0x1 SWAP1 PUSH2 0x4CCC JUMP JUMPDEST CALLER PUSH1 0x0 DUP2 DUP2 MSTORE PUSH1 0x19 PUSH1 0x20 SWAP1 DUP2 MSTORE PUSH1 0x40 DUP1 DUP4 KECCAK256 DUP1 SLOAD DUP5 MSTORE PUSH1 0x1F DUP4 MSTORE DUP2 DUP5 KECCAK256 DUP8 DUP6 MSTORE DUP4 MSTORE DUP2 DUP5 KECCAK256 SWAP6 SWAP1 SWAP6 SSTORE DUP2 DUP1 MSTORE DUP1 DUP4 KECCAK256 PUSH1 0x1 DUP2 ADD DUP5 SWAP1 SSTORE PUSH1 0x3 DUP2 ADD DUP5 SWAP1 SSTORE PUSH1 0x2 DUP2 ADD DUP1 SLOAD PUSH1 0xFF NOT AND SWAP1 SSTORE PUSH1 0x29 DUP4 MSTORE DUP2 DUP5 KECCAK256 DUP1 SLOAD PUSH1 0x1 PUSH1 0x1 PUSH1 0xA0 SHL SUB NOT SWAP1 DUP2 AND SWAP1 SWAP7 OR SWAP1 SSTORE DUP4 SWAP1 SSTORE PUSH1 0x23 DUP3 MSTORE DUP1 DUP4 KECCAK256 DUP1 SLOAD SWAP1 SWAP5 AND SWAP1 SWAP4 SSTORE SWAP3 SLOAD PUSH1 0x22 DUP5 MSTORE DUP3 DUP3 KECCAK256 SSTORE PUSH1 0x1E SWAP1 SWAP3 MSTORE SWAP1 KECCAK256 SLOAD PUSH1 0x1C DUP1 SLOAD SWAP1 SWAP2 SWAP1 DUP2 LT PUSH2 0x3CB4 JUMPI PUSH2 0x3CB4 PUSH2 0x4C88 JUMP JUMPDEST PUSH1 0x60 PUSH1 0x2A DUP1 SLOAD PUSH2 0xD7D SWAP1 PUSH2 0x4C4D JUMP JUMPDEST PUSH1 0x1 PUSH1 0x1 PUSH1 0xA0 SHL SUB DUP4 AND PUSH2 0x3EB2 JUMPI PUSH2 0x3EAD DUP2 PUSH1 0xA DUP1 SLOAD PUSH1 0x0 DUP4 DUP2 MSTORE PUSH1 0xB PUSH1 0x20 MSTORE PUSH1 0x40 DUP2 KECCAK256 DUP3 SWAP1 SSTORE PUSH1 0x1 DUP3 ADD DUP4 SSTORE SWAP2 SWAP1 SWAP2 MSTORE PUSH32 0xC65A7BB8D6351C1CF70C95A316CC6A92839C986682D98BC35F958F4883F9D2A8 ADD SSTORE JUMP JUMPDEST PUSH2 0x3ED5 JUMP JUMPDEST DUP2 PUSH1 0x1 PUSH1 0x1 PUSH1 0xA0 SHL SUB AND DUP4 PUSH1 0x1 PUSH1 0x1 PUSH1 0xA0 SHL SUB AND EQ PUSH2 0x3ED5 JUMPI PUSH2 0x3ED5 DUP4 DUP3 PUSH2 0x4204 JUMP JUMPDEST PUSH1 0x1 PUSH1 0x1 PUSH1 0xA0 SHL SUB DUP3 AND PUSH2 0x3EEC JUMPI PUSH2 0xFAB DUP2 PUSH2 0x42A1 JUMP JUMPDEST DUP3 PUSH1 0x1 PUSH1 0x1 PUSH1 0xA0 SHL SUB AND DUP3 PUSH1 0x1 PUSH1 0x1 PUSH1 0xA0 SHL SUB AND EQ PUSH2 0xFAB JUMPI PUSH2 0xFAB DUP3 DUP3 PUSH2 0x4350 JUMP JUMPDEST PUSH1 0x1 PUSH1 0x1 PUSH1 0xA0 SHL SUB DUP3 AND PUSH2 0x3F65 JUMPI PUSH1 0x40 MLOAD PUSH3 0x461BCD PUSH1 0xE5 SHL DUP2 MSTORE PUSH1 0x20 PUSH1 0x4 DUP3 ADD DUP2 SWAP1 MSTORE PUSH1 0x24 DUP3 ADD MSTORE PUSH32 0x4552433732313A206D696E7420746F20746865207A65726F2061646472657373 PUSH1 0x44 DUP3 ADD MSTORE PUSH1 0x64 ADD PUSH2 0xE75 JUMP JUMPDEST PUSH1 0x0 DUP2 DUP2 MSTORE PUSH1 0x2 PUSH1 0x20 MSTORE PUSH1 0x40 SWAP1 KECCAK256 SLOAD PUSH1 0x1 PUSH1 0x1 PUSH1 0xA0 SHL SUB AND ISZERO PUSH2 0x3FCA JUMPI PUSH1 0x40 MLOAD PUSH3 0x461BCD PUSH1 0xE5 SHL DUP2 MSTORE PUSH1 0x20 PUSH1 0x4 DUP3 ADD MSTORE PUSH1 0x1C PUSH1 0x24 DUP3 ADD MSTORE PUSH32 0x4552433732313A20746F6B656E20616C7265616479206D696E74656400000000 PUSH1 0x44 DUP3 ADD MSTORE PUSH1 0x64 ADD PUSH2 0xE75 JUMP JUMPDEST PUSH2 0x3FD6 PUSH1 0x0 DUP4 DUP4 PUSH2 0x3E57 JUMP JUMPDEST PUSH1 0x1 PUSH1 0x1 PUSH1 0xA0 SHL SUB DUP3 AND PUSH1 0x0 SWAP1 DUP2 MSTORE PUSH1 0x3 PUSH1 0x20 MSTORE PUSH1 0x40 DUP2 KECCAK256 DUP1 SLOAD PUSH1 0x1 SWAP3 SWAP1 PUSH2 0x3FFF SWAP1 DUP5 SWAP1 PUSH2 0x4CB4 JUMP JUMPDEST SWAP1 SWAP2 SSTORE POP POP PUSH1 0x0 DUP2 DUP2 MSTORE PUSH1 0x2 PUSH1 0x20 MSTORE PUSH1 0x40 DUP1 DUP3 KECCAK256 DUP1 SLOAD PUSH1 0x1 PUSH1 0x1 PUSH1 0xA0 SHL SUB NOT AND PUSH1 0x1 PUSH1 0x1 PUSH1 0xA0 SHL SUB DUP7 AND SWAP1 DUP2 OR SWAP1 SWAP2 SSTORE SWAP1 MLOAD DUP4 SWAP3 SWAP1 PUSH32 0xDDF252AD1BE2C89B69C2B068FC378DAA952BA7F163C4A11628F55A4DF523B3EF SWAP1 DUP3 SWAP1 LOG4 POP POP JUMP JUMPDEST PUSH1 0x0 DUP3 DUP2 MSTORE PUSH1 0x2 PUSH1 0x20 MSTORE PUSH1 0x40 SWAP1 KECCAK256 SLOAD PUSH1 0x1 PUSH1 0x1 PUSH1 0xA0 SHL SUB AND PUSH2 0x40D8 JUMPI PUSH1 0x40 MLOAD PUSH3 0x461BCD PUSH1 0xE5 SHL DUP2 MSTORE PUSH1 0x20 PUSH1 0x4 DUP3 ADD MSTORE PUSH1 0x2E PUSH1 0x24 DUP3 ADD MSTORE PUSH32 0x45524337323155524953746F726167653A2055524920736574206F66206E6F6E PUSH1 0x44 DUP3 ADD MSTORE PUSH14 0x32BC34B9BA32B73A103A37B5B2B7 PUSH1 0x91 SHL PUSH1 0x64 DUP3 ADD MSTORE PUSH1 0x84 ADD PUSH2 0xE75 JUMP JUMPDEST PUSH1 0x0 DUP3 DUP2 MSTORE PUSH1 0x7 PUSH1 0x20 SWAP1 DUP2 MSTORE PUSH1 0x40 SWAP1 SWAP2 KECCAK256 DUP3 MLOAD PUSH2 0xFAB SWAP3 DUP5 ADD SWAP1 PUSH2 0x4394 JUMP JUMPDEST PUSH1 0x0 PUSH1 0x1 PUSH1 0x1 PUSH1 0xA0 SHL SUB DUP5 AND EXTCODESIZE ISZERO PUSH2 0x41F9 JUMPI PUSH1 0x40 MLOAD PUSH4 0xA85BD01 PUSH1 0xE1 SHL DUP2 MSTORE PUSH1 0x1 PUSH1 0x1 PUSH1 0xA0 SHL SUB DUP6 AND SWAP1 PUSH4 0x150B7A02 SWAP1 PUSH2 0x413B SWAP1 CALLER SWAP1 DUP10 SWAP1 DUP9 SWAP1 DUP9 SWAP1 PUSH1 0x4 ADD PUSH2 0x502A JUMP JUMPDEST PUSH1 0x20 PUSH1 0x40 MLOAD DUP1 DUP4 SUB DUP2 PUSH1 0x0 DUP8 DUP1 EXTCODESIZE ISZERO DUP1 ISZERO PUSH2 0x4155 JUMPI PUSH1 0x0 DUP1 REVERT JUMPDEST POP GAS CALL SWAP3 POP POP POP DUP1 ISZERO PUSH2 0x4185 JUMPI POP PUSH1 0x40 DUP1 MLOAD PUSH1 0x1F RETURNDATASIZE SWAP1 DUP2 ADD PUSH1 0x1F NOT AND DUP3 ADD SWAP1 SWAP3 MSTORE PUSH2 0x4182 SWAP2 DUP2 ADD SWAP1 PUSH2 0x5067 JUMP JUMPDEST PUSH1 0x1 JUMPDEST PUSH2 0x41DF JUMPI RETURNDATASIZE DUP1 DUP1 ISZERO PUSH2 0x41B3 JUMPI PUSH1 0x40 MLOAD SWAP2 POP PUSH1 0x1F NOT PUSH1 0x3F RETURNDATASIZE ADD AND DUP3 ADD PUSH1 0x40 MSTORE RETURNDATASIZE DUP3 MSTORE RETURNDATASIZE PUSH1 0x0 PUSH1 0x20 DUP5 ADD RETURNDATACOPY PUSH2 0x41B8 JUMP JUMPDEST PUSH1 0x60 SWAP2 POP JUMPDEST POP DUP1 MLOAD PUSH2 0x41D7 JUMPI PUSH1 0x40 MLOAD PUSH3 0x461BCD PUSH1 0xE5 SHL DUP2 MSTORE PUSH1 0x4 ADD PUSH2 0xE75 SWAP1 PUSH2 0x4FD8 JUMP JUMPDEST DUP1 MLOAD DUP2 PUSH1 0x20 ADD REVERT JUMPDEST PUSH1 0x1 PUSH1 0x1 PUSH1 0xE0 SHL SUB NOT AND PUSH4 0xA85BD01 PUSH1 0xE1 SHL EQ SWAP1 POP PUSH2 0x310F JUMP JUMPDEST POP PUSH1 0x1 SWAP5 SWAP4 POP POP POP POP JUMP JUMPDEST PUSH1 0x0 PUSH1 0x1 PUSH2 0x4211 DUP5 PUSH2 0x226B JUMP JUMPDEST PUSH2 0x421B SWAP2 SWAP1 PUSH2 0x4CCC JUMP JUMPDEST PUSH1 0x0 DUP4 DUP2 MSTORE PUSH1 0x9 PUSH1 0x20 MSTORE PUSH1 0x40 SWAP1 KECCAK256 SLOAD SWAP1 SWAP2 POP DUP1 DUP3 EQ PUSH2 0x426E JUMPI PUSH1 0x1 PUSH1 0x1 PUSH1 0xA0 SHL SUB DUP5 AND PUSH1 0x0 SWAP1 DUP2 MSTORE PUSH1 0x8 PUSH1 0x20 SWAP1 DUP2 MSTORE PUSH1 0x40 DUP1 DUP4 KECCAK256 DUP6 DUP5 MSTORE DUP3 MSTORE DUP1 DUP4 KECCAK256 SLOAD DUP5 DUP5 MSTORE DUP2 DUP5 KECCAK256 DUP2 SWAP1 SSTORE DUP4 MSTORE PUSH1 0x9 SWAP1 SWAP2 MSTORE SWAP1 KECCAK256 DUP2 SWAP1 SSTORE JUMPDEST POP PUSH1 0x0 SWAP2 DUP3 MSTORE PUSH1 0x9 PUSH1 0x20 SWAP1 DUP2 MSTORE PUSH1 0x40 DUP1 DUP5 KECCAK256 DUP5 SWAP1 SSTORE PUSH1 0x1 PUSH1 0x1 PUSH1 0xA0 SHL SUB SWAP1 SWAP5 AND DUP4 MSTORE PUSH1 0x8 DUP2 MSTORE DUP4 DUP4 KECCAK256 SWAP2 DUP4 MSTORE MSTORE SWAP1 DUP2 KECCAK256 SSTORE JUMP JUMPDEST PUSH1 0xA SLOAD PUSH1 0x0 SWAP1 PUSH2 0x42B3 SWAP1 PUSH1 0x1 SWAP1 PUSH2 0x4CCC JUMP JUMPDEST PUSH1 0x0 DUP4 DUP2 MSTORE PUSH1 0xB PUSH1 0x20 MSTORE PUSH1 0x40 DUP2 KECCAK256 SLOAD PUSH1 0xA DUP1 SLOAD SWAP4 SWAP5 POP SWAP1 SWAP3 DUP5 SWAP1 DUP2 LT PUSH2 0x42DB JUMPI PUSH2 0x42DB PUSH2 0x4C88 JUMP JUMPDEST SWAP1 PUSH1 0x0 MSTORE PUSH1 0x20 PUSH1 0x0 KECCAK256 ADD SLOAD SWAP1 POP DUP1 PUSH1 0xA DUP4 DUP2 SLOAD DUP2 LT PUSH2 0x42FC JUMPI PUSH2 0x42FC PUSH2 0x4C88 JUMP JUMPDEST PUSH1 0x0 SWAP2 DUP3 MSTORE PUSH1 0x20 DUP1 DUP4 KECCAK256 SWAP1 SWAP2 ADD SWAP3 SWAP1 SWAP3 SSTORE DUP3 DUP2 MSTORE PUSH1 0xB SWAP1 SWAP2 MSTORE PUSH1 0x40 DUP1 DUP3 KECCAK256 DUP5 SWAP1 SSTORE DUP6 DUP3 MSTORE DUP2 KECCAK256 SSTORE PUSH1 0xA DUP1 SLOAD DUP1 PUSH2 0x4334 JUMPI PUSH2 0x4334 PUSH2 0x5084 JUMP JUMPDEST PUSH1 0x1 SWAP1 SUB DUP2 DUP2 SWAP1 PUSH1 0x0 MSTORE PUSH1 0x20 PUSH1 0x0 KECCAK256 ADD PUSH1 0x0 SWAP1 SSTORE SWAP1 SSTORE POP POP POP POP JUMP JUMPDEST PUSH1 0x0 PUSH2 0x435B DUP4 PUSH2 0x226B JUMP JUMPDEST PUSH1 0x1 PUSH1 0x1 PUSH1 0xA0 SHL SUB SWAP1 SWAP4 AND PUSH1 0x0 SWAP1 DUP2 MSTORE PUSH1 0x8 PUSH1 0x20 SWAP1 DUP2 MSTORE PUSH1 0x40 DUP1 DUP4 KECCAK256 DUP7 DUP5 MSTORE DUP3 MSTORE DUP1 DUP4 KECCAK256 DUP6 SWAP1 SSTORE SWAP4 DUP3 MSTORE PUSH1 0x9 SWAP1 MSTORE SWAP2 SWAP1 SWAP2 KECCAK256 SWAP2 SWAP1 SWAP2 SSTORE POP JUMP JUMPDEST DUP3 DUP1 SLOAD PUSH2 0x43A0 SWAP1 PUSH2 0x4C4D JUMP JUMPDEST SWAP1 PUSH1 0x0 MSTORE PUSH1 0x20 PUSH1 0x0 KECCAK256 SWAP1 PUSH1 0x1F ADD PUSH1 0x20 SWAP1 DIV DUP2 ADD SWAP3 DUP3 PUSH2 0x43C2 JUMPI PUSH1 0x0 DUP6 SSTORE PUSH2 0x4408 JUMP JUMPDEST DUP3 PUSH1 0x1F LT PUSH2 0x43DB JUMPI DUP1 MLOAD PUSH1 0xFF NOT AND DUP4 DUP1 ADD OR DUP6 SSTORE PUSH2 0x4408 JUMP JUMPDEST DUP3 DUP1 ADD PUSH1 0x1 ADD DUP6 SSTORE DUP3 ISZERO PUSH2 0x4408 JUMPI SWAP2 DUP3 ADD JUMPDEST DUP3 DUP2 GT ISZERO PUSH2 0x4408 JUMPI DUP3 MLOAD DUP3 SSTORE SWAP2 PUSH1 0x20 ADD SWAP2 SWAP1 PUSH1 0x1 ADD SWAP1 PUSH2 0x43ED JUMP JUMPDEST POP PUSH2 0x4414 SWAP3 SWAP2 POP PUSH2 0x446F JUMP JUMPDEST POP SWAP1 JUMP JUMPDEST POP DUP1 SLOAD PUSH1 0x0 DUP3 SSTORE SWAP1 PUSH1 0x0 MSTORE PUSH1 0x20 PUSH1 0x0 KECCAK256 SWAP1 DUP2 ADD SWAP1 PUSH2 0x4436 SWAP2 SWAP1 PUSH2 0x446F JUMP JUMPDEST POP JUMP JUMPDEST POP DUP1 SLOAD PUSH2 0x4445 SWAP1 PUSH2 0x4C4D JUMP JUMPDEST PUSH1 0x0 DUP3 SSTORE DUP1 PUSH1 0x1F LT PUSH2 0x4455 JUMPI POP POP JUMP JUMPDEST PUSH1 0x1F ADD PUSH1 0x20 SWAP1 DIV SWAP1 PUSH1 0x0 MSTORE PUSH1 0x20 PUSH1 0x0 KECCAK256 SWAP1 DUP2 ADD SWAP1 PUSH2 0x4436 SWAP2 SWAP1 JUMPDEST JUMPDEST DUP1 DUP3 GT ISZERO PUSH2 0x4414 JUMPI PUSH1 0x0 DUP2 SSTORE PUSH1 0x1 ADD PUSH2 0x4470 JUMP JUMPDEST PUSH1 0x1 PUSH1 0x1 PUSH1 0xE0 SHL SUB NOT DUP2 AND DUP2 EQ PUSH2 0x4436 JUMPI PUSH1 0x0 DUP1 REVERT JUMPDEST PUSH1 0x0 PUSH1 0x20 DUP3 DUP5 SUB SLT ISZERO PUSH2 0x44AC JUMPI PUSH1 0x0 DUP1 REVERT JUMPDEST DUP2 CALLDATALOAD PUSH2 0x44B7 DUP2 PUSH2 0x4484 JUMP JUMPDEST SWAP4 SWAP3 POP POP POP JUMP JUMPDEST PUSH1 0x0 JUMPDEST DUP4 DUP2 LT ISZERO PUSH2 0x44D9 JUMPI DUP2 DUP2 ADD MLOAD DUP4 DUP3 ADD MSTORE PUSH1 0x20 ADD PUSH2 0x44C1 JUMP JUMPDEST DUP4 DUP2 GT ISZERO PUSH2 0x2B3B JUMPI POP POP PUSH1 0x0 SWAP2 ADD MSTORE JUMP JUMPDEST PUSH1 0x0 DUP2 MLOAD DUP1 DUP5 MSTORE PUSH2 0x4502 DUP2 PUSH1 0x20 DUP7 ADD PUSH1 0x20 DUP7 ADD PUSH2 0x44BE JUMP JUMPDEST PUSH1 0x1F ADD PUSH1 0x1F NOT AND SWAP3 SWAP1 SWAP3 ADD PUSH1 0x20 ADD SWAP3 SWAP2 POP POP JUMP JUMPDEST PUSH1 0x20 DUP2 MSTORE PUSH1 0x0 PUSH2 0x44B7 PUSH1 0x20 DUP4 ADD DUP5 PUSH2 0x44EA JUMP JUMPDEST PUSH1 0x0 PUSH1 0x20 DUP3 DUP5 SUB SLT ISZERO PUSH2 0x453B JUMPI PUSH1 0x0 DUP1 REVERT JUMPDEST POP CALLDATALOAD SWAP2 SWAP1 POP JUMP JUMPDEST DUP1 CALLDATALOAD PUSH1 0x1 PUSH1 0x1 PUSH1 0xA0 SHL SUB DUP2 AND DUP2 EQ PUSH2 0x159E JUMPI PUSH1 0x0 DUP1 REVERT JUMPDEST PUSH1 0x0 DUP1 PUSH1 0x40 DUP4 DUP6 SUB SLT ISZERO PUSH2 0x456C JUMPI PUSH1 0x0 DUP1 REVERT JUMPDEST PUSH2 0x4575 DUP4 PUSH2 0x4542 JUMP JUMPDEST SWAP5 PUSH1 0x20 SWAP4 SWAP1 SWAP4 ADD CALLDATALOAD SWAP4 POP POP POP JUMP JUMPDEST PUSH4 0x4E487B71 PUSH1 0xE0 SHL PUSH1 0x0 MSTORE PUSH1 0x41 PUSH1 0x4 MSTORE PUSH1 0x24 PUSH1 0x0 REVERT JUMPDEST PUSH1 0x0 PUSH8 0xFFFFFFFFFFFFFFFF DUP1 DUP5 GT ISZERO PUSH2 0x45B4 JUMPI PUSH2 0x45B4 PUSH2 0x4583 JUMP JUMPDEST PUSH1 0x40 MLOAD PUSH1 0x1F DUP6 ADD PUSH1 0x1F NOT SWAP1 DUP2 AND PUSH1 0x3F ADD AND DUP2 ADD SWAP1 DUP3 DUP3 GT DUP2 DUP4 LT OR ISZERO PUSH2 0x45DC JUMPI PUSH2 0x45DC PUSH2 0x4583 JUMP JUMPDEST DUP2 PUSH1 0x40 MSTORE DUP1 SWAP4 POP DUP6 DUP2 MSTORE DUP7 DUP7 DUP7 ADD GT ISZERO PUSH2 0x45F5 JUMPI PUSH1 0x0 DUP1 REVERT JUMPDEST DUP6 DUP6 PUSH1 0x20 DUP4 ADD CALLDATACOPY PUSH1 0x0 PUSH1 0x20 DUP8 DUP4 ADD ADD MSTORE POP POP POP SWAP4 SWAP3 POP POP POP JUMP JUMPDEST PUSH1 0x0 DUP3 PUSH1 0x1F DUP4 ADD SLT PUSH2 0x4620 JUMPI PUSH1 0x0 DUP1 REVERT JUMPDEST PUSH2 0x44B7 DUP4 DUP4 CALLDATALOAD PUSH1 0x20 DUP6 ADD PUSH2 0x4599 JUMP JUMPDEST PUSH1 0x0 DUP1 PUSH1 0x0 DUP1 PUSH1 0x0 DUP1 PUSH1 0x0 DUP1 PUSH1 0x0 PUSH2 0x120 DUP11 DUP13 SUB SLT ISZERO PUSH2 0x464E JUMPI PUSH1 0x0 DUP1 REVERT JUMPDEST DUP10 CALLDATALOAD SWAP9 POP PUSH2 0x465E PUSH1 0x20 DUP12 ADD PUSH2 0x4542 JUMP JUMPDEST SWAP8 POP PUSH1 0x40 DUP11 ADD CALLDATALOAD PUSH8 0xFFFFFFFFFFFFFFFF DUP1 DUP3 GT ISZERO PUSH2 0x467B JUMPI PUSH1 0x0 DUP1 REVERT JUMPDEST PUSH2 0x4687 DUP14 DUP4 DUP15 ADD PUSH2 0x460F JUMP JUMPDEST SWAP9 POP PUSH1 0x60 DUP13 ADD CALLDATALOAD SWAP2 POP DUP1 DUP3 GT ISZERO PUSH2 0x469D JUMPI PUSH1 0x0 DUP1 REVERT JUMPDEST PUSH2 0x46A9 DUP14 DUP4 DUP15 ADD PUSH2 0x460F JUMP JUMPDEST SWAP8 POP PUSH1 0x80 DUP13 ADD CALLDATALOAD SWAP2 POP DUP1 DUP3 GT ISZERO PUSH2 0x46BF JUMPI PUSH1 0x0 DUP1 REVERT JUMPDEST PUSH2 0x46CB DUP14 DUP4 DUP15 ADD PUSH2 0x460F JUMP JUMPDEST SWAP7 POP PUSH1 0xA0 DUP13 ADD CALLDATALOAD SWAP6 POP PUSH1 0xC0 DUP13 ADD CALLDATALOAD SWAP2 POP DUP1 DUP3 GT ISZERO PUSH2 0x46E8 JUMPI PUSH1 0x0 DUP1 REVERT JUMPDEST POP PUSH2 0x46F5 DUP13 DUP3 DUP14 ADD PUSH2 0x460F JUMP JUMPDEST SWAP4 POP POP PUSH1 0xE0 DUP11 ADD CALLDATALOAD SWAP2 POP PUSH2 0x100 DUP11 ADD CALLDATALOAD SWAP1 POP SWAP3 SWAP6 SWAP9 POP SWAP3 SWAP6 SWAP9 POP SWAP3 SWAP6 SWAP9 JUMP JUMPDEST PUSH1 0x0 PUSH2 0x120 DUP12 DUP4 MSTORE DUP1 PUSH1 0x20 DUP5 ADD MSTORE PUSH2 0x472E DUP2 DUP5 ADD DUP13 PUSH2 0x44EA JUMP JUMPDEST SWAP1 POP DUP10 PUSH1 0x40 DUP5 ADD MSTORE DUP3 DUP2 SUB PUSH1 0x60 DUP5 ADD MSTORE PUSH2 0x4748 DUP2 DUP11 PUSH2 0x44EA JUMP JUMPDEST SWAP1 POP DUP8 PUSH1 0x80 DUP5 ADD MSTORE DUP3 DUP2 SUB PUSH1 0xA0 DUP5 ADD MSTORE PUSH2 0x4762 DUP2 DUP9 PUSH2 0x44EA JUMP JUMPDEST SWAP1 POP DUP3 DUP2 SUB PUSH1 0xC0 DUP5 ADD MSTORE PUSH2 0x4776 DUP2 DUP8 PUSH2 0x44EA JUMP JUMPDEST PUSH1 0xE0 DUP5 ADD SWAP6 SWAP1 SWAP6 MSTORE POP POP PUSH1 0x1 PUSH1 0x1 PUSH1 0xA0 SHL SUB SWAP2 SWAP1 SWAP2 AND PUSH2 0x100 SWAP1 SWAP2 ADD MSTORE SWAP8 SWAP7 POP POP POP POP POP POP POP JUMP JUMPDEST PUSH1 0x0 PUSH1 0x20 DUP3 DUP5 SUB SLT ISZERO PUSH2 0x47B0 JUMPI PUSH1 0x0 DUP1 REVERT JUMPDEST PUSH2 0x44B7 DUP3 PUSH2 0x4542 JUMP JUMPDEST PUSH1 0x0 DUP1 PUSH1 0x40 DUP4 DUP6 SUB SLT ISZERO PUSH2 0x47CC JUMPI PUSH1 0x0 DUP1 REVERT JUMPDEST POP POP DUP1 CALLDATALOAD SWAP3 PUSH1 0x20 SWAP1 SWAP2 ADD CALLDATALOAD SWAP2 POP JUMP JUMPDEST PUSH1 0x0 DUP1 PUSH1 0x0 PUSH1 0x60 DUP5 DUP7 SUB SLT ISZERO PUSH2 0x47F0 JUMPI PUSH1 0x0 DUP1 REVERT JUMPDEST PUSH2 0x47F9 DUP5 PUSH2 0x4542 JUMP JUMPDEST SWAP3 POP PUSH2 0x4807 PUSH1 0x20 DUP6 ADD PUSH2 0x4542 JUMP JUMPDEST SWAP2 POP PUSH1 0x40 DUP5 ADD CALLDATALOAD SWAP1 POP SWAP3 POP SWAP3 POP SWAP3 JUMP JUMPDEST DUP9 DUP2 MSTORE PUSH1 0x1 PUSH1 0x1 PUSH1 0xA0 SHL SUB DUP9 AND PUSH1 0x20 DUP3 ADD MSTORE PUSH2 0x100 PUSH1 0x40 DUP3 ADD DUP2 SWAP1 MSTORE PUSH1 0x0 SWAP1 PUSH2 0x4842 DUP4 DUP3 ADD DUP11 PUSH2 0x44EA JUMP JUMPDEST SWAP1 POP DUP3 DUP2 SUB PUSH1 0x60 DUP5 ADD MSTORE PUSH2 0x4856 DUP2 DUP10 PUSH2 0x44EA JUMP JUMPDEST SWAP1 POP DUP3 DUP2 SUB PUSH1 0x80 DUP5 ADD MSTORE PUSH2 0x486A DUP2 DUP9 PUSH2 0x44EA JUMP JUMPDEST SWAP1 POP DUP3 DUP2 SUB PUSH1 0xA0 DUP5 ADD MSTORE PUSH2 0x487E DUP2 DUP8 PUSH2 0x44EA JUMP JUMPDEST SWAP1 POP DUP3 DUP2 SUB PUSH1 0xC0 DUP5 ADD MSTORE PUSH2 0x4892 DUP2 DUP7 PUSH2 0x44EA JUMP JUMPDEST SWAP2 POP POP DUP3 PUSH1 0xE0 DUP4 ADD MSTORE SWAP10 SWAP9 POP POP POP POP POP POP POP POP POP JUMP JUMPDEST PUSH1 0x0 PUSH1 0x20 DUP3 DUP5 SUB SLT ISZERO PUSH2 0x48BA JUMPI PUSH1 0x0 DUP1 REVERT JUMPDEST DUP2 CALLDATALOAD PUSH8 0xFFFFFFFFFFFFFFFF DUP2 GT ISZERO PUSH2 0x48D1 JUMPI PUSH1 0x0 DUP1 REVERT JUMPDEST PUSH2 0x310F DUP5 DUP3 DUP6 ADD PUSH2 0x460F JUMP JUMPDEST PUSH1 0x0 DUP2 MLOAD DUP1 DUP5 MSTORE PUSH1 0x20 DUP1 DUP6 ADD SWAP5 POP DUP1 DUP5 ADD PUSH1 0x0 JUMPDEST DUP4 DUP2 LT ISZERO PUSH2 0x490D JUMPI DUP2 MLOAD DUP8 MSTORE SWAP6 DUP3 ADD SWAP6 SWAP1 DUP3 ADD SWAP1 PUSH1 0x1 ADD PUSH2 0x48F1 JUMP JUMPDEST POP SWAP5 SWAP6 SWAP5 POP POP POP POP POP JUMP JUMPDEST PUSH1 0x80 DUP2 MSTORE PUSH1 0x0 PUSH2 0x492B PUSH1 0x80 DUP4 ADD DUP8 PUSH2 0x48DD JUMP JUMPDEST DUP3 DUP2 SUB PUSH1 0x20 DUP5 ADD MSTORE PUSH2 0x493D DUP2 DUP8 PUSH2 0x48DD JUMP JUMPDEST PUSH1 0x40 DUP5 ADD SWAP6 SWAP1 SWAP6 MSTORE POP POP PUSH1 0x60 ADD MSTORE SWAP3 SWAP2 POP POP JUMP JUMPDEST DUP1 CALLDATALOAD DUP1 ISZERO ISZERO DUP2 EQ PUSH2 0x159E JUMPI PUSH1 0x0 DUP1 REVERT JUMPDEST PUSH1 0x0 DUP1 PUSH1 0x40 DUP4 DUP6 SUB SLT ISZERO PUSH2 0x4974 JUMPI PUSH1 0x0 DUP1 REVERT JUMPDEST DUP3 CALLDATALOAD SWAP2 POP PUSH2 0x4984 PUSH1 0x20 DUP5 ADD PUSH2 0x4951 JUMP JUMPDEST SWAP1 POP SWAP3 POP SWAP3 SWAP1 POP JUMP JUMPDEST PUSH1 0x20 DUP2 MSTORE PUSH1 0x0 PUSH2 0x44B7 PUSH1 0x20 DUP4 ADD DUP5 PUSH2 0x48DD JUMP JUMPDEST PUSH1 0x0 DUP1 PUSH1 0x0 DUP1 PUSH1 0x80 DUP6 DUP8 SUB SLT ISZERO PUSH2 0x49B6 JUMPI PUSH1 0x0 DUP1 REVERT JUMPDEST POP POP DUP3 CALLDATALOAD SWAP5 PUSH1 0x20 DUP5 ADD CALLDATALOAD SWAP5 POP PUSH1 0x40 DUP5 ADD CALLDATALOAD SWAP4 PUSH1 0x60 ADD CALLDATALOAD SWAP3 POP SWAP1 POP JUMP JUMPDEST PUSH1 0x0 DUP1 PUSH1 0x40 DUP4 DUP6 SUB SLT ISZERO PUSH2 0x49E5 JUMPI PUSH1 0x0 DUP1 REVERT JUMPDEST PUSH2 0x49EE DUP4 PUSH2 0x4542 JUMP JUMPDEST SWAP2 POP PUSH2 0x4984 PUSH1 0x20 DUP5 ADD PUSH2 0x4951 JUMP JUMPDEST PUSH1 0x0 DUP1 PUSH1 0x0 DUP1 PUSH1 0x80 DUP6 DUP8 SUB SLT ISZERO PUSH2 0x4A12 JUMPI PUSH1 0x0 DUP1 REVERT JUMPDEST PUSH2 0x4A1B DUP6 PUSH2 0x4542 JUMP JUMPDEST SWAP4 POP PUSH2 0x4A29 PUSH1 0x20 DUP7 ADD PUSH2 0x4542 JUMP JUMPDEST SWAP3 POP PUSH1 0x40 DUP6 ADD CALLDATALOAD SWAP2 POP PUSH1 0x60 DUP6 ADD CALLDATALOAD PUSH8 0xFFFFFFFFFFFFFFFF DUP2 GT ISZERO PUSH2 0x4A4C JUMPI PUSH1 0x0 DUP1 REVERT JUMPDEST DUP6 ADD PUSH1 0x1F DUP2 ADD DUP8 SGT PUSH2 0x4A5D JUMPI PUSH1 0x0 DUP1 REVERT JUMPDEST PUSH2 0x4A6C DUP8 DUP3 CALLDATALOAD PUSH1 0x20 DUP5 ADD PUSH2 0x4599 JUMP JUMPDEST SWAP2 POP POP SWAP3 SWAP6 SWAP2 SWAP5 POP SWAP3 POP JUMP JUMPDEST PUSH1 0x0 DUP1 PUSH1 0x0 DUP1 PUSH1 0x0 DUP1 PUSH1 0x0 PUSH1 0xE0 DUP9 DUP11 SUB SLT ISZERO PUSH2 0x4A93 JUMPI PUSH1 0x0 DUP1 REVERT JUMPDEST DUP8 CALLDATALOAD SWAP7 POP PUSH2 0x4AA3 PUSH1 0x20 DUP10 ADD PUSH2 0x4542 JUMP JUMPDEST SWAP6 POP PUSH1 0x40 DUP9 ADD CALLDATALOAD PUSH8 0xFFFFFFFFFFFFFFFF DUP1 DUP3 GT ISZERO PUSH2 0x4AC0 JUMPI PUSH1 0x0 DUP1 REVERT JUMPDEST PUSH2 0x4ACC DUP12 DUP4 DUP13 ADD PUSH2 0x460F JUMP JUMPDEST SWAP7 POP PUSH1 0x60 DUP11 ADD CALLDATALOAD SWAP2 POP DUP1 DUP3 GT ISZERO PUSH2 0x4AE2 JUMPI PUSH1 0x0 DUP1 REVERT JUMPDEST PUSH2 0x4AEE DUP12 DUP4 DUP13 ADD PUSH2 0x460F JUMP JUMPDEST SWAP6 POP PUSH1 0x80 DUP11 ADD CALLDATALOAD SWAP2 POP DUP1 DUP3 GT ISZERO PUSH2 0x4B04 JUMPI PUSH1 0x0 DUP1 REVERT JUMPDEST PUSH2 0x4B10 DUP12 DUP4 DUP13 ADD PUSH2 0x460F JUMP JUMPDEST SWAP5 POP PUSH1 0xA0 DUP11 ADD CALLDATALOAD SWAP4 POP PUSH1 0xC0 DUP11 ADD CALLDATALOAD SWAP2 POP DUP1 DUP3 GT ISZERO PUSH2 0x4B2D JUMPI PUSH1 0x0 DUP1 REVERT JUMPDEST POP PUSH2 0x4B3A DUP11 DUP3 DUP12 ADD PUSH2 0x460F JUMP JUMPDEST SWAP2 POP POP SWAP3 SWAP6 SWAP9 SWAP2 SWAP5 SWAP8 POP SWAP3 SWAP6 POP JUMP JUMPDEST PUSH1 0x0 DUP1 PUSH1 0x0 DUP1 PUSH1 0x0 DUP1 PUSH1 0xC0 DUP8 DUP10 SUB SLT ISZERO PUSH2 0x4B62 JUMPI PUSH1 0x0 DUP1 REVERT JUMPDEST DUP7 CALLDATALOAD PUSH8 0xFFFFFFFFFFFFFFFF DUP1 DUP3 GT ISZERO PUSH2 0x4B7A JUMPI PUSH1 0x0 DUP1 REVERT JUMPDEST PUSH2 0x4B86 DUP11 DUP4 DUP12 ADD PUSH2 0x460F JUMP JUMPDEST SWAP8 POP PUSH1 0x20 DUP10 ADD CALLDATALOAD SWAP2 POP DUP1 DUP3 GT ISZERO PUSH2 0x4B9C JUMPI PUSH1 0x0 DUP1 REVERT JUMPDEST PUSH2 0x4BA8 DUP11 DUP4 DUP12 ADD PUSH2 0x460F JUMP JUMPDEST SWAP7 POP PUSH1 0x40 DUP10 ADD CALLDATALOAD SWAP2 POP DUP1 DUP3 GT ISZERO PUSH2 0x4BBE JUMPI PUSH1 0x0 DUP1 REVERT JUMPDEST PUSH2 0x4BCA DUP11 DUP4 DUP12 ADD PUSH2 0x460F JUMP JUMPDEST SWAP6 POP PUSH1 0x60 DUP10 ADD CALLDATALOAD SWAP2 POP DUP1 DUP3 GT ISZERO PUSH2 0x4BE0 JUMPI PUSH1 0x0 DUP1 REVERT JUMPDEST PUSH2 0x4BEC DUP11 DUP4 DUP12 ADD PUSH2 0x460F JUMP JUMPDEST SWAP5 POP PUSH1 0x80 DUP10 ADD CALLDATALOAD SWAP2 POP DUP1 DUP3 GT ISZERO PUSH2 0x4C02 JUMPI PUSH1 0x0 DUP1 REVERT JUMPDEST POP PUSH2 0x4C0F DUP10 DUP3 DUP11 ADD PUSH2 0x460F JUMP JUMPDEST SWAP3 POP POP PUSH1 0xA0 DUP8 ADD CALLDATALOAD SWAP1 POP SWAP3 SWAP6 POP SWAP3 SWAP6 POP SWAP3 SWAP6 JUMP JUMPDEST PUSH1 0x0 DUP1 PUSH1 0x40 DUP4 DUP6 SUB SLT ISZERO PUSH2 0x4C36 JUMPI PUSH1 0x0 DUP1 REVERT JUMPDEST PUSH2 0x4C3F DUP4 PUSH2 0x4542 JUMP JUMPDEST SWAP2 POP PUSH2 0x4984 PUSH1 0x20 DUP5 ADD PUSH2 0x4542 JUMP JUMPDEST PUSH1 0x1 DUP2 DUP2 SHR SWAP1 DUP3 AND DUP1 PUSH2 0x4C61 JUMPI PUSH1 0x7F DUP3 AND SWAP2 POP JUMPDEST PUSH1 0x20 DUP3 LT DUP2 EQ ISZERO PUSH2 0x4C82 JUMPI PUSH4 0x4E487B71 PUSH1 0xE0 SHL PUSH1 0x0 MSTORE PUSH1 0x22 PUSH1 0x4 MSTORE PUSH1 0x24 PUSH1 0x0 REVERT JUMPDEST POP SWAP2 SWAP1 POP JUMP JUMPDEST PUSH4 0x4E487B71 PUSH1 0xE0 SHL PUSH1 0x0 MSTORE PUSH1 0x32 PUSH1 0x4 MSTORE PUSH1 0x24 PUSH1 0x0 REVERT JUMPDEST PUSH4 0x4E487B71 PUSH1 0xE0 SHL PUSH1 0x0 MSTORE PUSH1 0x11 PUSH1 0x4 MSTORE PUSH1 0x24 PUSH1 0x0 REVERT JUMPDEST PUSH1 0x0 DUP3 NOT DUP3 GT ISZERO PUSH2 0x4CC7 JUMPI PUSH2 0x4CC7 PUSH2 0x4C9E JUMP JUMPDEST POP ADD SWAP1 JUMP JUMPDEST PUSH1 0x0 DUP3 DUP3 LT ISZERO PUSH2 0x4CDE JUMPI PUSH2 0x4CDE PUSH2 0x4C9E JUMP JUMPDEST POP SUB SWAP1 JUMP JUMPDEST PUSH1 0x0 DUP4 MLOAD PUSH2 0x4CF5 DUP2 DUP5 PUSH1 0x20 DUP9 ADD PUSH2 0x44BE JUMP JUMPDEST PUSH3 0x10169 PUSH1 0xED SHL SWAP1 DUP4 ADD SWAP1 DUP2 MSTORE DUP4 MLOAD PUSH2 0x4D15 DUP2 PUSH1 0x3 DUP5 ADD PUSH1 0x20 DUP9 ADD PUSH2 0x44BE JUMP JUMPDEST ADD PUSH1 0x3 ADD SWAP5 SWAP4 POP POP POP POP JUMP JUMPDEST PUSH1 0x0 PUSH1 0x0 NOT DUP3 EQ ISZERO PUSH2 0x4D35 JUMPI PUSH2 0x4D35 PUSH2 0x4C9E JUMP JUMPDEST POP PUSH1 0x1 ADD SWAP1 JUMP JUMPDEST PUSH1 0x20 DUP1 DUP3 MSTORE PUSH1 0x11 SWAP1 DUP3 ADD MSTORE PUSH17 0x2CB7BA9030B932903737BA1037BBB732B9 PUSH1 0x79 SHL PUSH1 0x40 DUP3 ADD MSTORE PUSH1 0x60 ADD SWAP1 JUMP JUMPDEST PUSH1 0x20 DUP1 DUP3 MSTORE PUSH1 0xD SWAP1 DUP3 ADD MSTORE PUSH13 0x1B9BDD0819195D9DD85B1B195D PUSH1 0x9A SHL PUSH1 0x40 DUP3 ADD MSTORE PUSH1 0x60 ADD SWAP1 JUMP JUMPDEST PUSH1 0x0 DUP3 MLOAD PUSH2 0x4DA0 DUP2 DUP5 PUSH1 0x20 DUP8 ADD PUSH2 0x44BE JUMP JUMPDEST SWAP2 SWAP1 SWAP2 ADD SWAP3 SWAP2 POP POP JUMP JUMPDEST PUSH1 0x20 DUP1 DUP3 MSTORE PUSH1 0x31 SWAP1 DUP3 ADD MSTORE PUSH32 0x4552433732313A207472616E736665722063616C6C6572206973206E6F74206F PUSH1 0x40 DUP3 ADD MSTORE PUSH17 0x1DDB995C881B9BDC88185C1C1C9BDD9959 PUSH1 0x7A SHL PUSH1 0x60 DUP3 ADD MSTORE PUSH1 0x80 ADD SWAP1 JUMP JUMPDEST PUSH1 0x20 DUP1 DUP3 MSTORE PUSH1 0xB SWAP1 DUP3 ADD MSTORE PUSH11 0x185D58DD1A5BDB88195B99 PUSH1 0xAA SHL PUSH1 0x40 DUP3 ADD MSTORE PUSH1 0x60 ADD SWAP1 JUMP JUMPDEST PUSH1 0x20 DUP1 DUP3 MSTORE PUSH1 0xF SWAP1 DUP3 ADD MSTORE PUSH15 0x6E6674206E6F7420696E2073616C65 PUSH1 0x88 SHL PUSH1 0x40 DUP3 ADD MSTORE PUSH1 0x60 ADD SWAP1 JUMP JUMPDEST PUSH1 0x0 DUP2 PUSH1 0x0 NOT DIV DUP4 GT DUP3 ISZERO ISZERO AND ISZERO PUSH2 0x4E63 JUMPI PUSH2 0x4E63 PUSH2 0x4C9E JUMP JUMPDEST POP MUL SWAP1 JUMP JUMPDEST PUSH4 0x4E487B71 PUSH1 0xE0 SHL PUSH1 0x0 MSTORE PUSH1 0x12 PUSH1 0x4 MSTORE PUSH1 0x24 PUSH1 0x0 REVERT JUMPDEST PUSH1 0x0 DUP3 PUSH2 0x4E8D JUMPI PUSH2 0x4E8D PUSH2 0x4E68 JUMP JUMPDEST POP DIV SWAP1 JUMP JUMPDEST PUSH1 0x20 DUP1 DUP3 MSTORE PUSH1 0xD SWAP1 DUP3 ADD MSTORE PUSH13 0x1C99599D5B990819985A5B1959 PUSH1 0x9A SHL PUSH1 0x40 DUP3 ADD MSTORE PUSH1 0x60 ADD SWAP1 JUMP JUMPDEST PUSH1 0x20 DUP1 DUP3 MSTORE PUSH1 0xF SWAP1 DUP3 ADD MSTORE PUSH15 0x616C726561647920696E2073616C65 PUSH1 0x88 SHL PUSH1 0x40 DUP3 ADD MSTORE PUSH1 0x60 ADD SWAP1 JUMP JUMPDEST PUSH1 0x0 DUP4 MLOAD PUSH2 0x4EF4 DUP2 DUP5 PUSH1 0x20 DUP9 ADD PUSH2 0x44BE JUMP JUMPDEST DUP4 MLOAD SWAP1 DUP4 ADD SWAP1 PUSH2 0x4F08 DUP2 DUP4 PUSH1 0x20 DUP9 ADD PUSH2 0x44BE JUMP JUMPDEST ADD SWAP5 SWAP4 POP POP POP POP JUMP JUMPDEST PUSH1 0x0 DUP1 DUP4 SLOAD DUP2 PUSH1 0x1 DUP3 DUP2 SHR SWAP2 POP DUP1 DUP4 AND DUP1 PUSH2 0x4F2D JUMPI PUSH1 0x7F DUP4 AND SWAP3 POP JUMPDEST PUSH1 0x20 DUP1 DUP5 LT DUP3 EQ ISZERO PUSH2 0x4F4D JUMPI PUSH4 0x4E487B71 PUSH1 0xE0 SHL DUP7 MSTORE PUSH1 0x22 PUSH1 0x4 MSTORE PUSH1 0x24 DUP7 REVERT JUMPDEST DUP2 DUP1 ISZERO PUSH2 0x4F61 JUMPI PUSH1 0x1 DUP2 EQ PUSH2 0x4F72 JUMPI PUSH2 0x4F9F JUMP JUMPDEST PUSH1 0xFF NOT DUP7 AND DUP10 MSTORE DUP5 DUP10 ADD SWAP7 POP PUSH2 0x4F9F JUMP JUMPDEST PUSH1 0x0 DUP11 DUP2 MSTORE PUSH1 0x20 SWAP1 KECCAK256 PUSH1 0x0 JUMPDEST DUP7 DUP2 LT ISZERO PUSH2 0x4F97 JUMPI DUP2 SLOAD DUP12 DUP3 ADD MSTORE SWAP1 DUP6 ADD SWAP1 DUP4 ADD PUSH2 0x4F7E JUMP JUMPDEST POP POP DUP5 DUP10 ADD SWAP7 POP JUMPDEST POP SWAP5 SWAP9 SWAP8 POP POP POP POP POP POP POP POP JUMP JUMPDEST PUSH1 0x0 DUP3 PUSH2 0x4FBC JUMPI PUSH2 0x4FBC PUSH2 0x4E68 JUMP JUMPDEST POP MOD SWAP1 JUMP JUMPDEST PUSH1 0x0 DUP2 PUSH2 0x4FD0 JUMPI PUSH2 0x4FD0 PUSH2 0x4C9E JUMP JUMPDEST POP PUSH1 0x0 NOT ADD SWAP1 JUMP JUMPDEST PUSH1 0x20 DUP1 DUP3 MSTORE PUSH1 0x32 SWAP1 DUP3 ADD MSTORE PUSH32 0x4552433732313A207472616E7366657220746F206E6F6E204552433732315265 PUSH1 0x40 DUP3 ADD MSTORE PUSH18 0x31B2B4BB32B91034B6B83632B6B2B73A32B9 PUSH1 0x71 SHL PUSH1 0x60 DUP3 ADD MSTORE PUSH1 0x80 ADD SWAP1 JUMP JUMPDEST PUSH1 0x1 PUSH1 0x1 PUSH1 0xA0 SHL SUB DUP6 DUP2 AND DUP3 MSTORE DUP5 AND PUSH1 0x20 DUP3 ADD MSTORE PUSH1 0x40 DUP2 ADD DUP4 SWAP1 MSTORE PUSH1 0x80 PUSH1 0x60 DUP3 ADD DUP2 SWAP1 MSTORE PUSH1 0x0 SWAP1 PUSH2 0x505D SWAP1 DUP4 ADD DUP5 PUSH2 0x44EA JUMP JUMPDEST SWAP7 SWAP6 POP POP POP POP POP POP JUMP JUMPDEST PUSH1 0x0 PUSH1 0x20 DUP3 DUP5 SUB SLT ISZERO PUSH2 0x5079 JUMPI PUSH1 0x0 DUP1 REVERT JUMPDEST DUP2 MLOAD PUSH2 0x44B7 DUP2 PUSH2 0x4484 JUMP JUMPDEST PUSH4 0x4E487B71 PUSH1 0xE0 SHL PUSH1 0x0 MSTORE PUSH1 0x31 PUSH1 0x4 MSTORE PUSH1 0x24 PUSH1 0x0 REVERT INVALID LOG2 PUSH5 0x6970667358 0x22 SLT KECCAK256 INVALID 0xEF PUSH8 0x6AD123E661CC845B PUSH17 0x734C9F1B3E0C9B49C22B86A4B9FA8BDE93 SWAP8 CODESIZE 0xBE PUSH5 0x736F6C6343 STOP ADDMOD MULMOD STOP CALLER "},"methodIdentifiers":{"approve(address,uint256)":"095ea7b3","auctiondetail(uint256)":"29bc5825","auctionfees()":"6d908f38","auctionnftlist(uint256)":"4afb6c79","balanceOf(address)":"70a08231","baseURI()":"6c0360eb","burnorinalnft(uint256,uint256)":"207cc63e","buyauction(uint256)":"93003717","buynft(uint256,uint256)":"41d7f75b","cancelfixedsale(uint256)":"0d944bec","changeauctionreturnamountfees(uint256)":"8e2aadb5","changecsdogefees(uint256)":"cf477d6c","claim(uint256,uint256)":"c3490263","collectiondetails(uint256)":"4e72cea2","collectionform()":"9f74b060","collectionnft(uint256)":"8397fe26","collectionstored(uint256,uint256)":"b41a4d3d","create(uint256,address,string,string,string,uint256,string)":"cc87103b","createMulti(uint256,address,string,string,string,uint256,string,uint256,uint256)":"0f3c920c","createcollection(string,string,string,string,string,uint256)":"e6629e0a","csdogechoice(uint256)":"a4bf2108","csdogefees()":"855fb05e","deletecollection(uint256)":"ef6e9440","fixedsales(uint256,uint256)":"9b3f83d3","getApproved(uint256)":"081812fc","isApprovedForAll(address,address)":"e985e9c5","listofsalenft(uint256)":"65a77932","mintfee()":"d3c5915a","name()":"06fdde03","nftauctionend(uint256)":"2d5ea429","nftcollectionid(uint256)":"ec2d455d","nftinformation(uint256)":"1d66870d","nftstake(uint256)":"967a7a65","nftstakestate(uint256)":"6fb3c03a","nftunstack(uint256)":"115f4a55","originalowner(uint256)":"2800b89e","ownerOf(uint256)":"6352211e","ownernft()":"364ca6ed","removesfromauction(uint256)":"9e3c6311","safeTransferFrom(address,address,uint256)":"42842e0e","safeTransferFrom(address,address,uint256,bytes)":"b88d4fde","salenftlist(uint256)":"5d91bae9","setApprovalForAll(address,bool)":"a22cb465","setBaseURI(string)":"55f804b3","setDevWallet(address)":"1f53ac02","setMintFeeInWei(uint256)":"5c368498","setOwnerWallet(address)":"bb542ef0","setTreasuryWallet(address)":"a8602fea","setstackingContract(address)":"c001eebe","stakevalue(uint256)":"a6c0e24b","startauction(uint256,uint256,uint256,uint256)":"80598bfa","stopduplicate(string)":"ecad5cf6","supportsInterface(bytes4)":"01ffc9a7","symbol()":"95d89b41","timing(uint256)":"70bf164d","tokenByIndex(uint256)":"4f6ccce7","tokenOfOwnerByIndex(address,uint256)":"2f745c59","tokenURI(uint256)":"c87b56dd","tokenidmint()":"20e83600","totalSupply()":"18160ddd","totalcollection(address)":"e448d598","totalcollectiondetails()":"6986b483","totalnft(uint256)":"2d11e332","transferFrom(address,address,uint256)":"23b872dd","upgradeauction(uint256,bool)":"67a3e1d6","userinfo(address,uint256)":"5a9cbc2b","withdrawbnb(uint256)":"f4c66c18"}}}}}